{
  "contractName": "FlightSuretyApp",
  "abi": [
    {
      "constant": true,
      "inputs": [],
      "name": "REGISTRATION_FEE",
      "outputs": [
        {
          "name": "",
          "type": "uint256"
        }
      ],
      "payable": false,
      "stateMutability": "view",
      "type": "function"
    },
    {
      "inputs": [
        {
          "name": "dataContract",
          "type": "address"
        }
      ],
      "payable": false,
      "stateMutability": "nonpayable",
      "type": "constructor"
    },
    {
      "anonymous": false,
      "inputs": [
        {
          "indexed": true,
          "name": "airlineAddress",
          "type": "address"
        }
      ],
      "name": "AirlineNominated",
      "type": "event"
    },
    {
      "anonymous": false,
      "inputs": [
        {
          "indexed": true,
          "name": "airlineAddress",
          "type": "address"
        }
      ],
      "name": "AirlineRegistered",
      "type": "event"
    },
    {
      "anonymous": false,
      "inputs": [
        {
          "indexed": true,
          "name": "airlineAddress",
          "type": "address"
        },
        {
          "indexed": false,
          "name": "amount",
          "type": "uint256"
        }
      ],
      "name": "AirlineFunded",
      "type": "event"
    },
    {
      "anonymous": false,
      "inputs": [
        {
          "indexed": true,
          "name": "airlineAddress",
          "type": "address"
        },
        {
          "indexed": false,
          "name": "flight",
          "type": "string"
        },
        {
          "indexed": false,
          "name": "departureTime",
          "type": "uint256"
        }
      ],
      "name": "FlightRegistered",
      "type": "event"
    },
    {
      "anonymous": false,
      "inputs": [
        {
          "indexed": true,
          "name": "passengerAddress",
          "type": "address"
        },
        {
          "indexed": false,
          "name": "amount",
          "type": "uint256"
        }
      ],
      "name": "InsurancePurchased",
      "type": "event"
    },
    {
      "anonymous": false,
      "inputs": [
        {
          "indexed": true,
          "name": "airlineAddress",
          "type": "address"
        },
        {
          "indexed": false,
          "name": "flight",
          "type": "string"
        },
        {
          "indexed": false,
          "name": "departureTime",
          "type": "uint256"
        }
      ],
      "name": "InsurancePayout",
      "type": "event"
    },
    {
      "anonymous": false,
      "inputs": [
        {
          "indexed": false,
          "name": "airline",
          "type": "address"
        },
        {
          "indexed": false,
          "name": "flight",
          "type": "string"
        },
        {
          "indexed": false,
          "name": "departureTime",
          "type": "uint256"
        },
        {
          "indexed": false,
          "name": "status",
          "type": "uint8"
        }
      ],
      "name": "FlightStatusInfo",
      "type": "event"
    },
    {
      "anonymous": false,
      "inputs": [
        {
          "indexed": false,
          "name": "airline",
          "type": "address"
        },
        {
          "indexed": false,
          "name": "flight",
          "type": "string"
        },
        {
          "indexed": false,
          "name": "departureTime",
          "type": "uint256"
        },
        {
          "indexed": false,
          "name": "status",
          "type": "uint8"
        }
      ],
      "name": "OracleReport",
      "type": "event"
    },
    {
      "anonymous": false,
      "inputs": [
        {
          "indexed": false,
          "name": "index",
          "type": "uint8"
        },
        {
          "indexed": false,
          "name": "airline",
          "type": "address"
        },
        {
          "indexed": false,
          "name": "flight",
          "type": "string"
        },
        {
          "indexed": false,
          "name": "departureTime",
          "type": "uint256"
        }
      ],
      "name": "OracleRequest",
      "type": "event"
    },
    {
      "constant": true,
      "inputs": [],
      "name": "isOperational",
      "outputs": [
        {
          "name": "",
          "type": "bool"
        }
      ],
      "payable": false,
      "stateMutability": "view",
      "type": "function"
    },
    {
      "constant": true,
      "inputs": [
        {
          "name": "airlineAddress",
          "type": "address"
        }
      ],
      "name": "isAirlineRegistered",
      "outputs": [
        {
          "name": "",
          "type": "bool"
        }
      ],
      "payable": false,
      "stateMutability": "view",
      "type": "function"
    },
    {
      "constant": false,
      "inputs": [
        {
          "name": "airlineAddress",
          "type": "address"
        }
      ],
      "name": "registerAirline",
      "outputs": [
        {
          "name": "success",
          "type": "bool"
        },
        {
          "name": "votes",
          "type": "uint256"
        }
      ],
      "payable": false,
      "stateMutability": "nonpayable",
      "type": "function"
    },
    {
      "constant": false,
      "inputs": [],
      "name": "fundAirline",
      "outputs": [],
      "payable": true,
      "stateMutability": "payable",
      "type": "function"
    },
    {
      "constant": true,
      "inputs": [
        {
          "name": "airline",
          "type": "address"
        },
        {
          "name": "flight",
          "type": "string"
        },
        {
          "name": "departureTime",
          "type": "uint256"
        }
      ],
      "name": "isFlightRegistered",
      "outputs": [
        {
          "name": "",
          "type": "bool"
        }
      ],
      "payable": false,
      "stateMutability": "view",
      "type": "function"
    },
    {
      "constant": false,
      "inputs": [
        {
          "name": "flight",
          "type": "string"
        },
        {
          "name": "departureTime",
          "type": "uint256"
        }
      ],
      "name": "registerFlight",
      "outputs": [],
      "payable": false,
      "stateMutability": "nonpayable",
      "type": "function"
    },
    {
      "constant": false,
      "inputs": [
        {
          "name": "airline",
          "type": "address"
        },
        {
          "name": "flight",
          "type": "string"
        },
        {
          "name": "departureTime",
          "type": "uint256"
        }
      ],
      "name": "buyFlightInsurance",
      "outputs": [],
      "payable": true,
      "stateMutability": "payable",
      "type": "function"
    },
    {
      "constant": false,
      "inputs": [
        {
          "name": "airline",
          "type": "address"
        },
        {
          "name": "flight",
          "type": "string"
        },
        {
          "name": "departureTime",
          "type": "uint256"
        }
      ],
      "name": "fetchFlightStatus",
      "outputs": [],
      "payable": false,
      "stateMutability": "nonpayable",
      "type": "function"
    },
    {
      "constant": false,
      "inputs": [],
      "name": "registerOracle",
      "outputs": [],
      "payable": true,
      "stateMutability": "payable",
      "type": "function"
    },
    {
      "constant": true,
      "inputs": [],
      "name": "getMyIndexes",
      "outputs": [
        {
          "name": "",
          "type": "uint8[3]"
        }
      ],
      "payable": false,
      "stateMutability": "view",
      "type": "function"
    },
    {
      "constant": false,
      "inputs": [
        {
          "name": "index",
          "type": "uint8"
        },
        {
          "name": "airline",
          "type": "address"
        },
        {
          "name": "flight",
          "type": "string"
        },
        {
          "name": "departureTime",
          "type": "uint256"
        },
        {
          "name": "statusCode",
          "type": "uint8"
        }
      ],
      "name": "submitOracleResponse",
      "outputs": [],
      "payable": false,
      "stateMutability": "nonpayable",
      "type": "function"
    }
  ],
  "bytecode": "0x60806040526000600160146101000a81548160ff021916908360ff16021790555034801561002c57600080fd5b5060405160208061341883398101806040528101908080519060200190929190505050336000806101000a81548173ffffffffffffffffffffffffffffffffffffffff021916908373ffffffffffffffffffffffffffffffffffffffff16021790555080600160006101000a81548173ffffffffffffffffffffffffffffffffffffffff021916908373ffffffffffffffffffffffffffffffffffffffff16021790555050613338806100e06000396000f3006080604052600436106100ba576000357c0100000000000000000000000000000000000000000000000000000000900463ffffffff168063010c5c97146100bf578063241a53cb1461011a578063339d25901461019757806339cfc995146101a157806343268d7d146102145780635f1cc0e61461029a57806364b4f751146102ed5780639ed1892714610318578063bdfd987714610322578063c10f270014610384578063cd905dff14610403578063f83f11c014610432575b600080fd5b3480156100cb57600080fd5b50610100600480360381019080803573ffffffffffffffffffffffffffffffffffffffff169060200190929190505050610497565b604051808215151515815260200191505060405180910390f35b34801561012657600080fd5b5061017d600480360381019080803573ffffffffffffffffffffffffffffffffffffffff16906020019092919080359060200190820180359060200191909192939192939080359060200190929190505050610598565b604051808215151515815260200191505060405180910390f35b61019f6106b9565b005b3480156101ad57600080fd5b50610212600480360381019080803590602001908201803590602001908080601f0160208091040260200160405190810160405280939291908181526020018383808284378201915050505050509192919290803590602001909291905050506107e1565b005b610298600480360381019080803573ffffffffffffffffffffffffffffffffffffffff169060200190929190803590602001908201803590602001908080601f016020809104026020016040519081016040528093929190818152602001838380828437820191505050505050919291929080359060200190929190505050610bb8565b005b3480156102a657600080fd5b506102af610dae565b6040518082600360200280838360005b838110156102da5780820151818401526020810190506102bf565b5050505090500191505060405180910390f35b3480156102f957600080fd5b50610302610f23565b6040518082815260200191505060405180910390f35b610320610f2f565b005b34801561032e57600080fd5b50610363600480360381019080803573ffffffffffffffffffffffffffffffffffffffff16906020019092919050505061123f565b60405180831515151581526020018281526020019250505060405180910390f35b34801561039057600080fd5b50610401600480360381019080803560ff169060200190929190803573ffffffffffffffffffffffffffffffffffffffff16906020019092919080359060200190820180359060200191909192939192939080359060200190929190803560ff169060200190929190505050611e77565b005b34801561040f57600080fd5b5061041861248f565b604051808215151515815260200191505060405180910390f35b34801561043e57600080fd5b50610495600480360381019080803573ffffffffffffffffffffffffffffffffffffffff16906020019092919080359060200190820180359060200191909192939192939080359060200190929190505050612557565b005b6000600160009054906101000a900473ffffffffffffffffffffffffffffffffffffffff1673ffffffffffffffffffffffffffffffffffffffff1663010c5c97836040518263ffffffff167c0100000000000000000000000000000000000000000000000000000000028152600401808273ffffffffffffffffffffffffffffffffffffffff1673ffffffffffffffffffffffffffffffffffffffff168152602001915050602060405180830381600087803b15801561055657600080fd5b505af115801561056a573d6000803e3d6000fd5b505050506040513d602081101561058057600080fd5b81019080805190602001909291905050509050919050565b6000806105d88686868080601f016020809104026020016040519081016040528093929190818152602001838380828437820191505050505050856129bf565b9050600160009054906101000a900473ffffffffffffffffffffffffffffffffffffffff1673ffffffffffffffffffffffffffffffffffffffff166358ac36a3826040518263ffffffff167c0100000000000000000000000000000000000000000000000000000000028152600401808260001916600019168152602001915050602060405180830381600087803b15801561067357600080fd5b505af1158015610687573d6000803e3d6000fd5b505050506040513d602081101561069d57600080fd5b8101908080519060200190929190505050915050949350505050565b6106c161321f565b670de0b6b3a76400003410151515610741576040517f08c379a000000000000000000000000000000000000000000000000000000000815260040180806020018281038252601c8152602001807f526567697374726174696f6e206665652069732072657175697265640000000081525060200191505060405180910390fd5b61074a33612ae4565b9050604080519081016040528060011515815260200182815250600260003373ffffffffffffffffffffffffffffffffffffffff1673ffffffffffffffffffffffffffffffffffffffff16815260200190815260200160002060008201518160000160006101000a81548160ff0219169083151502179055506020820151816001019060036107da929190613242565b5090505050565b60011515600160009054906101000a900473ffffffffffffffffffffffffffffffffffffffff1673ffffffffffffffffffffffffffffffffffffffff1663f53b6d65336040518263ffffffff167c0100000000000000000000000000000000000000000000000000000000028152600401808273ffffffffffffffffffffffffffffffffffffffff1673ffffffffffffffffffffffffffffffffffffffff168152602001915050602060405180830381600087803b1580156108a257600080fd5b505af11580156108b6573d6000803e3d6000fd5b505050506040513d60208110156108cc57600080fd5b810190808051906020019092919050505015151415156109a0576040517f08c379a00000000000000000000000000000000000000000000000000000000081526004018080602001828103825260498152602001807f4f6e6c7920612066756e646564206169726c696e65206d61792072656769737481526020017f657220616e206169726c696e65206f7220706172746963697061746520696e2081526020017f636f6e73656e737573000000000000000000000000000000000000000000000081525060600191505060405180910390fd5b600160009054906101000a900473ffffffffffffffffffffffffffffffffffffffff1673ffffffffffffffffffffffffffffffffffffffff1663d9d4122633848460006040518563ffffffff167c0100000000000000000000000000000000000000000000000000000000028152600401808573ffffffffffffffffffffffffffffffffffffffff1673ffffffffffffffffffffffffffffffffffffffff168152602001806020018481526020018360ff1660ff168152602001828103825285818151815260200191508051906020019080838360005b83811015610a92578082015181840152602081019050610a77565b50505050905090810190601f168015610abf5780820380516001836020036101000a031916815260200191505b5095505050505050600060405180830381600087803b158015610ae157600080fd5b505af1158015610af5573d6000803e3d6000fd5b505050503373ffffffffffffffffffffffffffffffffffffffff167f34151dfe5f5d2e1a6ed2a8b951d1f9935b00b4711e31a6c7972eaee3b81c1f0283836040518080602001838152602001828103825284818151815260200191508051906020019080838360005b83811015610b79578082015181840152602081019050610b5e565b50505050905090810190601f168015610ba65780820380516001836020036101000a031916815260200191505b50935050505060405180910390a25050565b6000670de0b6b3a76400003411151515610c60576040517f08c379a00000000000000000000000000000000000000000000000000000000081526004018080602001828103825260368152602001807f41206d6178696d756d206f662031206574686572206d61792062652073656e7481526020017f20746f20707572636861736520696e737572616e63650000000000000000000081525060400191505060405180910390fd5b610c6b8484846129bf565b9050600160009054906101000a900473ffffffffffffffffffffffffffffffffffffffff1673ffffffffffffffffffffffffffffffffffffffff16636958f6a93334846040518463ffffffff167c0100000000000000000000000000000000000000000000000000000000028152600401808473ffffffffffffffffffffffffffffffffffffffff1673ffffffffffffffffffffffffffffffffffffffff16815260200183815260200182600019166000191681526020019350505050600060405180830381600087803b158015610d4257600080fd5b505af1158015610d56573d6000803e3d6000fd5b505050503373ffffffffffffffffffffffffffffffffffffffff167f4b58308df033561e43d2c0227b19bea93ae78a05df784c985482b3fb7e154610346040518082815260200191505060405180910390a250505050565b610db661321f565b600260003373ffffffffffffffffffffffffffffffffffffffff1673ffffffffffffffffffffffffffffffffffffffff16815260200190815260200160002060000160009054906101000a900460ff161515610e7a576040517f08c379a000000000000000000000000000000000000000000000000000000000815260040180806020018281038252601b8152602001807f4e6f74207265676973746572656420617320616e206f7261636c65000000000081525060200191505060405180910390fd5b600260003373ffffffffffffffffffffffffffffffffffffffff1673ffffffffffffffffffffffffffffffffffffffff168152602001908152602001600020600101600380602002604051908101604052809291908260038015610f19576020028201916000905b82829054906101000a900460ff1660ff1681526020019060010190602082600001049283019260010382029150808411610ee25790505b5050505050905090565b670de0b6b3a764000081565b60011515600160009054906101000a900473ffffffffffffffffffffffffffffffffffffffff1673ffffffffffffffffffffffffffffffffffffffff1663010c5c97336040518263ffffffff167c0100000000000000000000000000000000000000000000000000000000028152600401808273ffffffffffffffffffffffffffffffffffffffff1673ffffffffffffffffffffffffffffffffffffffff168152602001915050602060405180830381600087803b158015610ff057600080fd5b505af1158015611004573d6000803e3d6000fd5b505050506040513d602081101561101a57600080fd5b810190808051906020019092919050505015151415156110ee576040517f08c379a000000000000000000000000000000000000000000000000000000000815260040180806020018281038252604c8152602001807f4f6e6c7920616e206578697374696e67206169726c696e65206d61792072656781526020017f697374657220616e206169726c696e65206f722070617274696369706174652081526020017f696e20636f6e73656e737573000000000000000000000000000000000000000081525060600191505060405180910390fd5b600160009054906101000a900473ffffffffffffffffffffffffffffffffffffffff1673ffffffffffffffffffffffffffffffffffffffff1663f1a81e7233346040518363ffffffff167c0100000000000000000000000000000000000000000000000000000000028152600401808373ffffffffffffffffffffffffffffffffffffffff1673ffffffffffffffffffffffffffffffffffffffff16815260200182815260200192505050602060405180830381600087803b1580156111b357600080fd5b505af11580156111c7573d6000803e3d6000fd5b505050506040513d60208110156111dd57600080fd5b8101908080519060200190929190505050503373ffffffffffffffffffffffffffffffffffffffff167fe3e3c2f23f7445131259937f93b9ed0c075fe06c9d702be2d7ac549d0ec5fc32346040518082815260200191505060405180910390a2565b60008060011515600160009054906101000a900473ffffffffffffffffffffffffffffffffffffffff1673ffffffffffffffffffffffffffffffffffffffff1663f53b6d65336040518263ffffffff167c0100000000000000000000000000000000000000000000000000000000028152600401808273ffffffffffffffffffffffffffffffffffffffff1673ffffffffffffffffffffffffffffffffffffffff168152602001915050602060405180830381600087803b15801561130357600080fd5b505af1158015611317573d6000803e3d6000fd5b505050506040513d602081101561132d57600080fd5b81019080805190602001909291905050501515141515611401576040517f08c379a00000000000000000000000000000000000000000000000000000000081526004018080602001828103825260498152602001807f4f6e6c7920612066756e646564206169726c696e65206d61792072656769737481526020017f657220616e206169726c696e65206f7220706172746963697061746520696e2081526020017f636f6e73656e737573000000000000000000000000000000000000000000000081525060600191505060405180910390fd5b8260011515600160009054906101000a900473ffffffffffffffffffffffffffffffffffffffff1673ffffffffffffffffffffffffffffffffffffffff1663010c5c97836040518263ffffffff167c0100000000000000000000000000000000000000000000000000000000028152600401808273ffffffffffffffffffffffffffffffffffffffff1673ffffffffffffffffffffffffffffffffffffffff168152602001915050602060405180830381600087803b1580156114c357600080fd5b505af11580156114d7573d6000803e3d6000fd5b505050506040513d60208110156114ed57600080fd5b8101908080519060200190929190505050151514151515611576576040517f08c379a000000000000000000000000000000000000000000000000000000000815260040180806020018281038252601d8152602001807f4169726c696e6520697320616c7265616479207265676973746572656400000081525060200191505060405180910390fd5b8360011515600160009054906101000a900473ffffffffffffffffffffffffffffffffffffffff1673ffffffffffffffffffffffffffffffffffffffff1663f53b6d65836040518263ffffffff167c0100000000000000000000000000000000000000000000000000000000028152600401808273ffffffffffffffffffffffffffffffffffffffff1673ffffffffffffffffffffffffffffffffffffffff168152602001915050602060405180830381600087803b15801561163857600080fd5b505af115801561164c573d6000803e3d6000fd5b505050506040513d602081101561166257600080fd5b81019080805190602001909291905050501515141515156116eb576040517f08c379a00000000000000000000000000000000000000000000000000000000081526004018080602001828103825260198152602001807f4169726c696e6520697320616c72656164792066756e6465640000000000000081525060200191505060405180910390fd5b600160009054906101000a900473ffffffffffffffffffffffffffffffffffffffff1673ffffffffffffffffffffffffffffffffffffffff1663ff506533866040518263ffffffff167c0100000000000000000000000000000000000000000000000000000000028152600401808273ffffffffffffffffffffffffffffffffffffffff1673ffffffffffffffffffffffffffffffffffffffff168152602001915050602060405180830381600087803b1580156117a857600080fd5b505af11580156117bc573d6000803e3d6000fd5b505050506040513d60208110156117d257600080fd5b8101908080519060200190929190505050151561190257600160009054906101000a900473ffffffffffffffffffffffffffffffffffffffff1673ffffffffffffffffffffffffffffffffffffffff166397628295866040518263ffffffff167c0100000000000000000000000000000000000000000000000000000000028152600401808273ffffffffffffffffffffffffffffffffffffffff1673ffffffffffffffffffffffffffffffffffffffff168152602001915050600060405180830381600087803b1580156118a657600080fd5b505af11580156118ba573d6000803e3d6000fd5b505050508473ffffffffffffffffffffffffffffffffffffffff167f73ac0663a7d7498ff328d2056b952397823b74bc9c2dd8b7db794b679ddda62160405160405180910390a25b600460ff16600160009054906101000a900473ffffffffffffffffffffffffffffffffffffffff1673ffffffffffffffffffffffffffffffffffffffff16636c09b1786040518163ffffffff167c0100000000000000000000000000000000000000000000000000000000028152600401602060405180830381600087803b15801561198d57600080fd5b505af11580156119a1573d6000803e3d6000fd5b505050506040513d60208110156119b757600080fd5b8101908080519060200190929190505050101515611d2857600160009054906101000a900473ffffffffffffffffffffffffffffffffffffffff1673ffffffffffffffffffffffffffffffffffffffff1663c5323de586336040518363ffffffff167c0100000000000000000000000000000000000000000000000000000000028152600401808373ffffffffffffffffffffffffffffffffffffffff1673ffffffffffffffffffffffffffffffffffffffff1681526020018273ffffffffffffffffffffffffffffffffffffffff1673ffffffffffffffffffffffffffffffffffffffff16815260200192505050602060405180830381600087803b158015611ac057600080fd5b505af1158015611ad4573d6000803e3d6000fd5b505050506040513d6020811015611aea57600080fd5b81019080805190602001909291905050509250611bd4600260ff16600160009054906101000a900473ffffffffffffffffffffffffffffffffffffffff1673ffffffffffffffffffffffffffffffffffffffff16636c09b1786040518163ffffffff167c0100000000000000000000000000000000000000000000000000000000028152600401602060405180830381600087803b158015611b8b57600080fd5b505af1158015611b9f573d6000803e3d6000fd5b505050506040513d6020811015611bb557600080fd5b8101908080519060200190929190505050612c8a90919063ffffffff16565b83101515611d1e57600160009054906101000a900473ffffffffffffffffffffffffffffffffffffffff1673ffffffffffffffffffffffffffffffffffffffff1663bdfd9877866040518263ffffffff167c0100000000000000000000000000000000000000000000000000000000028152600401808273ffffffffffffffffffffffffffffffffffffffff1673ffffffffffffffffffffffffffffffffffffffff168152602001915050602060405180830381600087803b158015611c9957600080fd5b505af1158015611cad573d6000803e3d6000fd5b505050506040513d6020811015611cc357600080fd5b810190808051906020019092919050505093508473ffffffffffffffffffffffffffffffffffffffff167f89a6354fb229eda6cbc28306798727b4d524818d2c375220bc3f360f24cffaca60405160405180910390a2611d23565b600093505b611e6a565b600160009054906101000a900473ffffffffffffffffffffffffffffffffffffffff1673ffffffffffffffffffffffffffffffffffffffff1663bdfd9877866040518263ffffffff167c0100000000000000000000000000000000000000000000000000000000028152600401808273ffffffffffffffffffffffffffffffffffffffff1673ffffffffffffffffffffffffffffffffffffffff168152602001915050602060405180830381600087803b158015611de557600080fd5b505af1158015611df9573d6000803e3d6000fd5b505050506040513d6020811015611e0f57600080fd5b81019080805190602001909291905050509350600192508473ffffffffffffffffffffffffffffffffffffffff167f89a6354fb229eda6cbc28306798727b4d524818d2c375220bc3f360f24cffaca60405160405180910390a25b8383935093505050915091565b60008660ff16600260003373ffffffffffffffffffffffffffffffffffffffff1673ffffffffffffffffffffffffffffffffffffffff1681526020019081526020016000206001016000600381101515611ecd57fe5b602091828204019190069054906101000a900460ff1660ff161480611f5c57508660ff16600260003373ffffffffffffffffffffffffffffffffffffffff1673ffffffffffffffffffffffffffffffffffffffff1681526020019081526020016000206001016001600381101515611f4157fe5b602091828204019190069054906101000a900460ff1660ff16145b80611fd157508660ff16600260003373ffffffffffffffffffffffffffffffffffffffff1673ffffffffffffffffffffffffffffffffffffffff1681526020019081526020016000206001016002600381101515611fb657fe5b602091828204019190069054906101000a900460ff1660ff16145b151561206b576040517f08c379a00000000000000000000000000000000000000000000000000000000081526004018080602001828103825260238152602001807f496e64657820646f6573206e6f74206d61746368206f7261636c65207265717581526020017f657374000000000000000000000000000000000000000000000000000000000081525060400191505060405180910390fd5b8686868686604051602001808660ff1660ff167f01000000000000000000000000000000000000000000000000000000000000000281526001018573ffffffffffffffffffffffffffffffffffffffff1673ffffffffffffffffffffffffffffffffffffffff166c010000000000000000000000000281526014018484808284378201915050828152602001955050505050506040516020818303038152906040526040518082805190602001908083835b602083101515612142578051825260208201915060208101905060208303925061211d565b6001836020036101000a0380198251168184511680821785525050505050509050019150506040518091039020905060036000826000191660001916815260200190815260200160002060000160149054906101000a900460ff161515612237576040517f08c379a00000000000000000000000000000000000000000000000000000000081526004018080602001828103825260338152602001807f466c69676874206f722064657061727475726554696d6520646f206e6f74206d81526020017f61746368206f7261636c6520726571756573740000000000000000000000000081525060400191505060405180910390fd5b60036000826000191660001916815260200190815260200160002060010160008360ff1660ff1681526020019081526020016000203390806001815401808255809150509060018203906000526020600020016000909192909190916101000a81548173ffffffffffffffffffffffffffffffffffffffff021916908373ffffffffffffffffffffffffffffffffffffffff160217905550507f43c853095c2752648493c88b4baac4d580d2594ffb00c6f1d4242d844514f7838686868686604051808673ffffffffffffffffffffffffffffffffffffffff1673ffffffffffffffffffffffffffffffffffffffff168152602001806020018481526020018360ff1660ff16815260200182810382528686828181526020019250808284378201915050965050505050505060405180910390a16003806000836000191660001916815260200190815260200160002060010160008460ff1660ff16815260200190815260200160002080549050101515612486577fe23f5229de535c091e3b7bec2665f5d698192d3b31393066e8987b7a05076b6c8686868686604051808673ffffffffffffffffffffffffffffffffffffffff1673ffffffffffffffffffffffffffffffffffffffff168152602001806020018481526020018360ff1660ff16815260200182810382528686828181526020019250808284378201915050965050505050505060405180910390a16124858686868080601f0160208091040260200160405190810160405280939291908181526020018383808284378201915050505050508585612ca0565b5b50505050505050565b6000600160009054906101000a900473ffffffffffffffffffffffffffffffffffffffff1673ffffffffffffffffffffffffffffffffffffffff1663cd905dff6040518163ffffffff167c0100000000000000000000000000000000000000000000000000000000028152600401602060405180830381600087803b15801561251757600080fd5b505af115801561252b573d6000803e3d6000fd5b505050506040513d602081101561254157600080fd5b8101908080519060200190929190505050905090565b6000808585858080601f01602080910402602001604051908101604052809392919081815260200183838082843782019150505050505084600115153073ffffffffffffffffffffffffffffffffffffffff1663241a53cb8585856040518463ffffffff167c0100000000000000000000000000000000000000000000000000000000028152600401808473ffffffffffffffffffffffffffffffffffffffff1673ffffffffffffffffffffffffffffffffffffffff16815260200180602001838152602001828103825284818151815260200191508051906020019080838360005b8381101561265557808201518184015260208101905061263a565b50505050905090810190601f1680156126825780820380516001836020036101000a031916815260200191505b50945050505050602060405180830381600087803b1580156126a357600080fd5b505af11580156126b7573d6000803e3d6000fd5b505050506040513d60208110156126cd57600080fd5b81019080805190602001909291905050501515141515612755576040517f08c379a00000000000000000000000000000000000000000000000000000000081526004018080602001828103825260198152602001807f466c69676874206d75737420626520726567697374657265640000000000000081525060200191505060405180910390fd5b61275e336130bd565b94508489898989604051602001808660ff1660ff167f01000000000000000000000000000000000000000000000000000000000000000281526001018573ffffffffffffffffffffffffffffffffffffffff1673ffffffffffffffffffffffffffffffffffffffff166c010000000000000000000000000281526014018484808284378201915050828152602001955050505050506040516020818303038152906040526040518082805190602001908083835b6020831015156128375780518252602082019150602081019050602083039250612812565b6001836020036101000a0380198251168184511680821785525050505050509050019150506040518091039020935060408051908101604052803373ffffffffffffffffffffffffffffffffffffffff1681526020016001151581525060036000866000191660001916815260200190815260200160002060008201518160000160006101000a81548173ffffffffffffffffffffffffffffffffffffffff021916908373ffffffffffffffffffffffffffffffffffffffff16021790555060208201518160000160146101000a81548160ff0219169083151502179055509050507f3ed01f2c3fc24c6b329d931e35b03e390d23497d22b3f90e15b600343e93df11858a8a8a8a604051808660ff1660ff1681526020018573ffffffffffffffffffffffffffffffffffffffff1673ffffffffffffffffffffffffffffffffffffffff1681526020018060200183815260200182810382528585828181526020019250808284378201915050965050505050505060405180910390a1505050505050505050565b6000838383604051602001808473ffffffffffffffffffffffffffffffffffffffff1673ffffffffffffffffffffffffffffffffffffffff166c0100000000000000000000000002815260140183805190602001908083835b602083101515612a3d5780518252602082019150602081019050602083039250612a18565b6001836020036101000a03801982511681845116808217855250505050505090500182815260200193505050506040516020818303038152906040526040518082805190602001908083835b602083101515612aae5780518252602082019150602081019050602083039250612a89565b6001836020036101000a038019825116818451168082178552505050505050905001915050604051809103902090509392505050565b612aec61321f565b612af461321f565b612afd836130bd565b816000600381101515612b0c57fe5b602002019060ff16908160ff1681525050806000600381101515612b2c57fe5b6020020151816001600381101515612b4057fe5b602002019060ff16908160ff16815250505b806000600381101515612b6157fe5b602002015160ff16816001600381101515612b7857fe5b602002015160ff161415612bb457612b8f836130bd565b816001600381101515612b9e57fe5b602002019060ff16908160ff1681525050612b52565b806001600381101515612bc357fe5b6020020151816002600381101515612bd757fe5b602002019060ff16908160ff16815250505b806000600381101515612bf857fe5b602002015160ff16816002600381101515612c0f57fe5b602002015160ff161480612c4e5750806001600381101515612c2d57fe5b602002015160ff16816002600381101515612c4457fe5b602002015160ff16145b15612c8157612c5c836130bd565b816002600381101515612c6b57fe5b602002019060ff16908160ff1681525050612be9565b80915050919050565b60008183811515612c9757fe5b04905092915050565b6000848484600115153073ffffffffffffffffffffffffffffffffffffffff1663241a53cb8585856040518463ffffffff167c0100000000000000000000000000000000000000000000000000000000028152600401808473ffffffffffffffffffffffffffffffffffffffff1673ffffffffffffffffffffffffffffffffffffffff16815260200180602001838152602001828103825284818151815260200191508051906020019080838360005b83811015612d6b578082015181840152602081019050612d50565b50505050905090810190601f168015612d985780820380516001836020036101000a031916815260200191505b50945050505050602060405180830381600087803b158015612db957600080fd5b505af1158015612dcd573d6000803e3d6000fd5b505050506040513d6020811015612de357600080fd5b81019080805190602001909291905050501515141515612e6b576040517f08c379a00000000000000000000000000000000000000000000000000000000081526004018080602001828103825260198152602001807f466c69676874206d75737420626520726567697374657265640000000000000081525060200191505060405180910390fd5b612e768888886129bf565b9350600160009054906101000a900473ffffffffffffffffffffffffffffffffffffffff1673ffffffffffffffffffffffffffffffffffffffff16638af8c8bc86866040518363ffffffff167c0100000000000000000000000000000000000000000000000000000000028152600401808360ff1660ff168152602001826000191660001916815260200192505050600060405180830381600087803b158015612f1f57600080fd5b505af1158015612f33573d6000803e3d6000fd5b50505050601460ff168560ff1614156130b357600160009054906101000a900473ffffffffffffffffffffffffffffffffffffffff1673ffffffffffffffffffffffffffffffffffffffff1663cc2f6eba856040518263ffffffff167c0100000000000000000000000000000000000000000000000000000000028152600401808260001916600019168152602001915050600060405180830381600087803b158015612fdf57600080fd5b505af1158015612ff3573d6000803e3d6000fd5b505050508773ffffffffffffffffffffffffffffffffffffffff167f10a0c3298ce397e54f8cec71e1604c86ee0816ac02a15dd03b90202a7c52e5e288886040518080602001838152602001828103825284818151815260200191508051906020019080838360005b8381101561307757808201518184015260208101905061305c565b50505050905090810190601f1680156130a45780820380516001836020036101000a031916815260200191505b50935050505060405180910390a25b5050505050505050565b6000806000600a91508160ff166001601481819054906101000a900460ff168092919060010191906101000a81548160ff021916908360ff16021790555060ff16430340856040516020018083600019166000191681526020018273ffffffffffffffffffffffffffffffffffffffff1673ffffffffffffffffffffffffffffffffffffffff166c01000000000000000000000000028152601401925050506040516020818303038152906040526040518082805190602001908083835b6020831015156131a0578051825260208201915060208101905060208303925061317b565b6001836020036101000a0380198251168184511680821785525050505050509050019150506040518091039020600190048115156131da57fe5b06905060fa600160149054906101000a900460ff1660ff161115613215576000600160146101000a81548160ff021916908360ff1602179055505b8092505050919050565b606060405190810160405280600390602082028038833980820191505090505090565b826003601f016020900481019282156132cb5791602002820160005b8382111561329c57835183826101000a81548160ff021916908360ff160217905550926020019260010160208160000104928301926001030261325e565b80156132c95782816101000a81549060ff021916905560010160208160000104928301926001030261329c565b505b5090506132d891906132dc565b5090565b61330991905b8082111561330557600081816101000a81549060ff0219169055506001016132e2565b5090565b905600a165627a7a723058202faead6bc98479af112ea1be38db8ffa5d56b27742409d6bb313dc33d61db5f80029",
  "source": "pragma solidity ^0.4.25;\n\n// It's important to avoid vulnerabilities due to numeric overflow bugs\n// OpenZeppelin's SafeMath library, when used correctly, protects agains such bugs\n// More info: https://www.nccgroup.trust/us/about-us/newsroom-and-events/blog/2018/november/smart-contract-insecurity-bad-arithmetic/\n\nimport \"../node_modules/openzeppelin-solidity/contracts/math/SafeMath.sol\";\n// Data contract import\nimport \"./FlightSuretyData.sol\";\n\n/************************************************** */\n/* FlightSurety Smart Contract                      */\n/************************************************** */\ncontract FlightSuretyApp {\n    using SafeMath for uint256; // Allow SafeMath functions to be called for all uint256 types (similar to \"prototype\" in Javascript)\n\n    /********************************************************************************************/\n    /*                                       DATA VARIABLES                                     */\n    /********************************************************************************************/\n\n    // Flight status codees\n    uint8 private constant STATUS_CODE_UNKNOWN = 0;\n    uint8 private constant STATUS_CODE_ON_TIME = 10;\n    uint8 private constant STATUS_CODE_LATE_AIRLINE = 20;\n    uint8 private constant STATUS_CODE_LATE_WEATHER = 30;\n    uint8 private constant STATUS_CODE_LATE_TECHNICAL = 40;\n    uint8 private constant STATUS_CODE_LATE_OTHER = 50;\n\n    uint8 private constant CONSENSUS_THRESHOLD = 4; // consensus active when at least four airlines registered\n    uint8 private constant VOTE_SUCCESS_THRESHOLD = 2; // i.e. votes / 2\n\n    address private contractOwner; // Account used to deploy contract\n    FlightSuretyData flightData;\n\n    /********************************************************************************************/\n    /*                                       FUNCTION MODIFIERS                                 */\n    /********************************************************************************************/\n\n    // Modifiers help avoid duplication of code. They are typically used to validate something\n    // before a function is allowed to be executed.\n\n    /**\n     * @dev Modifier that requires the \"operational\" boolean variable to be \"true\"\n     *      This is used on all state changing functions to pause the contract in\n     *      the event there is an issue that needs to be fixed\n     */\n    modifier requireIsOperational() {\n        // Modify to call data contract's status\n        require(true, \"Contract is currently not operational\");\n        _; // All modifiers require an \"_\" which indicates where the function body will be added\n    }\n\n    /**\n     * @dev Modifier that requires the \"ContractOwner\" account to be the function caller\n     */\n    modifier requireContractOwner() {\n        require(msg.sender == contractOwner, \"Caller is not contract owner\");\n        _;\n    }\n\n    /********************************************************************************************/\n    /*                                       CONSTRUCTOR                                        */\n    /********************************************************************************************/\n\n    /**\n     * @dev Contract constructor\n     *\n     */\n    constructor(address dataContract) public {\n        contractOwner = msg.sender;\n        flightData = FlightSuretyData(dataContract);\n    }\n\n    /********************************************************************************************/\n    /*                                       UTILITY FUNCTIONS                                  */\n    /********************************************************************************************/\n\n    function isOperational() public view returns (bool) {\n        return flightData.isOperational(); // Modify to call data contract's status\n    }\n\n    /********************************************************************************************/\n    /*                                     SMART CONTRACT FUNCTIONS                             */\n    /********************************************************************************************/\n\n    // Airlines\n    modifier requireRegisteredAirlineCaller() {\n        require(\n            flightData.isAirlineRegistered(msg.sender) == true,\n            \"Only an existing airline may register an airline or participate in consensus\"\n        );\n        _;\n    }\n\n    modifier requireFundedAirlineCaller() {\n        require(\n            flightData.isAirlineFunded(msg.sender) == true,\n            \"Only a funded airline may register an airline or participate in consensus\"\n        );\n        _;\n    }\n\n    modifier requireNotRegistered(address airlineAddress) {\n        require(\n            flightData.isAirlineRegistered(airlineAddress) != true,\n            \"Airline is already registered\"\n        );\n        _;\n    }\n\n    modifier requireNotFunded(address airlineAddress) {\n        require(\n            flightData.isAirlineFunded(airlineAddress) != true,\n            \"Airline is already funded\"\n        );\n        _;\n    }\n\n    event AirlineNominated(address indexed airlineAddress);\n    event AirlineRegistered(address indexed airlineAddress);\n    event AirlineFunded(address indexed airlineAddress, uint256 amount);\n\n    function isAirlineRegistered(address airlineAddress)\n        public\n        view\n        returns (bool)\n    {\n        return flightData.isAirlineRegistered(airlineAddress);\n    }\n\n    function registerAirline(address airlineAddress)\n        external\n        requireFundedAirlineCaller\n        requireNotRegistered(airlineAddress)\n        requireNotFunded(airlineAddress)\n        returns (bool success, uint256 votes)\n    {\n        if (!flightData.isAirlineNominated(airlineAddress)) {\n            // airline has not been nominated\n            flightData.nominateAirline(airlineAddress);\n            emit AirlineNominated(airlineAddress);\n        }\n\n        if (flightData.registeredAirlineCount() >= CONSENSUS_THRESHOLD) {\n            // require consensus\n            votes = flightData.voteAirline(airlineAddress, msg.sender);\n            if (\n                votes >=\n                flightData.registeredAirlineCount().div(VOTE_SUCCESS_THRESHOLD)\n            ) {\n                success = flightData.registerAirline(airlineAddress);\n                emit AirlineRegistered(airlineAddress);\n            } else {\n                success = false; // not enough votes\n            }\n        } else {\n            // no conensus required\n            success = flightData.registerAirline(airlineAddress);\n            votes = 1; // one vote enough\n            emit AirlineRegistered(airlineAddress);\n        }\n        return (success, votes); // cannot have votes if just registered\n    }\n\n    function fundAirline() external payable requireRegisteredAirlineCaller {\n        flightData.fundAirline(msg.sender, msg.value);\n        emit AirlineFunded(msg.sender, msg.value);\n    }\n\n    // Flights\n    modifier requireFlightRegistered(address airline, string flight, uint256 departureTime) {\n        require(this.isFlightRegistered(airline, flight, departureTime) == true, \"Flight must be registered\");\n        _;\n    }\n\n    event FlightRegistered(\n        address indexed airlineAddress, \n        string flight, \n        uint256 departureTime\n    );\n\n    event InsurancePurchased(\n        address indexed passengerAddress, \n        uint256 amount\n    );\n\n    event InsurancePayout(\n        address indexed airlineAddress, \n        string flight, \n        uint256 departureTime\n    );\n\n    function isFlightRegistered(address airline, string flight, uint256 departureTime) external view returns (bool) {\n        bytes32 flightKey = getFlightKey(airline, flight, departureTime);\n        return flightData.isFlightRegistered(flightKey);\n    }\n\n    function registerFlight(string flight, uint256 departureTime)\n        public // this was a hard bug to fix, args needs to be held in memory\n        requireFundedAirlineCaller\n    {\n        flightData.registerFlight(\n            msg.sender,\n            flight,\n            departureTime,\n            STATUS_CODE_UNKNOWN\n        );\n        emit FlightRegistered(msg.sender, flight, departureTime);\n    }\n\n    function processFlightStatus(\n        address airline,\n        string flight,\n        uint256 departureTime,\n        uint8 statusCode\n    ) internal requireFlightRegistered(airline, flight, departureTime) {\n        bytes32 flightKey = getFlightKey(airline, flight, departureTime);\n        flightData.updateFlightStatus(statusCode, flightKey);\n        if (statusCode == STATUS_CODE_LATE_AIRLINE) {\n            flightData.creditInsurees(flightKey);\n            emit InsurancePayout(airline, flight, departureTime);\n        }\n    }\n\n    // Insurance\n    modifier rejectOverpayment() {\n        require(msg.value <= 1 ether, \"A maximum of 1 ether may be sent to purchase insurance\");\n        _;\n    }\n\n    function buyFlightInsurance(\n        address airline,\n        string flight,\n        uint256 departureTime) public payable rejectOverpayment {\n        bytes32 key = getFlightKey(airline, flight, departureTime);\n        flightData.buyInsurance(msg.sender, msg.value, key);\n        emit InsurancePurchased(msg.sender, msg.value);\n    }\n\n    // Generate a request for oracles to fetch flight information\n    function fetchFlightStatus(\n        address airline,\n        string flight,\n        uint256 departureTime\n    ) external requireFlightRegistered(airline, flight, departureTime) {\n        uint8 index = getRandomIndex(msg.sender);\n\n        // Generate a unique key for storing the request\n        bytes32 key = keccak256(\n            abi.encodePacked(index, airline, flight, departureTime)\n        );\n        oracleResponses[key] = ResponseInfo({\n            requester: msg.sender,\n            isOpen: true\n        });\n\n        emit OracleRequest(index, airline, flight, departureTime);\n    }\n\n    // region ORACLE MANAGEMENT\n\n    // Incremented to add pseudo-randomness at various points\n    uint8 private nonce = 0;\n\n    // Fee to be paid when registering oracle\n    uint256 public constant REGISTRATION_FEE = 1 ether;\n\n    // Number of oracles that must respond for valid status\n    uint256 private constant MIN_RESPONSES = 3;\n\n    struct Oracle {\n        bool isRegistered;\n        uint8[3] indexes;\n    }\n\n    // Track all registered oracles\n    mapping(address => Oracle) private oracles;\n\n    // Model for responses from oracles\n    struct ResponseInfo {\n        address requester; // Account that requested status\n        bool isOpen; // If open, oracle responses are accepted\n        mapping(uint8 => address[]) responses; // Mapping key is the status code reported\n        // This lets us group responses and identify\n        // the response that majority of the oracles\n    }\n\n    // Track all oracle responses\n    // Key = hash(index, flight, departureTime)\n    mapping(bytes32 => ResponseInfo) private oracleResponses;\n\n    // Event fired each time an oracle submits a response\n    event FlightStatusInfo(\n        address airline,\n        string flight,\n        uint256 departureTime,\n        uint8 status\n    );\n\n    event OracleReport(\n        address airline,\n        string flight,\n        uint256 departureTime,\n        uint8 status\n    );\n\n    // Event fired when flight status request is submitted\n    // Oracles track this and if they have a matching index\n    // they fetch data and submit a response\n    event OracleRequest(\n        uint8 index,\n        address airline,\n        string flight,\n        uint256 departureTime\n    );\n\n    // Register an oracle with the contract\n    function registerOracle() external payable {\n        // Require registration fee\n        require(msg.value >= REGISTRATION_FEE, \"Registration fee is required\");\n\n        uint8[3] memory indexes = generateIndexes(msg.sender);\n\n        oracles[msg.sender] = Oracle({isRegistered: true, indexes: indexes});\n    }\n\n    function getMyIndexes() external view returns (uint8[3]) {\n        require(\n            oracles[msg.sender].isRegistered,\n            \"Not registered as an oracle\"\n        );\n\n        return oracles[msg.sender].indexes;\n    }\n\n    // Called by oracle when a response is available to an outstanding request\n    // For the response to be accepted, there must be a pending request that is open\n    // and matches one of the three Indexes randomly assigned to the oracle at the\n    // time of registration (i.e. uninvited oracles are not welcome)\n    function submitOracleResponse(\n        uint8 index,\n        address airline,\n        string flight,\n        uint256 departureTime,\n        uint8 statusCode\n    ) external {\n        require(\n            (oracles[msg.sender].indexes[0] == index) ||\n                (oracles[msg.sender].indexes[1] == index) ||\n                (oracles[msg.sender].indexes[2] == index),\n            \"Index does not match oracle request\"\n        );\n\n        bytes32 key = keccak256(\n            abi.encodePacked(index, airline, flight, departureTime)\n        );\n        require(\n            oracleResponses[key].isOpen,\n            \"Flight or departureTime do not match oracle request\"\n        );\n\n        oracleResponses[key].responses[statusCode].push(msg.sender);\n\n        // Information isn't considered verified until at least MIN_RESPONSES\n        // oracles respond with the *** same *** information\n        emit OracleReport(airline, flight, departureTime, statusCode);\n        if (\n            oracleResponses[key].responses[statusCode].length >= MIN_RESPONSES\n        ) {\n            emit FlightStatusInfo(airline, flight, departureTime, statusCode);\n\n            // Handle flight status as appropriate\n            processFlightStatus(airline, flight, departureTime, statusCode);\n        }\n    }\n\n    function getFlightKey(\n        address airline,\n        string flight,\n        uint256 departureTime\n    ) internal pure returns (bytes32) {\n        return keccak256(abi.encodePacked(airline, flight, departureTime));\n    }\n\n    // Returns array of three non-duplicating integers from 0-9\n    function generateIndexes(address account) internal returns (uint8[3]) {\n        uint8[3] memory indexes;\n        indexes[0] = getRandomIndex(account);\n\n        indexes[1] = indexes[0];\n        while (indexes[1] == indexes[0]) {\n            indexes[1] = getRandomIndex(account);\n        }\n\n        indexes[2] = indexes[1];\n        while ((indexes[2] == indexes[0]) || (indexes[2] == indexes[1])) {\n            indexes[2] = getRandomIndex(account);\n        }\n\n        return indexes;\n    }\n\n    // Returns array of three non-duplicating integers from 0-9\n    function getRandomIndex(address account) internal returns (uint8) {\n        uint8 maxValue = 10;\n\n        // Pseudo random number...the incrementing nonce adds variation\n        uint8 random = uint8(\n            uint256(\n                keccak256(\n                    abi.encodePacked(blockhash(block.number - nonce++), account)\n                )\n            ) % maxValue\n        );\n\n        if (nonce > 250) {\n            nonce = 0; // Can only fetch blockhashes for last 256 blocks so we adapt\n        }\n\n        return random;\n    }\n\n    // endregion\n}\n",
  "sourcePath": "/Users/galen/code/udacity/udacity-blockchain-developer/project4/contracts/FlightSuretyApp.sol",
  "compiler": {
    "name": "solc",
    "version": "0.4.26+commit.4563c3fc.Emscripten.clang"
  },
  "schemaVersion": "3.3.2",
  "updatedAt": "2020-12-04T19:27:39.722Z",
  "networkType": "ethereum",
  "devdoc": {
    "methods": {}
  },
  "userdoc": {
    "methods": {
      "isOperational()": {
        "notice": "*****************************************************************************************"
      }
    }
  }
}