{
  "contractName": "FlightSuretyApp",
  "abi": [
    {
      "inputs": [
        {
          "internalType": "address payable",
          "name": "dataContract",
          "type": "address"
        }
      ],
      "stateMutability": "nonpayable",
      "type": "constructor"
    },
    {
      "anonymous": false,
      "inputs": [
        {
          "indexed": true,
          "internalType": "address",
          "name": "airlineAddress",
          "type": "address"
        },
        {
          "indexed": false,
          "internalType": "uint256",
          "name": "amount",
          "type": "uint256"
        }
      ],
      "name": "AirlineFunded",
      "type": "event"
    },
    {
      "anonymous": false,
      "inputs": [
        {
          "indexed": true,
          "internalType": "address",
          "name": "airlineAddress",
          "type": "address"
        }
      ],
      "name": "AirlineNominated",
      "type": "event"
    },
    {
      "anonymous": false,
      "inputs": [
        {
          "indexed": true,
          "internalType": "address",
          "name": "airlineAddress",
          "type": "address"
        }
      ],
      "name": "AirlineRegistered",
      "type": "event"
    },
    {
      "anonymous": false,
      "inputs": [
        {
          "indexed": true,
          "internalType": "address",
          "name": "airlineAddress",
          "type": "address"
        },
        {
          "indexed": false,
          "internalType": "string",
          "name": "flight",
          "type": "string"
        }
      ],
      "name": "FlightRegistered",
      "type": "event"
    },
    {
      "anonymous": false,
      "inputs": [
        {
          "indexed": false,
          "internalType": "address",
          "name": "airline",
          "type": "address"
        },
        {
          "indexed": false,
          "internalType": "string",
          "name": "flight",
          "type": "string"
        },
        {
          "indexed": false,
          "internalType": "uint256",
          "name": "departureTime",
          "type": "uint256"
        },
        {
          "indexed": false,
          "internalType": "uint8",
          "name": "status",
          "type": "uint8"
        }
      ],
      "name": "FlightStatusInfo",
      "type": "event"
    },
    {
      "anonymous": false,
      "inputs": [
        {
          "indexed": true,
          "internalType": "address",
          "name": "airlineAddress",
          "type": "address"
        },
        {
          "indexed": false,
          "internalType": "string",
          "name": "flight",
          "type": "string"
        }
      ],
      "name": "InsurancePayout",
      "type": "event"
    },
    {
      "anonymous": false,
      "inputs": [
        {
          "indexed": true,
          "internalType": "address",
          "name": "passengerAddress",
          "type": "address"
        },
        {
          "indexed": false,
          "internalType": "uint256",
          "name": "amount",
          "type": "uint256"
        }
      ],
      "name": "InsurancePurchased",
      "type": "event"
    },
    {
      "anonymous": false,
      "inputs": [
        {
          "indexed": true,
          "internalType": "address",
          "name": "passengerAddress",
          "type": "address"
        },
        {
          "indexed": false,
          "internalType": "uint256",
          "name": "amount",
          "type": "uint256"
        }
      ],
      "name": "InsuranceWithdrawal",
      "type": "event"
    },
    {
      "anonymous": false,
      "inputs": [
        {
          "indexed": true,
          "internalType": "address",
          "name": "oracleAddress",
          "type": "address"
        },
        {
          "indexed": false,
          "internalType": "uint8[3]",
          "name": "indexes",
          "type": "uint8[3]"
        }
      ],
      "name": "OracleRegistered",
      "type": "event"
    },
    {
      "anonymous": false,
      "inputs": [
        {
          "indexed": false,
          "internalType": "address",
          "name": "airline",
          "type": "address"
        },
        {
          "indexed": false,
          "internalType": "string",
          "name": "flight",
          "type": "string"
        },
        {
          "indexed": false,
          "internalType": "uint256",
          "name": "departureTime",
          "type": "uint256"
        },
        {
          "indexed": false,
          "internalType": "uint8",
          "name": "status",
          "type": "uint8"
        }
      ],
      "name": "OracleReport",
      "type": "event"
    },
    {
      "anonymous": false,
      "inputs": [
        {
          "indexed": false,
          "internalType": "uint8",
          "name": "index",
          "type": "uint8"
        },
        {
          "indexed": false,
          "internalType": "address",
          "name": "airline",
          "type": "address"
        },
        {
          "indexed": false,
          "internalType": "string",
          "name": "flight",
          "type": "string"
        },
        {
          "indexed": false,
          "internalType": "uint256",
          "name": "departureTime",
          "type": "uint256"
        }
      ],
      "name": "OracleRequest",
      "type": "event"
    },
    {
      "inputs": [],
      "name": "MAX_INSURANCE_AMOUNT",
      "outputs": [
        {
          "internalType": "uint256",
          "name": "",
          "type": "uint256"
        }
      ],
      "stateMutability": "view",
      "type": "function",
      "constant": true
    },
    {
      "inputs": [],
      "name": "MIN_AIRLINE_FUNDING",
      "outputs": [
        {
          "internalType": "uint256",
          "name": "",
          "type": "uint256"
        }
      ],
      "stateMutability": "view",
      "type": "function",
      "constant": true
    },
    {
      "inputs": [],
      "name": "REGISTRATION_FEE",
      "outputs": [
        {
          "internalType": "uint256",
          "name": "",
          "type": "uint256"
        }
      ],
      "stateMutability": "view",
      "type": "function",
      "constant": true
    },
    {
      "inputs": [],
      "name": "contractOwner",
      "outputs": [
        {
          "internalType": "address",
          "name": "",
          "type": "address"
        }
      ],
      "stateMutability": "view",
      "type": "function",
      "constant": true
    },
    {
      "inputs": [],
      "name": "dataContractAddress",
      "outputs": [
        {
          "internalType": "address payable",
          "name": "",
          "type": "address"
        }
      ],
      "stateMutability": "view",
      "type": "function",
      "constant": true
    },
    {
      "inputs": [],
      "name": "isOperational",
      "outputs": [
        {
          "internalType": "bool",
          "name": "",
          "type": "bool"
        }
      ],
      "stateMutability": "view",
      "type": "function",
      "constant": true
    },
    {
      "inputs": [
        {
          "internalType": "bool",
          "name": "mode",
          "type": "bool"
        }
      ],
      "name": "setOperationalStatus",
      "outputs": [
        {
          "internalType": "bool",
          "name": "",
          "type": "bool"
        }
      ],
      "stateMutability": "nonpayable",
      "type": "function"
    },
    {
      "inputs": [
        {
          "internalType": "address",
          "name": "airlineAddress",
          "type": "address"
        }
      ],
      "name": "isAirlineNominated",
      "outputs": [
        {
          "internalType": "bool",
          "name": "",
          "type": "bool"
        }
      ],
      "stateMutability": "view",
      "type": "function",
      "constant": true
    },
    {
      "inputs": [
        {
          "internalType": "address",
          "name": "airlineAddress",
          "type": "address"
        }
      ],
      "name": "isAirlineRegistered",
      "outputs": [
        {
          "internalType": "bool",
          "name": "",
          "type": "bool"
        }
      ],
      "stateMutability": "view",
      "type": "function",
      "constant": true
    },
    {
      "inputs": [
        {
          "internalType": "address",
          "name": "airlineAddress",
          "type": "address"
        }
      ],
      "name": "isAirlineFunded",
      "outputs": [
        {
          "internalType": "bool",
          "name": "",
          "type": "bool"
        }
      ],
      "stateMutability": "view",
      "type": "function",
      "constant": true
    },
    {
      "inputs": [
        {
          "internalType": "address",
          "name": "airlineAddress",
          "type": "address"
        }
      ],
      "name": "airlineMembership",
      "outputs": [
        {
          "internalType": "uint256",
          "name": "",
          "type": "uint256"
        }
      ],
      "stateMutability": "view",
      "type": "function",
      "constant": true
    },
    {
      "inputs": [
        {
          "internalType": "address",
          "name": "airlineAddress",
          "type": "address"
        }
      ],
      "name": "nominateAirline",
      "outputs": [],
      "stateMutability": "nonpayable",
      "type": "function"
    },
    {
      "inputs": [
        {
          "internalType": "address",
          "name": "airlineAddress",
          "type": "address"
        }
      ],
      "name": "registerAirline",
      "outputs": [
        {
          "internalType": "bool",
          "name": "success",
          "type": "bool"
        }
      ],
      "stateMutability": "nonpayable",
      "type": "function"
    },
    {
      "inputs": [
        {
          "internalType": "address",
          "name": "airlineAddress",
          "type": "address"
        }
      ],
      "name": "numberAirlineVotes",
      "outputs": [
        {
          "internalType": "uint256",
          "name": "votes",
          "type": "uint256"
        }
      ],
      "stateMutability": "view",
      "type": "function",
      "constant": true
    },
    {
      "inputs": [],
      "name": "fundAirline",
      "outputs": [],
      "stateMutability": "payable",
      "type": "function",
      "payable": true
    },
    {
      "inputs": [
        {
          "internalType": "address",
          "name": "airlineAddress",
          "type": "address"
        }
      ],
      "name": "amountAirlineFunds",
      "outputs": [
        {
          "internalType": "uint256",
          "name": "",
          "type": "uint256"
        }
      ],
      "stateMutability": "view",
      "type": "function",
      "constant": true
    },
    {
      "inputs": [
        {
          "internalType": "address",
          "name": "airline",
          "type": "address"
        },
        {
          "internalType": "string",
          "name": "flight",
          "type": "string"
        },
        {
          "internalType": "uint256",
          "name": "departureTime",
          "type": "uint256"
        }
      ],
      "name": "isFlightRegistered",
      "outputs": [
        {
          "internalType": "bool",
          "name": "",
          "type": "bool"
        }
      ],
      "stateMutability": "view",
      "type": "function",
      "constant": true
    },
    {
      "inputs": [
        {
          "internalType": "string",
          "name": "flight",
          "type": "string"
        },
        {
          "internalType": "uint256",
          "name": "departureTime",
          "type": "uint256"
        }
      ],
      "name": "registerFlight",
      "outputs": [],
      "stateMutability": "nonpayable",
      "type": "function"
    },
    {
      "inputs": [
        {
          "internalType": "address",
          "name": "airline",
          "type": "address"
        },
        {
          "internalType": "string",
          "name": "flightName",
          "type": "string"
        },
        {
          "internalType": "uint256",
          "name": "departureTime",
          "type": "uint256"
        }
      ],
      "name": "officialFlightStatus",
      "outputs": [
        {
          "internalType": "uint8",
          "name": "",
          "type": "uint8"
        }
      ],
      "stateMutability": "view",
      "type": "function",
      "constant": true
    },
    {
      "inputs": [
        {
          "internalType": "address",
          "name": "airline",
          "type": "address"
        },
        {
          "internalType": "string",
          "name": "flight",
          "type": "string"
        },
        {
          "internalType": "uint256",
          "name": "departureTime",
          "type": "uint256"
        }
      ],
      "name": "buyFlightInsurance",
      "outputs": [],
      "stateMutability": "payable",
      "type": "function",
      "payable": true
    },
    {
      "inputs": [
        {
          "internalType": "address",
          "name": "passenger",
          "type": "address"
        },
        {
          "internalType": "address",
          "name": "airline",
          "type": "address"
        },
        {
          "internalType": "string",
          "name": "flight",
          "type": "string"
        },
        {
          "internalType": "uint256",
          "name": "departureTime",
          "type": "uint256"
        }
      ],
      "name": "isPassengerInsured",
      "outputs": [
        {
          "internalType": "bool",
          "name": "",
          "type": "bool"
        }
      ],
      "stateMutability": "view",
      "type": "function",
      "constant": true
    },
    {
      "inputs": [
        {
          "internalType": "address",
          "name": "airline",
          "type": "address"
        },
        {
          "internalType": "string",
          "name": "flight",
          "type": "string"
        },
        {
          "internalType": "uint256",
          "name": "departureTime",
          "type": "uint256"
        }
      ],
      "name": "isPaidOut",
      "outputs": [
        {
          "internalType": "bool",
          "name": "",
          "type": "bool"
        }
      ],
      "stateMutability": "view",
      "type": "function",
      "constant": true
    },
    {
      "inputs": [
        {
          "internalType": "address",
          "name": "passengerAddress",
          "type": "address"
        }
      ],
      "name": "passengerBalance",
      "outputs": [
        {
          "internalType": "uint256",
          "name": "",
          "type": "uint256"
        }
      ],
      "stateMutability": "view",
      "type": "function",
      "constant": true
    },
    {
      "inputs": [
        {
          "internalType": "uint256",
          "name": "withdrawalAmount",
          "type": "uint256"
        }
      ],
      "name": "withdrawBalance",
      "outputs": [],
      "stateMutability": "nonpayable",
      "type": "function"
    },
    {
      "inputs": [
        {
          "internalType": "address",
          "name": "oracleAddress",
          "type": "address"
        }
      ],
      "name": "isOracleRegistered",
      "outputs": [
        {
          "internalType": "bool",
          "name": "",
          "type": "bool"
        }
      ],
      "stateMutability": "view",
      "type": "function",
      "constant": true
    },
    {
      "inputs": [],
      "name": "registerOracle",
      "outputs": [],
      "stateMutability": "payable",
      "type": "function",
      "payable": true
    },
    {
      "inputs": [],
      "name": "getMyIndexes",
      "outputs": [
        {
          "internalType": "uint8[3]",
          "name": "",
          "type": "uint8[3]"
        }
      ],
      "stateMutability": "view",
      "type": "function",
      "constant": true
    },
    {
      "inputs": [
        {
          "internalType": "address",
          "name": "airline",
          "type": "address"
        },
        {
          "internalType": "string",
          "name": "flight",
          "type": "string"
        },
        {
          "internalType": "uint256",
          "name": "timestamp",
          "type": "uint256"
        }
      ],
      "name": "fetchFlightStatus",
      "outputs": [],
      "stateMutability": "nonpayable",
      "type": "function"
    },
    {
      "inputs": [
        {
          "internalType": "uint8",
          "name": "index",
          "type": "uint8"
        },
        {
          "internalType": "address",
          "name": "airline",
          "type": "address"
        },
        {
          "internalType": "string",
          "name": "flight",
          "type": "string"
        },
        {
          "internalType": "uint256",
          "name": "departureTime",
          "type": "uint256"
        },
        {
          "internalType": "uint8",
          "name": "statusCode",
          "type": "uint8"
        }
      ],
      "name": "submitOracleResponse",
      "outputs": [],
      "stateMutability": "nonpayable",
      "type": "function"
    }
  ],
  "bytecode": "0x60806040526002805460ff60a01b1916905534801561001d57600080fd5b50604051613c7e380380613c7e8339818101604052602081101561004057600080fd5b5051600080546001600160a01b03199081163317909155600180546001600160a01b0390931692821683179055600280549091169091179055613bf6806100886000396000f3fe6080604052600436106101c25760003560e01c80639ed18927116100f7578063ce606ee011610095578063e3b212ea11610064578063e3b212ea14610a0f578063f53b6d6514610a24578063f83f11c014610a57578063ff50653314610b1a576101c2565b8063ce606ee0146108db578063d440478c1461090c578063da76d5cd146109e5578063e375e92614610568576101c2565b8063bdfd9877116100d1578063bdfd9877146106ff578063c10f270014610732578063c778447f14610803578063cd905dff146108c6576101c2565b80639ed1892714610691578063a1a951df14610699578063b9b55c9a146106cc576101c2565b806343268d7d1161016457806364b4f7511161013e57806364b4f751146105685780636a12d3631461057d5780636bd9f0ac14610649578063976282951461065e576101c2565b806343268d7d146104395780635122cb38146104ef5780635f1cc0e61461051b576101c2565b8063339d2590116101a0578063339d25901461031657806339cfc995146103205780633adf611e146103d357806340903e3914610406576101c2565b8063010c5c97146101c7578063241a53cb1461020e578063287d200a146102d1575b600080fd5b3480156101d357600080fd5b506101fa600480360360208110156101ea57600080fd5b50356001600160a01b0316610b4d565b604080519115158252519081900360200190f35b34801561021a57600080fd5b506101fa6004803603606081101561023157600080fd5b6001600160a01b038235169190810190604081016020820135600160201b81111561025b57600080fd5b82018360208201111561026d57600080fd5b803590602001918460018302840111600160201b8311171561028e57600080fd5b91908080601f0160208091040260200160405190810160405280939291908181526020018383808284376000920191909152509295505091359250610c7d915050565b3480156102dd57600080fd5b50610304600480360360208110156102f457600080fd5b50356001600160a01b0316610dbf565b60408051918252519081900360200190f35b61031e610ebd565b005b34801561032c57600080fd5b5061031e6004803603604081101561034357600080fd5b810190602081018135600160201b81111561035d57600080fd5b82018360208201111561036f57600080fd5b803590602001918460018302840111600160201b8311171561039057600080fd5b91908080601f01602080910402602001604051908101604052809392919081815260200183838082843760009201919091525092955050913592506110ad915050565b3480156103df57600080fd5b50610304600480360360208110156103f657600080fd5b50356001600160a01b03166113b1565b34801561041257600080fd5b506103046004803603602081101561042957600080fd5b50356001600160a01b03166114af565b61031e6004803603606081101561044f57600080fd5b6001600160a01b038235169190810190604081016020820135600160201b81111561047957600080fd5b82018360208201111561048b57600080fd5b803590602001918460018302840111600160201b831117156104ac57600080fd5b91908080601f01602080910402602001604051908101604052809392919081815260200183838082843760009201919091525092955050913592506115ad915050565b3480156104fb57600080fd5b506101fa6004803603602081101561051257600080fd5b5035151561191b565b34801561052757600080fd5b506105306119de565b6040518082606080838360005b8381101561055557818101518382015260200161053d565b5050505090500191505060405180910390f35b34801561057457600080fd5b50610304611aab565b34801561058957600080fd5b506101fa600480360360808110156105a057600080fd5b6001600160a01b038235811692602081013590911691810190606081016040820135600160201b8111156105d357600080fd5b8201836020820111156105e557600080fd5b803590602001918460018302840111600160201b8311171561060657600080fd5b91908080601f0160208091040260200160405190810160405280939291908181526020018383808284376000920191909152509295505091359250611ab7915050565b34801561065557600080fd5b50610304611c01565b34801561066a57600080fd5b5061031e6004803603602081101561068157600080fd5b50356001600160a01b0316611c0d565b61031e611d64565b3480156106a557600080fd5b50610304600480360360208110156106bc57600080fd5b50356001600160a01b031661200d565b3480156106d857600080fd5b506101fa600480360360208110156106ef57600080fd5b50356001600160a01b031661210b565b34801561070b57600080fd5b506101fa6004803603602081101561072257600080fd5b50356001600160a01b03166121db565b34801561073e57600080fd5b5061031e600480360360a081101561075557600080fd5b60ff823516916001600160a01b0360208201351691810190606081016040820135600160201b81111561078757600080fd5b82018360208201111561079957600080fd5b803590602001918460018302840111600160201b831117156107ba57600080fd5b91908080601f016020809104026020016040519081016040528093929190818152602001838380828437600092019190915250929550508235935050506020013560ff166128b7565b34801561080f57600080fd5b506101fa6004803603606081101561082657600080fd5b6001600160a01b038235169190810190604081016020820135600160201b81111561085057600080fd5b82018360208201111561086257600080fd5b803590602001918460018302840111600160201b8311171561088357600080fd5b91908080601f0160208091040260200160405190810160405280939291908181526020018383808284376000920191909152509295505091359250612c46915050565b3480156108d257600080fd5b506101fa612d53565b3480156108e757600080fd5b506108f0612dc9565b604080516001600160a01b039092168252519081900360200190f35b34801561091857600080fd5b506109cf6004803603606081101561092f57600080fd5b6001600160a01b038235169190810190604081016020820135600160201b81111561095957600080fd5b82018360208201111561096b57600080fd5b803590602001918460018302840111600160201b8311171561098c57600080fd5b91908080601f0160208091040260200160405190810160405280939291908181526020018383808284376000920191909152509295505091359250612dd8915050565b6040805160ff9092168252519081900360200190f35b3480156109f157600080fd5b5061031e60048036036020811015610a0857600080fd5b5035612ee5565b348015610a1b57600080fd5b506108f0613043565b348015610a3057600080fd5b506101fa60048036036020811015610a4757600080fd5b50356001600160a01b0316613052565b348015610a6357600080fd5b5061031e60048036036060811015610a7a57600080fd5b6001600160a01b038235169190810190604081016020820135600160201b811115610aa457600080fd5b820183602082011115610ab657600080fd5b803590602001918460018302840111600160201b83111715610ad757600080fd5b91908080601f0160208091040260200160405190810160405280939291908181526020018383808284376000920191909152509295505091359250613150915050565b348015610b2657600080fd5b506101fa60048036036020811015610b3d57600080fd5b50356001600160a01b031661316f565b6002546040805163cd905dff60e01b815290516000926001600160a01b03169163cd905dff916004808301926020929190829003018186803b158015610b9257600080fd5b505afa158015610ba6573d6000803e3d6000fd5b505050506040513d6020811015610bbc57600080fd5b50511515600114610bfe5760405162461bcd60e51b8152600401808060200182810382526025815260200180613b306025913960400191505060405180910390fd5b6002546040805163010c5c9760e01b81526001600160a01b0385811660048301529151919092169163010c5c97916024808301926020929190829003018186803b158015610c4b57600080fd5b505afa158015610c5f573d6000803e3d6000fd5b505050506040513d6020811015610c7557600080fd5b505192915050565b6002546040805163cd905dff60e01b815290516000926001600160a01b03169163cd905dff916004808301926020929190829003018186803b158015610cc257600080fd5b505afa158015610cd6573d6000803e3d6000fd5b505050506040513d6020811015610cec57600080fd5b50511515600114610d2e5760405162461bcd60e51b8152600401808060200182810382526025815260200180613b306025913960400191505060405180910390fd5b6000610d3b858585613270565b600254604080516358ac36a360e01b81526004810184905290519293506001600160a01b03909116916358ac36a391602480820192602092909190829003018186803b158015610d8a57600080fd5b505afa158015610d9e573d6000803e3d6000fd5b505050506040513d6020811015610db457600080fd5b505195945050505050565b6002546040805163cd905dff60e01b815290516000926001600160a01b03169163cd905dff916004808301926020929190829003018186803b158015610e0457600080fd5b505afa158015610e18573d6000803e3d6000fd5b505050506040513d6020811015610e2e57600080fd5b50511515600114610e705760405162461bcd60e51b8152600401808060200182810382526025815260200180613b306025913960400191505060405180910390fd5b6002546040805163143e900560e11b81526001600160a01b0385811660048301529151919092169163287d200a916024808301926020929190829003018186803b158015610c4b57600080fd5b600260009054906101000a90046001600160a01b03166001600160a01b031663cd905dff6040518163ffffffff1660e01b815260040160206040518083038186803b158015610f0b57600080fd5b505afa158015610f1f573d6000803e3d6000fd5b505050506040513d6020811015610f3557600080fd5b50511515600114610f775760405162461bcd60e51b8152600401808060200182810382526025815260200180613b306025913960400191505060405180910390fd5b670de0b6b3a7640000341015610fd4576040805162461bcd60e51b815260206004820152601c60248201527f526567697374726174696f6e2066656520697320726571756972656400000000604482015290519081900360640190fd5b6000610fdf336132fa565b336000908152600360208190526040909120805460ff191660019081178255929350916110119190830190849061393b565b506001546040516001600160a01b03909116903480156108fc02916000818181858888f1935050505015801561104b573d6000803e3d6000fd5b5060405133907f1bdc0d8a09795c58f7a50cd047b708db1292c3020b8935100d4e55d8c50d0dfc9084908082606080838360005b8381101561109757818101518382015260200161107f565b5050505090500191505060405180910390a25050565b600260009054906101000a90046001600160a01b03166001600160a01b031663cd905dff6040518163ffffffff1660e01b815260040160206040518083038186803b1580156110fb57600080fd5b505afa15801561110f573d6000803e3d6000fd5b505050506040513d602081101561112557600080fd5b505115156001146111675760405162461bcd60e51b8152600401808060200182810382526025815260200180613b306025913960400191505060405180910390fd5b6002546040805163f53b6d6560e01b815233600482015290516001600160a01b039092169163f53b6d6591602480820192602092909190829003018186803b1580156111b257600080fd5b505afa1580156111c6573d6000803e3d6000fd5b505050506040513d60208110156111dc57600080fd5b5051151560011461121e5760405162461bcd60e51b8152600401808060200182810382526049815260200180613b786049913960600191505060405180910390fd5b600254604051636cea091360e11b81523360048201818152604483018590526000606484018190526080602485019081528751608486015287516001600160a01b039096169563d9d412269589948994939092909160a401906020870190808383885b83811015611299578181015183820152602001611281565b50505050905090810190601f1680156112c65780820380516001836020036101000a031916815260200191505b5095505050505050602060405180830381600087803b1580156112e857600080fd5b505af11580156112fc573d6000803e3d6000fd5b505050506040513d602081101561131257600080fd5b5050604080516020808252845182820152845133937fe5315d99126e2c39234f5ab2fcfcb832707269727cc2da70201f9fa33b0cf0729387939092839283019185019080838360005b8381101561137357818101518382015260200161135b565b50505050905090810190601f1680156113a05780820380516001836020036101000a031916815260200191505b509250505060405180910390a25050565b6002546040805163cd905dff60e01b815290516000926001600160a01b03169163cd905dff916004808301926020929190829003018186803b1580156113f657600080fd5b505afa15801561140a573d6000803e3d6000fd5b505050506040513d602081101561142057600080fd5b505115156001146114625760405162461bcd60e51b8152600401808060200182810382526025815260200180613b306025913960400191505060405180910390fd5b60025460408051631d6fb08f60e11b81526001600160a01b03858116600483015291519190921691633adf611e916024808301926020929190829003018186803b158015610c4b57600080fd5b6002546040805163cd905dff60e01b815290516000926001600160a01b03169163cd905dff916004808301926020929190829003018186803b1580156114f457600080fd5b505afa158015611508573d6000803e3d6000fd5b505050506040513d602081101561151e57600080fd5b505115156001146115605760405162461bcd60e51b8152600401808060200182810382526025815260200180613b306025913960400191505060405180910390fd5b600254604080516340903e3960e01b81526001600160a01b038581166004830152915191909216916340903e39916024808301926020929190829003018186803b158015610c4b57600080fd5b600260009054906101000a90046001600160a01b03166001600160a01b031663cd905dff6040518163ffffffff1660e01b815260040160206040518083038186803b1580156115fb57600080fd5b505afa15801561160f573d6000803e3d6000fd5b505050506040513d602081101561162557600080fd5b505115156001146116675760405162461bcd60e51b8152600401808060200182810382526025815260200180613b306025913960400191505060405180910390fd5b670de0b6b3a76400003411156116ae5760405162461bcd60e51b8152600401808060200182810382526036815260200180613a786036913960400191505060405180910390fd5b82346000611760600261175a600361175486600260009054906101000a90046001600160a01b03166001600160a01b0316632393f9c68a6040518263ffffffff1660e01b815260040180826001600160a01b0316815260200191505060206040518083038186803b15801561172257600080fd5b505afa158015611736573d6000803e3d6000fd5b505050506040513d602081101561174c57600080fd5b5051906133a0565b90613401565b9061345a565b600254604080516340903e3960e01b81526001600160a01b03878116600483015291519394509116916340903e3991602480820192602092909190829003018186803b1580156117af57600080fd5b505afa1580156117c3573d6000803e3d6000fd5b505050506040513d60208110156117d957600080fd5b50518111156118195760405162461bcd60e51b8152600401808060200182810382526040815260200180613acf6040913960400191505060405180910390fd5b6000611826878787613270565b6002546040805163251acae160e11b8152336004820152346024820152604481018490526001600160a01b038b811660648301529151939450911691634a3595c29160848082019260009290919082900301818387803b15801561188957600080fd5b505af115801561189d573d6000803e3d6000fd5b50506001546040516001600160a01b0390911692503480156108fc029250906000818181858888f193505050501580156118db573d6000803e3d6000fd5b5060408051348152905133917f4b58308df033561e43d2c0227b19bea93ae78a05df784c985482b3fb7e154610919081900360200190a250505050505050565b600080546001600160a01b0316331461197b576040805162461bcd60e51b815260206004820152601c60248201527f43616c6c6572206973206e6f7420636f6e7472616374206f776e657200000000604482015290519081900360640190fd5b60025460408051630a24596760e31b8152841515600482015290516001600160a01b0390921691635122cb38916024808201926020929091908290030181600087803b1580156119ca57600080fd5b505af1158015610c5f573d6000803e3d6000fd5b6119e66139ce565b3360009081526003602052604090205460ff16611a4a576040805162461bcd60e51b815260206004820152601b60248201527f4e6f74207265676973746572656420617320616e206f7261636c650000000000604482015290519081900360640190fd5b336000908152600360208190526040808320815160608101928390529360019091019291908390855b825461010083900a900460ff16815260206001928301818104948501949093039092029101808411611a735790505050505050905090565b670de0b6b3a764000081565b6002546040805163cd905dff60e01b815290516000926001600160a01b03169163cd905dff916004808301926020929190829003018186803b158015611afc57600080fd5b505afa158015611b10573d6000803e3d6000fd5b505050506040513d6020811015611b2657600080fd5b50511515600114611b685760405162461bcd60e51b8152600401808060200182810382526025815260200180613b306025913960400191505060405180910390fd5b6000611b75858585613270565b60025460408051631e18084b60e21b81526001600160a01b038a81166004830152602482018590529151939450911691637860212c91604480820192602092909190829003018186803b158015611bcb57600080fd5b505afa158015611bdf573d6000803e3d6000fd5b505050506040513d6020811015611bf557600080fd5b50519695505050505050565b678ac7230489e8000081565b600260009054906101000a90046001600160a01b03166001600160a01b031663cd905dff6040518163ffffffff1660e01b815260040160206040518083038186803b158015611c5b57600080fd5b505afa158015611c6f573d6000803e3d6000fd5b505050506040513d6020811015611c8557600080fd5b50511515600114611cc75760405162461bcd60e51b8152600401808060200182810382526025815260200180613b306025913960400191505060405180910390fd5b60025460408051639762829560e01b81526001600160a01b03848116600483015291519190921691639762829591602480830192600092919082900301818387803b158015611d1557600080fd5b505af1158015611d29573d6000803e3d6000fd5b50506040516001600160a01b03841692507f73ac0663a7d7498ff328d2056b952397823b74bc9c2dd8b7db794b679ddda6219150600090a250565b600260009054906101000a90046001600160a01b03166001600160a01b031663cd905dff6040518163ffffffff1660e01b815260040160206040518083038186803b158015611db257600080fd5b505afa158015611dc6573d6000803e3d6000fd5b505050506040513d6020811015611ddc57600080fd5b50511515600114611e1e5760405162461bcd60e51b8152600401808060200182810382526025815260200180613b306025913960400191505060405180910390fd5b6002546040805163010c5c9760e01b815233600482015290516001600160a01b039092169163010c5c9791602480820192602092909190829003018186803b158015611e6957600080fd5b505afa158015611e7d573d6000803e3d6000fd5b505050506040513d6020811015611e9357600080fd5b50511515600114611ed55760405162461bcd60e51b815260040180806020018281038252604c815260200180613a02604c913960600191505060405180910390fd5b678ac7230489e80000341015611f1c5760405162461bcd60e51b815260040180806020018281038252602a815260200180613a4e602a913960400191505060405180910390fd5b6001546040516001600160a01b03909116903480156108fc02916000818181858888f19350505050158015611f55573d6000803e3d6000fd5b50600254604080516378d40f3960e11b815233600482015234602482015290516001600160a01b039092169163f1a81e72916044808201926020929091908290030181600087803b158015611fa957600080fd5b505af1158015611fbd573d6000803e3d6000fd5b505050506040513d6020811015611fd357600080fd5b505060408051348152905133917fe3e3c2f23f7445131259937f93b9ed0c075fe06c9d702be2d7ac549d0ec5fc32919081900360200190a2565b6002546040805163cd905dff60e01b815290516000926001600160a01b03169163cd905dff916004808301926020929190829003018186803b15801561205257600080fd5b505afa158015612066573d6000803e3d6000fd5b505050506040513d602081101561207c57600080fd5b505115156001146120be5760405162461bcd60e51b8152600401808060200182810382526025815260200180613b306025913960400191505060405180910390fd5b600254604080516338c3fca160e21b81526001600160a01b0385811660048301529151919092169163e30ff284916024808301926020929190829003018186803b158015610c4b57600080fd5b6002546040805163cd905dff60e01b815290516000926001600160a01b03169163cd905dff916004808301926020929190829003018186803b15801561215057600080fd5b505afa158015612164573d6000803e3d6000fd5b505050506040513d602081101561217a57600080fd5b505115156001146121bc5760405162461bcd60e51b8152600401808060200182810382526025815260200180613b306025913960400191505060405180910390fd5b506001600160a01b031660009081526003602052604090205460ff1690565b6002546040805163cd905dff60e01b815290516000926001600160a01b03169163cd905dff916004808301926020929190829003018186803b15801561222057600080fd5b505afa158015612234573d6000803e3d6000fd5b505050506040513d602081101561224a57600080fd5b5051151560011461228c5760405162461bcd60e51b8152600401808060200182810382526025815260200180613b306025913960400191505060405180910390fd5b6002546040805163f53b6d6560e01b815233600482015290516001600160a01b039092169163f53b6d6591602480820192602092909190829003018186803b1580156122d757600080fd5b505afa1580156122eb573d6000803e3d6000fd5b505050506040513d602081101561230157600080fd5b505115156001146123435760405162461bcd60e51b8152600401808060200182810382526049815260200180613b786049913960600191505060405180910390fd5b6002546040805163f53b6d6560e01b81526001600160a01b03808616600483015291518593929092169163f53b6d6591602480820192602092909190829003018186803b15801561239357600080fd5b505afa1580156123a7573d6000803e3d6000fd5b505050506040513d60208110156123bd57600080fd5b5051151560011415612416576040805162461bcd60e51b815260206004820152601960248201527f4169726c696e6520697320616c72656164792066756e64656400000000000000604482015290519081900360640190fd5b6002546040805163010c5c9760e01b81526001600160a01b03808716600483015291518693929092169163010c5c9791602480820192602092909190829003018186803b15801561246657600080fd5b505afa15801561247a573d6000803e3d6000fd5b505050506040513d602081101561249057600080fd5b50511515600114156124e9576040805162461bcd60e51b815260206004820152601d60248201527f4169726c696e6520697320616c72656164792072656769737465726564000000604482015290519081900360640190fd5b60025460408051600162af9acd60e01b031981526001600160a01b03808816600483015291518793929092169163ff50653391602480820192602092909190829003018186803b15801561253c57600080fd5b505afa158015612550573d6000803e3d6000fd5b505050506040513d602081101561256657600080fd5b505115156001146125be576040805162461bcd60e51b815260206004820152601c60248201527f4169726c696e652063616e6e6f74206265207265676973746572656400000000604482015290519081900360640190fd5b6002546040805163c5323de560e01b81526001600160a01b0388811660048301523360248301529151600093929092169163c5323de59160448082019260209290919082900301818787803b15801561261657600080fd5b505af115801561262a573d6000803e3d6000fd5b505050506040513d602081101561264057600080fd5b505160025460408051630d81362f60e31b815290519293506004926001600160a01b0390921691636c09b178918085019160209181900386018186803b15801561268957600080fd5b505afa15801561269d573d6000803e3d6000fd5b505050506040513d60208110156126b357600080fd5b5051106127fb576002805460408051630d81362f60e31b8152905161273493926001600160a01b031691636c09b178916004808301926020929190829003018186803b15801561270257600080fd5b505afa158015612716573d6000803e3d6000fd5b505050506040513d602081101561272c57600080fd5b50519061345a565b81106127f1576002546040805163bdfd987760e01b81526001600160a01b0389811660048301529151919092169163bdfd98779160248083019260209291908290030181600087803b15801561278957600080fd5b505af115801561279d573d6000803e3d6000fd5b505050506040513d60208110156127b357600080fd5b50516040519095506001600160a01b038716907f89a6354fb229eda6cbc28306798727b4d524818d2c375220bc3f360f24cffaca90600090a26127f6565b600094505b6128ae565b6002546040805163bdfd987760e01b81526001600160a01b0389811660048301529151919092169163bdfd98779160248083019260209291908290030181600087803b15801561284a57600080fd5b505af115801561285e573d6000803e3d6000fd5b505050506040513d602081101561287457600080fd5b50516040519095506001600160a01b038716907f89a6354fb229eda6cbc28306798727b4d524818d2c375220bc3f360f24cffaca90600090a25b50505050919050565b33600090815260036020526040902060010154859060ff808316911614806128fb57503360009081526003602052604090206001015460ff82811661010090920416145b8061292357503360009081526003602052604090206001015460ff8281166201000090920416145b61295e5760405162461bcd60e51b8152600401808060200182810382526023815260200180613b556023913960400191505060405180910390fd5b600086868686604051602001808560ff1660f81b8152600101846001600160a01b031660601b815260140183805190602001908083835b602083106129b45780518252601f199092019160209182019101612995565b51815160209384036101000a600019018019909216911617905292019384525060408051808503815293820181528351938201939093206000818152600490925292902054919550506001600160a01b90910460ff161515149250612a4d9150505760405162461bcd60e51b8152600401808060200182810382526021815260200180613b0f6021913960400191505060405180910390fd5b600081815260046020908152604080832060ff87168085526001918201845282852080549283018155855283852090910180546001600160a01b0319163317905581516001600160a01b038b1681529182018890526060820152608081830181815289519183019190915288517f43c853095c2752648493c88b4baac4d580d2594ffb00c6f1d4242d844514f783948b948b948b948b949193909260a0850192908801918190849084905b83811015612b10578181015183820152602001612af8565b50505050905090810190601f168015612b3d5780820380516001836020036101000a031916815260200191505b509550505050505060405180910390a1600081815260046020908152604080832060ff87168452600101909152902054600311612c3d577fe23f5229de535c091e3b7bec2665f5d698192d3b31393066e8987b7a05076b6c8686868660405180856001600160a01b03168152602001806020018481526020018360ff168152602001828103825285818151815260200191508051906020019080838360005b83811015612bf4578181015183820152602001612bdc565b50505050905090810190601f168015612c215780820380516001836020036101000a031916815260200191505b509550505050505060405180910390a1612c3d8686868661349c565b50505050505050565b6002546040805163cd905dff60e01b815290516000926001600160a01b03169163cd905dff916004808301926020929190829003018186803b158015612c8b57600080fd5b505afa158015612c9f573d6000803e3d6000fd5b505050506040513d6020811015612cb557600080fd5b50511515600114612cf75760405162461bcd60e51b8152600401808060200182810382526025815260200180613b306025913960400191505060405180910390fd5b6000612d04858585613270565b6002546040805163ce590aad60e01b81526004810184905290519293506001600160a01b039091169163ce590aad91602480820192602092909190829003018186803b158015610d8a57600080fd5b6002546040805163cd905dff60e01b815290516000926001600160a01b03169163cd905dff916004808301926020929190829003018186803b158015612d9857600080fd5b505afa158015612dac573d6000803e3d6000fd5b505050506040513d6020811015612dc257600080fd5b5051905090565b6000546001600160a01b031681565b6002546040805163cd905dff60e01b815290516000926001600160a01b03169163cd905dff916004808301926020929190829003018186803b158015612e1d57600080fd5b505afa158015612e31573d6000803e3d6000fd5b505050506040513d6020811015612e4757600080fd5b50511515600114612e895760405162461bcd60e51b8152600401808060200182810382526025815260200180613b306025913960400191505060405180910390fd5b6000612e96858585613270565b600254604080516379fca28560e01b81526004810184905290519293506001600160a01b03909116916379fca28591602480820192602092909190829003018186803b158015610d8a57600080fd5b600260009054906101000a90046001600160a01b03166001600160a01b031663cd905dff6040518163ffffffff1660e01b815260040160206040518083038186803b158015612f3357600080fd5b505afa158015612f47573d6000803e3d6000fd5b505050506040513d6020811015612f5d57600080fd5b50511515600114612f9f5760405162461bcd60e51b8152600401808060200182810382526025815260200180613b306025913960400191505060405180910390fd5b600254604080516336c329b560e11b81523360048201526024810184905290516001600160a01b0390921691636d86536a9160448082019260009290919082900301818387803b158015612ff257600080fd5b505af1158015613006573d6000803e3d6000fd5b50506040805184815290513393507fa61b5b46b19f7c8a71d6ac783da8b63a4819c0a9a8cea7f25ccbf167cddc356292509081900360200190a250565b6001546001600160a01b031681565b6002546040805163cd905dff60e01b815290516000926001600160a01b03169163cd905dff916004808301926020929190829003018186803b15801561309757600080fd5b505afa1580156130ab573d6000803e3d6000fd5b505050506040513d60208110156130c157600080fd5b505115156001146131035760405162461bcd60e51b8152600401808060200182810382526025815260200180613b306025913960400191505060405180910390fd5b6002546040805163f53b6d6560e01b81526001600160a01b0385811660048301529151919092169163f53b6d65916024808301926020929190829003018186803b158015610c4b57600080fd5b600061315b33613641565b9050613169818585856136db565b50505050565b6002546040805163cd905dff60e01b815290516000926001600160a01b03169163cd905dff916004808301926020929190829003018186803b1580156131b457600080fd5b505afa1580156131c8573d6000803e3d6000fd5b505050506040513d60208110156131de57600080fd5b505115156001146132205760405162461bcd60e51b8152600401808060200182810382526025815260200180613b306025913960400191505060405180910390fd5b60025460408051600162af9acd60e01b031981526001600160a01b0385811660048301529151919092169163ff506533916024808301926020929190829003018186803b158015610c4b57600080fd5b600083838360405160200180846001600160a01b031660601b815260140183805190602001908083835b602083106132b95780518252601f19909201916020918201910161329a565b51815160209384036101000a600019018019909216911617905292019384525060408051808503815293820190528251920191909120979650505050505050565b6133026139ce565b61330a6139ce565b61331383613641565b60ff1680825260208201525b8051602082015160ff908116911614156133495761333c83613641565b60ff16602082015261331f565b602081015160ff1660408201525b8051604082015160ff9081169116148061337f57506020810151604082015160ff9081169116145b1561339a5761338d83613641565b60ff166040820152613357565b92915050565b6000828201838110156133fa576040805162461bcd60e51b815260206004820152601b60248201527f536166654d6174683a206164646974696f6e206f766572666c6f770000000000604482015290519081900360640190fd5b9392505050565b6000826134105750600061339a565b8282028284828161341d57fe5b04146133fa5760405162461bcd60e51b8152600401808060200182810382526021815260200180613aae6021913960400191505060405180910390fd5b60006133fa83836040518060400160405280601a81526020017f536166654d6174683a206469766973696f6e206279207a65726f000000000000815250613899565b60006134a9858585613270565b600254604080516322be322f60e21b815260ff861660048201526024810184905290519293506001600160a01b0390911691638af8c8bc9160448082019260009290919082900301818387803b15801561350257600080fd5b505af1158015613516573d6000803e3d6000fd5b5050505060ff82166014141561363a576002546040805160016238a71f60e01b03198152600481018490526001600160a01b0388811660248301529151919092169163ffc758e191604480830192600092919082900301818387803b15801561357e57600080fd5b505af1158015613592573d6000803e3d6000fd5b50505050846001600160a01b03167fc950912bc1ce12a471b7f722d9934565ead629a778ff890a24959773e6e5bc11856040518080602001828103825283818151815260200191508051906020019080838360005b838110156135ff5781810151838201526020016135e7565b50505050905090810190601f16801561362c5780820380516001836020036101000a031916815260200191505b509250505060405180910390a25b5050505050565b6002805460ff60a01b19811660ff600160a01b9283900481166001810182168402929092179384905560408051439390930340602080850191909152606087901b6bffffffffffffffffffffffff1916848301528151808503603401815260549094019091528251920191909120600093600a93918490069260fa929091041611156133fa576002805460ff60a01b191690559392505050565b600084848484604051602001808560ff1660f81b8152600101846001600160a01b031660601b815260140183805190602001908083835b602083106137315780518252601f199092019160209182019101613712565b6001836020036101000a0380198251168184511680821785525050505050509050018281526020019450505050506040516020818303038152906040528051906020012090506000600460008381526020019081526020016000209050338160000160006101000a8154816001600160a01b0302191690836001600160a01b0316021790555060018160000160146101000a81548160ff0219169083151502179055507f3ed01f2c3fc24c6b329d931e35b03e390d23497d22b3f90e15b600343e93df1186868686604051808560ff168152602001846001600160a01b0316815260200180602001838152602001828103825284818151815260200191508051906020019080838360005b8381101561385457818101518382015260200161383c565b50505050905090810190601f1680156138815780820380516001836020036101000a031916815260200191505b509550505050505060405180910390a1505050505050565b600081836139255760405162461bcd60e51b81526004018080602001828103825283818151815260200191508051906020019080838360005b838110156138ea5781810151838201526020016138d2565b50505050905090810190601f1680156139175780820380516001836020036101000a031916815260200191505b509250505060405180910390fd5b50600083858161393157fe5b0495945050505050565b6001830191839082156139be5791602002820160005b8382111561398f57835183826101000a81548160ff021916908360ff1602179055509260200192600101602081600001049283019260010302613951565b80156139bc5782816101000a81549060ff021916905560010160208160000104928301926001030261398f565b505b506139ca9291506139ec565b5090565b60405180606001604052806003906020820280368337509192915050565b5b808211156139ca57600081556001016139ed56fe4f6e6c7920616e206578697374696e67206169726c696e65206d617920726567697374657220616e206169726c696e65206f7220706172746963697061746520696e20636f6e73656e7375734169726c696e652066756e64696e67207265717569726573206174206c6561737420313020457468657241206d6178696d756d206f662031206574686572206d61792062652073656e7420746f20707572636861736520696e737572616e6365536166654d6174683a206d756c7469706c69636174696f6e206f766572666c6f774169726c696e652068617320696e73756666696369656e7420726573657276657320746f20756e646572777269746520666c6967687420696e737572616e63654b657920646f6573206e6f74206d61746368206f7261636c652072657175657374436f6e74726163742069732063757272656e746c79206e6f74206f7065726174696f6e616c496e64657820646f6573206e6f74206d61746368206f7261636c6520726571756573744f6e6c7920612066756e646564206169726c696e65206d617920726567697374657220616e206169726c696e65206f7220706172746963697061746520696e20636f6e73656e737573a26469706673582212207b4b298c6ce0ad45a3fe86b642f824ffe0f55faaff78a75fb98901720eb1339e64736f6c63430007060033",
  "immutableReferences": {},
  "source": "// SPDX-License-Identifier: MIT\n\npragma solidity ^0.7.6;\n\nimport \"./SafeMath.sol\";\nimport \"./FlightSuretyData.sol\";\n\n/************************************************** */\n/* FlightSurety Smart Contract                      */\n/************************************************** */\ncontract FlightSuretyApp {\n    using SafeMath for uint256; // Allow SafeMath functions to be called for all uint256 types (similar to \"prototype\" in Javascript)\n\n    /********************************************************************************************/\n    /*                                       DATA VARIABLES                                     */\n    /********************************************************************************************/\n\n    // Flight status codees\n    uint8 private constant STATUS_CODE_UNKNOWN = 0;\n    uint8 private constant STATUS_CODE_ON_TIME = 10;\n    uint8 private constant STATUS_CODE_LATE_AIRLINE = 20;\n    uint8 private constant STATUS_CODE_LATE_WEATHER = 30;\n    uint8 private constant STATUS_CODE_LATE_TECHNICAL = 40;\n    uint8 private constant STATUS_CODE_LATE_OTHER = 50;\n\n    uint8 private constant CONSENSUS_THRESHOLD = 4;\n    uint8 private constant VOTE_SUCCESS_THRESHOLD = 2;\n\n    uint256 public constant MAX_INSURANCE_AMOUNT = 1 ether;\n    uint256 public constant MIN_AIRLINE_FUNDING = 10 ether;\n\n    address public contractOwner; // Account used to deploy contract\n    address payable public  dataContractAddress;\n\n    FlightSuretyData private flightData;\n\n    /********************************************************************************************/\n    /*                                       CONSTRUCTOR                                        */\n    /********************************************************************************************/\n\n    constructor(address payable dataContract) {\n        contractOwner = msg.sender;\n        dataContractAddress = dataContract;\n        flightData = FlightSuretyData(dataContract);\n    }\n\n    /********************************************************************************************/\n    /*                                       FUNCTION MODIFIERS                                 */\n    /********************************************************************************************/\n\n    modifier requireIsOperational() {\n        // Modify to call data contract's status\n        require(\n            flightData.isOperational() == true,\n            \"Contract is currently not operational\"\n        );\n        _; // All modifiers require an \"_\" which indicates where the function body will be added\n    }\n\n    modifier requireContractOwner() {\n        require(msg.sender == contractOwner, \"Caller is not contract owner\");\n        _;\n    }\n\n    modifier requireRegisteredAirlineCaller() {\n        require(\n            flightData.isAirlineRegistered(msg.sender) == true,\n            \"Only an existing airline may register an airline or participate in consensus\"\n        );\n        _;\n    }\n\n    modifier requireFundedAirlineCaller() {\n        require(\n            flightData.isAirlineFunded(msg.sender) == true,\n            \"Only a funded airline may register an airline or participate in consensus\"\n        );\n        _;\n    }\n\n    modifier requireNominated(address airlineAddress) {\n        require(\n            flightData.isAirlineNominated(airlineAddress) == true,\n            \"Airline cannot be registered\"\n        );\n        _;\n    }\n\n    modifier requireNotRegistered(address airlineAddress) {\n        require(\n            flightData.isAirlineRegistered(airlineAddress) != true,\n            \"Airline is already registered\"\n        );\n        _;\n    }\n\n    modifier requireNotFunded(address airlineAddress) {\n        require(\n            flightData.isAirlineFunded(airlineAddress) != true,\n            \"Airline is already funded\"\n        );\n        _;\n    }\n\n    modifier requireFlightRegistered(\n        address airline,\n        string memory flight,\n        uint256 departureTime\n    ) {\n        require(\n            isFlightRegistered(airline, flight, departureTime) == true,\n            \"Flight must be registered\"\n        );\n        _;\n    }\n\n    modifier rejectOverpayment() {\n        require(\n            msg.value <= MAX_INSURANCE_AMOUNT,\n            \"A maximum of 1 ether may be sent to purchase insurance\"\n        );\n        _;\n    }\n\n    modifier requireSufficientReserves(\n        address airlineAddress,\n        uint256 insuranceAmount\n    ) {\n        uint256 grossExposure =\n            flightData\n                .totalUnderwritten(airlineAddress)\n                .add(insuranceAmount)\n                .mul(3)\n                .div(2);\n        require(\n            grossExposure <= flightData.amountAirlineFunds(airlineAddress),\n            \"Airline has insufficient reserves to underwrite flight insurance\"\n        );\n        _;\n    }\n\n    modifier requireRegisteredOracle(address oracleAddress) {\n        require(\n            oracles[oracleAddress].isRegistered == true,\n            \"Oracle must be registered to submit responses\"\n        );\n        _;\n    }\n\n    /********************************************************************************************/\n    /*                                       EVENTS                                             */\n    /********************************************************************************************/\n\n    event AirlineNominated(address indexed airlineAddress);\n\n    event AirlineRegistered(address indexed airlineAddress);\n\n    event AirlineFunded(\n        address indexed airlineAddress,\n        uint256 amount\n    );\n\n    event FlightRegistered(\n        address indexed airlineAddress,\n        string flight\n    );\n\n    event InsurancePurchased(address indexed passengerAddress, uint256 amount);\n\n    event InsurancePayout(address indexed airlineAddress, string flight);\n\n    event InsuranceWithdrawal(address indexed passengerAddress, uint256 amount);\n\n    event FlightStatusInfo(\n        address airline,\n        string flight,\n        uint256 departureTime,\n        uint8 status\n    );\n\n    event OracleRequest(\n        uint8 index,\n        address airline,\n        string flight,\n        uint256 departureTime\n    );\n\n    event OracleReport(\n        address airline,\n        string flight,\n        uint256 departureTime,\n        uint8 status\n    );\n\n    event OracleRegistered(address indexed oracleAddress, uint8[3] indexes);\n\n    /********************************************************************************************/\n    /*                                       UTILITY FUNCTIONS                                  */\n    /********************************************************************************************/\n\n    function isOperational() external view returns (bool) {\n        return flightData.isOperational(); // Modify to call data contract's status\n    }\n\n    function setOperationalStatus(bool mode)\n        external\n        requireContractOwner\n        returns (bool)\n    {\n        return flightData.setOperationalStatus(mode);\n    }\n\n    /********************************************************************************************/\n    /*                                     SMART CONTRACT FUNCTIONS                             */\n    /********************************************************************************************/\n\n    function isAirlineNominated(address airlineAddress)\n        external\n        view\n        requireIsOperational\n        returns (bool)\n    {\n        return flightData.isAirlineNominated(airlineAddress);\n    }\n\n    function isAirlineRegistered(address airlineAddress)\n        external\n        view\n        requireIsOperational\n        returns (bool)\n    {\n        return flightData.isAirlineRegistered(airlineAddress);\n    }\n\n    function isAirlineFunded(address airlineAddress)\n        external\n        view\n        requireIsOperational\n        returns (bool)\n    {\n        return flightData.isAirlineFunded(airlineAddress);\n    }\n    \n    function airlineMembership(address airlineAddress)\n        external\n        view\n        requireIsOperational\n        returns (uint)\n    {\n        return flightData.airlineMembership(airlineAddress);\n    }\n\n    function nominateAirline(address airlineAddress)\n        external\n        requireIsOperational\n    {\n        flightData.nominateAirline(airlineAddress);\n        emit AirlineNominated(airlineAddress);\n    }\n\n    function registerAirline(address airlineAddress)\n        external\n        requireIsOperational\n        requireFundedAirlineCaller\n        requireNotFunded(airlineAddress)\n        requireNotRegistered(airlineAddress)\n        requireNominated(airlineAddress)\n        returns (bool success)\n    {\n        uint256 votes = flightData.voteAirline(airlineAddress, msg.sender);\n        if (flightData.registeredAirlineCount() >= CONSENSUS_THRESHOLD) {\n            if (votes >= flightData.registeredAirlineCount().div(VOTE_SUCCESS_THRESHOLD)) {\n                success = flightData.registerAirline(airlineAddress);\n                emit AirlineRegistered(airlineAddress);\n            } else {\n                success = false; // not enough votes\n            }\n        } else {\n            // no conensus required\n            success = flightData.registerAirline(airlineAddress);\n            emit AirlineRegistered(airlineAddress);\n        }\n        return success; // cannot have votes if just registered\n    }\n\n    function numberAirlineVotes(address airlineAddress)\n        external\n        view\n        requireIsOperational\n        returns (uint256 votes)\n    {\n        return flightData.numberAirlineVotes(airlineAddress);\n    }\n\n    function fundAirline()\n        external\n        payable\n        requireIsOperational\n        requireRegisteredAirlineCaller\n    {\n        require(\n            msg.value >= MIN_AIRLINE_FUNDING,\n            \"Airline funding requires at least 10 Ether\"\n        );\n        dataContractAddress.transfer(msg.value);\n        flightData.fundAirline(msg.sender, msg.value);\n        emit AirlineFunded(msg.sender, msg.value);\n    }\n\n    function amountAirlineFunds(address airlineAddress)\n        external\n        view\n        requireIsOperational\n        returns (uint256)\n    {\n        return flightData.amountAirlineFunds(airlineAddress);\n    }\n\n    function isFlightRegistered(\n        address airline,\n        string memory flight,\n        uint256 departureTime\n    ) public view requireIsOperational returns (bool) {\n        bytes32 flightKey = getFlightKey(airline, flight, departureTime);\n        return flightData.isFlightRegistered(flightKey);\n    }\n\n    function registerFlight(\n        string memory flight,\n        uint256 departureTime // this was a hard bug to fix, args needs to be held in memory\n    ) external requireIsOperational requireFundedAirlineCaller {\n        flightData.registerFlight(\n            msg.sender,\n            flight,\n            departureTime,\n            STATUS_CODE_UNKNOWN\n        );\n        emit FlightRegistered(msg.sender, flight);\n    }\n\n    function officialFlightStatus(\n        address airline,\n        string memory flightName,\n        uint256 departureTime\n    ) external view requireIsOperational returns (uint8) {\n        bytes32 flightKey = getFlightKey(airline, flightName, departureTime);\n        return flightData.getFlightStatus(flightKey);\n    }\n\n    function buyFlightInsurance(\n        address airline,\n        string memory flight,\n        uint256 departureTime\n    )\n        external\n        payable\n        requireIsOperational\n        rejectOverpayment\n        requireSufficientReserves(airline, msg.value)\n    {\n        bytes32 key = getFlightKey(airline, flight, departureTime);\n        flightData.buyInsurance(msg.sender, msg.value, key, airline);\n        dataContractAddress.transfer(msg.value);\n        emit InsurancePurchased(msg.sender, msg.value);\n    }\n\n    function isPassengerInsured(\n        address passenger,\n        address airline,\n        string memory flight,\n        uint256 departureTime\n    ) external view requireIsOperational returns (bool) {\n        bytes32 key = getFlightKey(airline, flight, departureTime);\n        return flightData.isPassengerInsured(passenger, key);\n    }\n\n    function isPaidOut(\n        address airline,\n        string memory flight,\n        uint256 departureTime\n    ) external view requireIsOperational returns (bool) {\n        bytes32 key = getFlightKey(airline, flight, departureTime);\n        return flightData.isPaidOut(key);\n    }\n\n    function passengerBalance(address passengerAddress)\n        external\n        view\n        requireIsOperational\n        returns (uint256)\n    {\n        return flightData.currentPassengerBalance(passengerAddress);\n    }\n\n    function withdrawBalance(uint256 withdrawalAmount)\n        external\n        requireIsOperational\n    {\n        flightData.payPassenger(msg.sender, withdrawalAmount);\n        emit InsuranceWithdrawal(msg.sender, withdrawalAmount);\n    }\n\n    /********************************************************************************************/\n    /*                                       ORACLES                                            */\n    /********************************************************************************************/\n\n    uint8 private nonce = 0;\n    uint256 public constant REGISTRATION_FEE = 1 ether;\n    uint256 private constant MIN_RESPONSES = 3;\n\n    struct Oracle {\n        bool isRegistered;\n        uint8[3] indexes;\n    }\n\n    mapping(address => Oracle) private oracles;\n\n    function isOracleRegistered(address oracleAddress)\n        public\n        view\n        requireIsOperational\n        returns (bool)\n    {\n        return oracles[oracleAddress].isRegistered;\n    }\n\n    function registerOracle() external payable requireIsOperational {\n        require(msg.value >= REGISTRATION_FEE, \"Registration fee is required\");\n        uint8[3] memory indexes = generateIndexes(msg.sender);\n        Oracle storage oracle = oracles[msg.sender];\n        oracle.isRegistered = true;\n        oracle.indexes = indexes;\n        dataContractAddress.transfer(msg.value);\n        emit OracleRegistered(msg.sender, indexes);\n    }\n\n    function getMyIndexes() external view returns (uint8[3] memory) {\n        require(\n            oracles[msg.sender].isRegistered,\n            \"Not registered as an oracle\"\n        );\n        return oracles[msg.sender].indexes;\n    }\n\n    function fetchFlightStatus\n                        (\n                            address airline,\n                            string memory flight,\n                            uint256 timestamp                            \n                        )\n                        external\n    {\n        uint8 index = getRandomIndex(msg.sender);\n        openOracleResponse(index, airline, flight, timestamp);\n    }\n\n    struct ResponseInfo {\n        address requester;\n        bool isOpen;\n        mapping(uint8 => address[]) responses;\n    }\n    \n\n    mapping(bytes32 => ResponseInfo) private oracleResponses;\n    \n     modifier validateOracle(uint8 index) {\n        require((oracles[msg.sender].indexes[0] == index) || (oracles[msg.sender].indexes[1] == index) || (oracles[msg.sender].indexes[2] == index), \"Index does not match oracle request\");\n        _;\n    }\n\n    function openOracleResponse(\n                            uint8 index,\n                            address airline,\n                            string memory flight,\n                            uint256 timestamp\n                        ) internal \n    {\n        bytes32 key = keccak256(abi.encodePacked(index, airline, flight, timestamp));\n        \n        ResponseInfo storage response = oracleResponses[key];\n        response.requester = msg.sender;\n        response.isOpen = true;\n        \n        emit OracleRequest(index, airline, flight, timestamp);\n    }\n\n    function submitOracleResponse\n                        (\n                            uint8 index,\n                            address airline,\n                            string memory flight,\n                            uint256 departureTime,\n                            uint8 statusCode\n                        )\n                        external\n                        validateOracle(index)\n    {\n        bytes32 key = keccak256(abi.encodePacked(index, airline, flight, departureTime));\n        require(oracleResponses[key].isOpen == true, \"Key does not match oracle request\");\n        oracleResponses[key].responses[statusCode].push(msg.sender);\n        emit OracleReport(airline, flight, departureTime, statusCode);\n        if (oracleResponses[key].responses[statusCode].length >= MIN_RESPONSES) {\n            emit FlightStatusInfo(airline, flight, departureTime, statusCode);\n            processFlightStatus(airline, flight, departureTime, statusCode);\n        }\n    }\n    \n\n    function processFlightStatus(\n        address airline,\n        string memory flight,\n        uint256 departureTime,\n        uint8 statusCode\n    ) internal {\n        bytes32 flightKey = getFlightKey(airline, flight, departureTime);\n        flightData.updateFlightStatus(statusCode, flightKey);\n        if (statusCode == STATUS_CODE_LATE_AIRLINE) {\n            flightData.creditInsurees(flightKey, airline);\n            emit InsurancePayout(airline, flight);\n        }\n    }\n\n    function getFlightKey(\n        address airline,\n        string memory flight,\n        uint256 departureTime\n    ) internal pure returns (bytes32) {\n        return keccak256(abi.encodePacked(airline, flight, departureTime));\n    }\n\n    function generateIndexes(address account) internal returns (uint8[3] memory) {\n        uint8[3] memory indexes;\n        indexes[0] = getRandomIndex(account);\n\n        indexes[1] = indexes[0];\n        while (indexes[1] == indexes[0]) {\n            indexes[1] = getRandomIndex(account);\n        }\n\n        indexes[2] = indexes[1];\n        while ((indexes[2] == indexes[0]) || (indexes[2] == indexes[1])) {\n            indexes[2] = getRandomIndex(account);\n        }\n\n        return indexes;\n    }\n\n    function getRandomIndex(address account)\n        internal\n        returns (uint8)\n    {\n        uint8 maxValue = 10;\n        // Pseudo random number...the incrementing nonce adds variation\n        uint8 random =\n            uint8(\n                uint256(\n                    keccak256(\n                        abi.encodePacked(\n                            blockhash(block.number - nonce++),\n                            account\n                        )\n                    )\n                ) % maxValue\n            );\n\n        if (nonce > 250) {\n            nonce = 0; // Can only fetch blockhashes for last 256 blocks so we adapt\n        }\n        return random;\n    }\n}\n",
  "sourcePath": "/Users/galen/code/udacity/udacity-blockchain-developer/project4/contracts/FlightSuretyApp.sol",
  "compiler": {
    "name": "solc",
    "version": "0.7.6+commit.7338295f.Emscripten.clang"
  },
  "schemaVersion": "3.3.2",
  "updatedAt": "2021-02-06T23:31:07.951Z",
  "networkType": "ethereum",
  "devdoc": {
    "kind": "dev",
    "methods": {},
    "version": 1
  },
  "userdoc": {
    "kind": "user",
    "methods": {},
    "version": 1
  }
}