{
  "contractName": "FlightSuretyData",
  "abi": [
    {
      "inputs": [],
      "stateMutability": "nonpayable",
      "type": "constructor"
    },
    {
      "stateMutability": "payable",
      "type": "fallback",
      "payable": true
    },
    {
      "inputs": [],
      "name": "registeredAirlineCount",
      "outputs": [
        {
          "internalType": "uint256",
          "name": "",
          "type": "uint256"
        }
      ],
      "stateMutability": "view",
      "type": "function",
      "constant": true
    },
    {
      "stateMutability": "payable",
      "type": "receive",
      "payable": true
    },
    {
      "inputs": [],
      "name": "isOperational",
      "outputs": [
        {
          "internalType": "bool",
          "name": "",
          "type": "bool"
        }
      ],
      "stateMutability": "view",
      "type": "function",
      "constant": true
    },
    {
      "inputs": [
        {
          "internalType": "bool",
          "name": "mode",
          "type": "bool"
        }
      ],
      "name": "setOperationalStatus",
      "outputs": [
        {
          "internalType": "bool",
          "name": "",
          "type": "bool"
        }
      ],
      "stateMutability": "nonpayable",
      "type": "function"
    },
    {
      "inputs": [
        {
          "internalType": "address",
          "name": "_address",
          "type": "address"
        }
      ],
      "name": "authorizeCaller",
      "outputs": [],
      "stateMutability": "nonpayable",
      "type": "function"
    },
    {
      "inputs": [
        {
          "internalType": "address",
          "name": "_address",
          "type": "address"
        }
      ],
      "name": "deauthorizeCaller",
      "outputs": [],
      "stateMutability": "nonpayable",
      "type": "function"
    },
    {
      "inputs": [
        {
          "internalType": "address",
          "name": "airlineAddress",
          "type": "address"
        }
      ],
      "name": "numberAirlineVotes",
      "outputs": [
        {
          "internalType": "uint256",
          "name": "",
          "type": "uint256"
        }
      ],
      "stateMutability": "view",
      "type": "function",
      "constant": true
    },
    {
      "inputs": [
        {
          "internalType": "address",
          "name": "airlineAddress",
          "type": "address"
        }
      ],
      "name": "amountAirlineFunds",
      "outputs": [
        {
          "internalType": "uint256",
          "name": "",
          "type": "uint256"
        }
      ],
      "stateMutability": "view",
      "type": "function",
      "constant": true
    },
    {
      "inputs": [
        {
          "internalType": "address",
          "name": "airlineAddress",
          "type": "address"
        }
      ],
      "name": "isAirlineNominated",
      "outputs": [
        {
          "internalType": "bool",
          "name": "",
          "type": "bool"
        }
      ],
      "stateMutability": "view",
      "type": "function",
      "constant": true
    },
    {
      "inputs": [
        {
          "internalType": "address",
          "name": "airlineAddress",
          "type": "address"
        }
      ],
      "name": "isAirlineRegistered",
      "outputs": [
        {
          "internalType": "bool",
          "name": "",
          "type": "bool"
        }
      ],
      "stateMutability": "view",
      "type": "function",
      "constant": true
    },
    {
      "inputs": [
        {
          "internalType": "address",
          "name": "airlineAddress",
          "type": "address"
        }
      ],
      "name": "isAirlineFunded",
      "outputs": [
        {
          "internalType": "bool",
          "name": "",
          "type": "bool"
        }
      ],
      "stateMutability": "view",
      "type": "function",
      "constant": true
    },
    {
      "inputs": [
        {
          "internalType": "address",
          "name": "airlineAddress",
          "type": "address"
        }
      ],
      "name": "airlineMembership",
      "outputs": [
        {
          "internalType": "uint256",
          "name": "",
          "type": "uint256"
        }
      ],
      "stateMutability": "view",
      "type": "function",
      "constant": true
    },
    {
      "inputs": [
        {
          "internalType": "address",
          "name": "airlineAddress",
          "type": "address"
        }
      ],
      "name": "nominateAirline",
      "outputs": [],
      "stateMutability": "nonpayable",
      "type": "function"
    },
    {
      "inputs": [
        {
          "internalType": "address",
          "name": "airlineAddress",
          "type": "address"
        }
      ],
      "name": "registerAirline",
      "outputs": [
        {
          "internalType": "bool",
          "name": "",
          "type": "bool"
        }
      ],
      "stateMutability": "nonpayable",
      "type": "function"
    },
    {
      "inputs": [
        {
          "internalType": "address",
          "name": "airlineAddress",
          "type": "address"
        },
        {
          "internalType": "address",
          "name": "voterAddress",
          "type": "address"
        }
      ],
      "name": "voteAirline",
      "outputs": [
        {
          "internalType": "uint256",
          "name": "",
          "type": "uint256"
        }
      ],
      "stateMutability": "nonpayable",
      "type": "function"
    },
    {
      "inputs": [
        {
          "internalType": "address",
          "name": "airlineAddress",
          "type": "address"
        },
        {
          "internalType": "uint256",
          "name": "fundingAmount",
          "type": "uint256"
        }
      ],
      "name": "fundAirline",
      "outputs": [
        {
          "internalType": "uint256",
          "name": "",
          "type": "uint256"
        }
      ],
      "stateMutability": "nonpayable",
      "type": "function"
    },
    {
      "inputs": [
        {
          "internalType": "address",
          "name": "airline",
          "type": "address"
        },
        {
          "internalType": "string",
          "name": "flight",
          "type": "string"
        },
        {
          "internalType": "uint256",
          "name": "departureTime",
          "type": "uint256"
        },
        {
          "internalType": "uint8",
          "name": "statusCode",
          "type": "uint8"
        }
      ],
      "name": "registerFlight",
      "outputs": [
        {
          "internalType": "bool",
          "name": "",
          "type": "bool"
        }
      ],
      "stateMutability": "nonpayable",
      "type": "function"
    },
    {
      "inputs": [
        {
          "internalType": "uint8",
          "name": "statusCode",
          "type": "uint8"
        },
        {
          "internalType": "bytes32",
          "name": "flightKey",
          "type": "bytes32"
        }
      ],
      "name": "updateFlightStatus",
      "outputs": [],
      "stateMutability": "nonpayable",
      "type": "function"
    },
    {
      "inputs": [
        {
          "internalType": "bytes32",
          "name": "flightKey",
          "type": "bytes32"
        }
      ],
      "name": "isFlightRegistered",
      "outputs": [
        {
          "internalType": "bool",
          "name": "",
          "type": "bool"
        }
      ],
      "stateMutability": "view",
      "type": "function",
      "constant": true
    },
    {
      "inputs": [
        {
          "internalType": "bytes32",
          "name": "flightKey",
          "type": "bytes32"
        }
      ],
      "name": "getFlightStatus",
      "outputs": [
        {
          "internalType": "uint8",
          "name": "",
          "type": "uint8"
        }
      ],
      "stateMutability": "view",
      "type": "function",
      "constant": true
    },
    {
      "inputs": [
        {
          "internalType": "address",
          "name": "airlineAddress",
          "type": "address"
        }
      ],
      "name": "totalUnderwritten",
      "outputs": [
        {
          "internalType": "uint256",
          "name": "",
          "type": "uint256"
        }
      ],
      "stateMutability": "view",
      "type": "function",
      "constant": true
    },
    {
      "inputs": [
        {
          "internalType": "address",
          "name": "passengerAddress",
          "type": "address"
        },
        {
          "internalType": "uint256",
          "name": "insuranceAmount",
          "type": "uint256"
        },
        {
          "internalType": "bytes32",
          "name": "flightKey",
          "type": "bytes32"
        },
        {
          "internalType": "address",
          "name": "airlineAddress",
          "type": "address"
        }
      ],
      "name": "buyInsurance",
      "outputs": [],
      "stateMutability": "nonpayable",
      "type": "function"
    },
    {
      "inputs": [
        {
          "internalType": "address",
          "name": "passengerAddress",
          "type": "address"
        },
        {
          "internalType": "bytes32",
          "name": "flightKey",
          "type": "bytes32"
        }
      ],
      "name": "isPassengerInsured",
      "outputs": [
        {
          "internalType": "bool",
          "name": "",
          "type": "bool"
        }
      ],
      "stateMutability": "view",
      "type": "function",
      "constant": true
    },
    {
      "inputs": [
        {
          "internalType": "bytes32",
          "name": "flightKey",
          "type": "bytes32"
        }
      ],
      "name": "isPaidOut",
      "outputs": [
        {
          "internalType": "bool",
          "name": "",
          "type": "bool"
        }
      ],
      "stateMutability": "view",
      "type": "function",
      "constant": true
    },
    {
      "inputs": [
        {
          "internalType": "address",
          "name": "passengerAddress",
          "type": "address"
        }
      ],
      "name": "currentPassengerBalance",
      "outputs": [
        {
          "internalType": "uint256",
          "name": "",
          "type": "uint256"
        }
      ],
      "stateMutability": "view",
      "type": "function",
      "constant": true
    },
    {
      "inputs": [
        {
          "internalType": "bytes32",
          "name": "flightKey",
          "type": "bytes32"
        },
        {
          "internalType": "address",
          "name": "airlineAddress",
          "type": "address"
        }
      ],
      "name": "creditInsurees",
      "outputs": [],
      "stateMutability": "nonpayable",
      "type": "function"
    },
    {
      "inputs": [
        {
          "internalType": "address payable",
          "name": "insured",
          "type": "address"
        },
        {
          "internalType": "uint256",
          "name": "amount",
          "type": "uint256"
        }
      ],
      "name": "payPassenger",
      "outputs": [],
      "stateMutability": "nonpayable",
      "type": "function"
    }
  ],
  "bytecode": "0x60806040526000805460ff60a01b1916600160a01b17815560065534801561002657600080fd5b50600080546001600160a01b03191633178082556001600160a01b03168152600160208190526040909120805460ff191690911790556122338061006b6000396000f3fe6080604052600436106101855760003560e01c806379fca285116100d1578063ce590aad1161008a578063f1a81e7211610064578063f1a81e72146106e6578063f53b6d651461071f578063ff50653314610752578063ffc758e1146107855761018c565b8063ce590aad146105be578063d9d41226146105e8578063e30ff284146106b35761018c565b806379fca285146104955780638af8c8bc146104d55780639762829514610508578063bdfd98771461053b578063c5323de51461056e578063cd905dff146105a95761018c565b80634a3595c21161013e5780636873c21d116101185780636873c21d146103db5780636c09b1781461040e5780636d86536a146104235780637860212c1461045c5761018c565b80634a3595c21461033e5780635122cb381461038557806358ac36a3146103b15761018c565b8063010c5c97146101e65780632393f9c61461022d578063287d200a146102725780632c388d5d146102a55780633adf611e146102d857806340903e391461030b5761018c565b3661018c57005b3360009081526001602081905260409091205460ff161515146101e4576040805162461bcd60e51b81526020600482015260186024820152600080516020612198833981519152604482015290519081900360640190fd5b005b3480156101f257600080fd5b506102196004803603602081101561020957600080fd5b50356001600160a01b03166107be565b604080519115158252519081900360200190f35b34801561023957600080fd5b506102606004803603602081101561025057600080fd5b50356001600160a01b03166108c2565b60408051918252519081900360200190f35b34801561027e57600080fd5b506102606004803603602081101561029557600080fd5b50356001600160a01b0316610982565b3480156102b157600080fd5b506101e4600480360360208110156102c857600080fd5b50356001600160a01b03166109f2565b3480156102e457600080fd5b50610260600480360360208110156102fb57600080fd5b50356001600160a01b0316610ac0565b34801561031757600080fd5b506102606004803603602081101561032e57600080fd5b50356001600160a01b0316610b80565b34801561034a57600080fd5b506101e46004803603608081101561036157600080fd5b506001600160a01b0381358116916020810135916040820135916060013516610c41565b34801561039157600080fd5b50610219600480360360208110156103a857600080fd5b50351515610d5b565b3480156103bd57600080fd5b50610219600480360360208110156103d457600080fd5b5035610dd6565b3480156103e757600080fd5b506101e4600480360360208110156103fe57600080fd5b50356001600160a01b0316610e8d565b34801561041a57600080fd5b50610260610f55565b34801561042f57600080fd5b506101e46004803603604081101561044657600080fd5b506001600160a01b038135169060200135610f5b565b34801561046857600080fd5b506102196004803603604081101561047f57600080fd5b506001600160a01b0381351690602001356110c7565b3480156104a157600080fd5b506104bf600480360360208110156104b857600080fd5b5035611192565b6040805160ff9092168252519081900360200190f35b3480156104e157600080fd5b506101e4600480360360408110156104f857600080fd5b5060ff813516906020013561124d565b34801561051457600080fd5b506101e46004803603602081101561052b57600080fd5b50356001600160a01b0316611313565b34801561054757600080fd5b506102196004803603602081101561055e57600080fd5b50356001600160a01b031661144a565b34801561057a57600080fd5b506102606004803603604081101561059157600080fd5b506001600160a01b038135811691602001351661151e565b3480156105b557600080fd5b5061021961160c565b3480156105ca57600080fd5b50610219600480360360208110156105e157600080fd5b503561161c565b3480156105f457600080fd5b506102196004803603608081101561060b57600080fd5b6001600160a01b03823516919081019060408101602082013564010000000081111561063657600080fd5b82018360208201111561064857600080fd5b8035906020019184600183028401116401000000008311171561066a57600080fd5b91908080601f016020809104026020016040519081016040528093929190818152602001838380828437600092019190915250929550508235935050506020013560ff166116d6565b3480156106bf57600080fd5b50610260600480360360208110156106d657600080fd5b50356001600160a01b031661184e565b3480156106f257600080fd5b506102606004803603604081101561070957600080fd5b506001600160a01b03813516906020013561190b565b34801561072b57600080fd5b506102196004803603602081101561074257600080fd5b50356001600160a01b0316611a08565b34801561075e57600080fd5b506102196004803603602081101561077557600080fd5b50356001600160a01b0316611ab0565b34801561079157600080fd5b506101e4600480360360408110156107a857600080fd5b50803590602001356001600160a01b0316611b95565b60008054600160a01b900460ff166108075760405162461bcd60e51b81526004018080602001828103825260258152602001806121d96025913960400191505060405180910390fd5b3360009081526001602081905260409091205460ff1615151461085f576040805162461bcd60e51b81526020600482015260186024820152600080516020612198833981519152604482015290519081900360640190fd5b60025b6001600160a01b03831660009081526002602052604090205460ff16600381111561088957fe5b14806108bc575060035b6001600160a01b03831660009081526002602052604090205460ff1660038111156108ba57fe5b145b92915050565b60008054600160a01b900460ff1661090b5760405162461bcd60e51b81526004018080602001828103825260258152602001806121d96025913960400191505060405180910390fd5b3360009081526001602081905260409091205460ff16151514610963576040805162461bcd60e51b81526020600482015260186024820152600080516020612198833981519152604482015290519081900360640190fd5b506001600160a01b031660009081526002602052604090206003015490565b60008054600160a01b900460ff166109cb5760405162461bcd60e51b81526004018080602001828103825260258152602001806121d96025913960400191505060405180910390fd5b6001600160a01b03821660009081526002602052604090205460ff1660038111156108bc57fe5b600054600160a01b900460ff16610a3a5760405162461bcd60e51b81526004018080602001828103825260258152602001806121d96025913960400191505060405180910390fd5b6000546001600160a01b03163314610a99576040805162461bcd60e51b815260206004820152601c60248201527f43616c6c6572206973206e6f7420636f6e7472616374206f776e657200000000604482015290519081900360640190fd5b6001600160a01b03166000908152600160208190526040909120805460ff19169091179055565b60008054600160a01b900460ff16610b095760405162461bcd60e51b81526004018080602001828103825260258152602001806121d96025913960400191505060405180910390fd5b3360009081526001602081905260409091205460ff16151514610b61576040805162461bcd60e51b81526020600482015260186024820152600080516020612198833981519152604482015290519081900360640190fd5b506001600160a01b031660009081526002602052604090206001015490565b60008054600160a01b900460ff16610bc95760405162461bcd60e51b81526004018080602001828103825260258152602001806121d96025913960400191505060405180910390fd5b3360009081526001602081905260409091205460ff16151514610c21576040805162461bcd60e51b81526020600482015260186024820152600080516020612198833981519152604482015290519081900360640190fd5b506001600160a01b03166000908152600260208190526040909120015490565b600054600160a01b900460ff16610c895760405162461bcd60e51b81526004018080602001828103825260258152602001806121d96025913960400191505060405180910390fd5b3360009081526001602081905260409091205460ff16151514610ce1576040805162461bcd60e51b81526020600482015260186024820152600080516020612198833981519152604482015290519081900360640190fd5b6001600160a01b038116600090815260026020526040902060030154610d079084611d9a565b505060009081526004602081815260408084206001600160a01b03909616808552868352908420949094559081526001938401805494850181558252902090910180546001600160a01b0319169091179055565b33600090815260016020819052604082205460ff16151514610db2576040805162461bcd60e51b81526020600482015260186024820152600080516020612198833981519152604482015290519081900360640190fd5b506000805460ff60a01b1916600160a01b9215158302179081905560ff9190041690565b60008054600160a01b900460ff16610e1f5760405162461bcd60e51b81526004018080602001828103825260258152602001806121d96025913960400191505060405180910390fd5b3360009081526001602081905260409091205460ff16151514610e77576040805162461bcd60e51b81526020600482015260186024820152600080516020612198833981519152604482015290519081900360640190fd5b5060009081526003602052604090205460ff1690565b600054600160a01b900460ff16610ed55760405162461bcd60e51b81526004018080602001828103825260258152602001806121d96025913960400191505060405180910390fd5b6000546001600160a01b03163314610f34576040805162461bcd60e51b815260206004820152601c60248201527f43616c6c6572206973206e6f7420636f6e7472616374206f776e657200000000604482015290519081900360640190fd5b6001600160a01b03166000908152600160205260409020805460ff19169055565b60065481565b600054600160a01b900460ff16610fa35760405162461bcd60e51b81526004018080602001828103825260258152602001806121d96025913960400191505060405180910390fd5b3360009081526001602081905260409091205460ff16151514610ffb576040805162461bcd60e51b81526020600482015260186024820152600080516020612198833981519152604482015290519081900360640190fd5b6001600160a01b038216600090815260056020526040902054829082908111156110565760405162461bcd60e51b81526004018080602001828103825260228152602001806121556022913960400191505060405180910390fd5b6001600160a01b0384166000908152600560205260409020546110799084611dfb565b6001600160a01b038516600081815260056020526040808220939093559151909185156108fc02918691818181858888f193505050501580156110c0573d6000803e3d6000fd5b5050505050565b60008054600160a01b900460ff166111105760405162461bcd60e51b81526004018080602001828103825260258152602001806121d96025913960400191505060405180910390fd5b3360009081526001602081905260409091205460ff16151514611168576040805162461bcd60e51b81526020600482015260186024820152600080516020612198833981519152604482015290519081900360640190fd5b5060009081526004602090815260408083206001600160a01b039490941683529290522054151590565b60008054600160a01b900460ff166111db5760405162461bcd60e51b81526004018080602001828103825260258152602001806121d96025913960400191505060405180910390fd5b3360009081526001602081905260409091205460ff16151514611233576040805162461bcd60e51b81526020600482015260186024820152600080516020612198833981519152604482015290519081900360640190fd5b506000908152600360208190526040909120015460ff1690565b600054600160a01b900460ff166112955760405162461bcd60e51b81526004018080602001828103825260258152602001806121d96025913960400191505060405180910390fd5b3360009081526001602081905260409091205460ff161515146112ed576040805162461bcd60e51b81526020600482015260186024820152600080516020612198833981519152604482015290519081900360640190fd5b600090815260036020819052604090912001805460ff191660ff92909216919091179055565b600054600160a01b900460ff1661135b5760405162461bcd60e51b81526004018080602001828103825260258152602001806121d96025913960400191505060405180910390fd5b3360009081526001602081905260409091205460ff161515146113b3576040805162461bcd60e51b81526020600482015260186024820152600080516020612198833981519152604482015290519081900360640190fd5b604080516080810182526001815281516000808252602082810190945291928301915081526000602080830182905260409283018290526001600160a01b0385168252600290522081518154829060ff1916600183600381111561141357fe5b02179055506020828101518051611430926001850192019061205e565b506040820151600282015560609091015160039091015550565b60008054600160a01b900460ff166114935760405162461bcd60e51b81526004018080602001828103825260258152602001806121d96025913960400191505060405180910390fd5b3360009081526001602081905260409091205460ff161515146114eb576040805162461bcd60e51b81526020600482015260186024820152600080516020612198833981519152604482015290519081900360640190fd5b6001600160a01b0382166000908152600260208190526040909120805460ff191682179055600680546001019055610893565b60008054600160a01b900460ff166115675760405162461bcd60e51b81526004018080602001828103825260258152602001806121d96025913960400191505060405180910390fd5b3360009081526001602081905260409091205460ff161515146115bf576040805162461bcd60e51b81526020600482015260186024820152600080516020612198833981519152604482015290519081900360640190fd5b506001600160a01b03918216600081815260026020908152604082206001908101805491820181558084529183200180546001600160a01b03191694909516939093179093559091525490565b600054600160a01b900460ff1690565b60008054600160a01b900460ff166116655760405162461bcd60e51b81526004018080602001828103825260258152602001806121d96025913960400191505060405180910390fd5b3360009081526001602081905260409091205460ff161515146116bd576040805162461bcd60e51b81526020600482015260186024820152600080516020612198833981519152604482015290519081900360640190fd5b5060009081526004602052604090206002015460ff1690565b60008054600160a01b900460ff1661171f5760405162461bcd60e51b81526004018080602001828103825260258152602001806121d96025913960400191505060405180910390fd5b3360009081526001602081905260409091205460ff16151514611777576040805162461bcd60e51b81526020600482015260186024820152600080516020612198833981519152604482015290519081900360640190fd5b6000611784868686611e3d565b6040805160a08101825260018082526001600160a01b038a811660208085019182528486018c8152606086018c905260ff8b1660808701526000888152600383529690962085518154935160ff1990941690151517610100600160a81b031916610100939094169290920292909217815593518051959650929461180f9392850192909101906120c3565b50606082015160028201556080909101516003918201805460ff191660ff92831617905560009283526020919091526040909120541695945050505050565b60008054600160a01b900460ff166118975760405162461bcd60e51b81526004018080602001828103825260258152602001806121d96025913960400191505060405180910390fd5b3360009081526001602081905260409091205460ff161515146118ef576040805162461bcd60e51b81526020600482015260186024820152600080516020612198833981519152604482015290519081900360640190fd5b506001600160a01b031660009081526005602052604090205490565b60008054600160a01b900460ff166119545760405162461bcd60e51b81526004018080602001828103825260258152602001806121d96025913960400191505060405180910390fd5b3360009081526001602081905260409091205460ff161515146119ac576040805162461bcd60e51b81526020600482015260186024820152600080516020612198833981519152604482015290519081900360640190fd5b6001600160a01b038316600090815260026020819052604090912001546119d39083611d9a565b6001600160a01b03939093166000908152600260208190526040909120908101849055805460ff191660031790555090919050565b60008054600160a01b900460ff16611a515760405162461bcd60e51b81526004018080602001828103825260258152602001806121d96025913960400191505060405180910390fd5b3360009081526001602081905260409091205460ff16151514611aa9576040805162461bcd60e51b81526020600482015260186024820152600080516020612198833981519152604482015290519081900360640190fd5b6003610893565b60008054600160a01b900460ff16611af95760405162461bcd60e51b81526004018080602001828103825260258152602001806121d96025913960400191505060405180910390fd5b3360009081526001602081905260409091205460ff16151514611b51576040805162461bcd60e51b81526020600482015260186024820152600080516020612198833981519152604482015290519081900360640190fd5b60016001600160a01b03831660009081526002602052604090205460ff166003811115611b7a57fe5b1480611b8857506002610862565b806108bc57506003610893565b600054600160a01b900460ff16611bdd5760405162461bcd60e51b81526004018080602001828103825260258152602001806121d96025913960400191505060405180910390fd5b3360009081526001602081905260409091205460ff16151514611c35576040805162461bcd60e51b81526020600482015260186024820152600080516020612198833981519152604482015290519081900360640190fd5b60008281526004602052604090206002015460ff1615611c865760405162461bcd60e51b81526004018080602001828103825260218152602001806121776021913960400191505060405180910390fd5b60005b600083815260046020526040902060010154811015611d7a576000838152600460205260408120600101805483908110611cbf57fe5b60009182526020808320909101548683526004825260408084206001600160a01b03909216808552919092529082205490925090611d096002611d03846003611ec7565b90611f20565b6001600160a01b038416600090815260056020526040902054909150611d2f9082611d9a565b6001600160a01b038085166000908152600560209081526040808320949094559188168152600291829052919091200154611d6a9082611dfb565b505060019092019150611c899050565b50506000908152600460205260409020600201805460ff19166001179055565b600082820183811015611df4576040805162461bcd60e51b815260206004820152601b60248201527f536166654d6174683a206164646974696f6e206f766572666c6f770000000000604482015290519081900360640190fd5b9392505050565b6000611df483836040518060400160405280601e81526020017f536166654d6174683a207375627472616374696f6e206f766572666c6f770000815250611f62565b600083838360405160200180846001600160a01b031660601b815260140183805190602001908083835b60208310611e865780518252601f199092019160209182019101611e67565b51815160209384036101000a600019018019909216911617905292019384525060408051808503815293820190528251920191909120979650505050505050565b600082611ed6575060006108bc565b82820282848281611ee357fe5b0414611df45760405162461bcd60e51b81526004018080602001828103825260218152602001806121b86021913960400191505060405180910390fd5b6000611df483836040518060400160405280601a81526020017f536166654d6174683a206469766973696f6e206279207a65726f000000000000815250611ff9565b60008184841115611ff15760405162461bcd60e51b81526004018080602001828103825283818151815260200191508051906020019080838360005b83811015611fb6578181015183820152602001611f9e565b50505050905090810190601f168015611fe35780820380516001836020036101000a031916815260200191505b509250505060405180910390fd5b505050900390565b600081836120485760405162461bcd60e51b8152602060048201818152835160248401528351909283926044909101919085019080838360008315611fb6578181015183820152602001611f9e565b50600083858161205457fe5b0495945050505050565b8280548282559060005260206000209081019282156120b3579160200282015b828111156120b357825182546001600160a01b0319166001600160a01b0390911617825560209092019160019091019061207e565b506120bf92915061213f565b5090565b828054600181600116156101000203166002900490600052602060002090601f0160209004810192826120f957600085556120b3565b82601f1061211257805160ff19168380011785556120b3565b828001600101855582156120b3579182015b828111156120b3578251825591602001919060010190612124565b5b808211156120bf576000815560010161214056fe5769746864726177616c2065786365656473206163636f756e742062616c616e6365466c6967687420696e737572616e636520616c72656164792070616964206f757443616c6c6572206973206e6f7420617574686f72697a65640000000000000000536166654d6174683a206d756c7469706c69636174696f6e206f766572666c6f77436f6e74726163742069732063757272656e746c79206e6f74206f7065726174696f6e616ca2646970667358221220d4daf646fc9d8435025fbe394b6e7f92774e40b5cc83ca637ab2a73b458cc8c464736f6c63430007060033",
  "immutableReferences": {},
  "source": "// SPDX-License-Identifier: MIT\n\npragma solidity ^0.7.6;\n\nimport \"./SafeMath.sol\";\n\ncontract FlightSuretyData {\n    using SafeMath for uint256;\n\n    /********************************************************************************************/\n    /*                                       CONTROL VARIABLES                                  */\n    /********************************************************************************************/\n\n    address private contractOwner; // Account used to deploy contract\n    bool private operational = true; // Blocks all state changes throughout the contract if false\n\n    mapping(address => bool) private authorizedCaller;\n\n    constructor() {\n        contractOwner = msg.sender;\n        authorizedCaller[contractOwner] = true; // add contractOwner as an authorized caller\n    }\n\n    /********************************************************************************************/\n    /*                                       FUNCTION MODIFIERS                                 */\n    /********************************************************************************************/\n\n    modifier requireIsOperational() {\n        require(operational, \"Contract is currently not operational\");\n        _; // All modifiers require an \"_\" which indicates where the function body will be added\n    }\n\n    modifier requireContractOwner() {\n        require(msg.sender == contractOwner, \"Caller is not contract owner\");\n        _;\n    }\n\n    modifier requireCallerAuthorized() {\n        require(\n            authorizedCaller[msg.sender] == true,\n            \"Caller is not authorized\"\n        );\n        _;\n    }\n    \n    modifier requireSufficientBalance(address account, uint256 amount) {\n        require(amount<=passengerBalance[account], \"Withdrawal exceeds account balance\");\n        _;\n    }\n\n    /********************************************************************************************/\n    /*                                       UTILITY FUNCTIONS                                  */\n    /********************************************************************************************/\n\n    function isOperational() external view returns (bool) {\n        return operational;\n    }\n\n    function setOperationalStatus(bool mode) external requireCallerAuthorized returns(bool) {\n        operational = mode;\n        return operational;\n    }\n\n    function authorizeCaller(address _address)\n        external\n        requireIsOperational\n        requireContractOwner\n    {\n        authorizedCaller[_address] = true;\n    }\n\n    function deauthorizeCaller(address _address)\n        external\n        requireIsOperational\n        requireContractOwner\n    {\n        delete authorizedCaller[_address];\n    }\n    \n    /********************************************************************************************/\n    /*                                     SMART CONTRACT VARIABLES                             */\n    /********************************************************************************************/\n    \n    // Mappings\n    mapping(address => Airline) private airlines;\n    mapping(bytes32 => Flight) private flights;\n    mapping(bytes32 => FlightInsurance) private flightInsurance;\n    mapping(address => uint256) private passengerBalance;\n\n    // Structs\n    struct Airline {\n        AirlineStatus status;\n        address[] votes;\n        uint256 funds;\n        uint256 underwrittenAmount;\n    }\n    \n    struct FlightInsurance {\n        mapping(address => uint256) purchasedAmount;\n        address[] passengers;\n        bool isPaidOut;\n    }\n    \n    struct Flight {\n        bool isRegistered;\n        address airline;\n        string flight;\n        uint256 departureTime;\n        uint8 statusCode;\n    }\n    \n    // State Variables\n    uint256 public registeredAirlineCount = 0;\n\n    // Enums\n    enum AirlineStatus {Nonmember, Nominated, Registered, Funded}\n    \n    AirlineStatus constant defaultStatus = AirlineStatus.Nonmember;\n\n    /********************************************************************************************/\n    /*                                     SMART CONTRACT FUNCTIONS                             */\n    /********************************************************************************************/\n\n    function numberAirlineVotes(address airlineAddress)\n        external\n        view\n        requireIsOperational\n        requireCallerAuthorized\n        returns (uint256)\n    {\n        return airlines[airlineAddress].votes.length;\n    }\n\n    function amountAirlineFunds(address airlineAddress)\n        external\n        view\n        requireIsOperational\n        requireCallerAuthorized\n        returns (uint256)\n    {\n        return airlines[airlineAddress].funds;\n    }\n\n    function isAirlineNominated(address airlineAddress)\n        external\n        view\n        requireIsOperational\n        requireCallerAuthorized\n        returns (bool)\n    {\n        return airlines[airlineAddress].status == AirlineStatus.Nominated || airlines[airlineAddress].status == AirlineStatus.Registered || airlines[airlineAddress].status == AirlineStatus.Funded;\n    }\n\n    function isAirlineRegistered(address airlineAddress)\n        external\n        view\n        requireIsOperational\n        requireCallerAuthorized\n        returns (bool)\n    {\n        return airlines[airlineAddress].status == AirlineStatus.Registered || airlines[airlineAddress].status == AirlineStatus.Funded;\n    }\n\n    function isAirlineFunded(address airlineAddress)\n        external\n        view\n        requireIsOperational\n        requireCallerAuthorized\n        returns (bool)\n    {\n        return airlines[airlineAddress].status == AirlineStatus.Funded;\n    }\n    \n    function airlineMembership(address airlineAddress)\n    external\n        view\n        requireIsOperational\n        returns (uint)\n    {\n        return uint(airlines[airlineAddress].status);\n    }\n\n    function nominateAirline(address airlineAddress)\n        external\n        requireIsOperational\n        requireCallerAuthorized\n    {\n        airlines[airlineAddress] = Airline(\n            AirlineStatus.Nominated, \n            new address[](0), // no votes\n            0, // default no funding\n            0 // no insurance underwritten \n        );\n    }\n\n    function registerAirline(address airlineAddress)\n        external\n        requireIsOperational\n        requireCallerAuthorized\n        returns (bool)\n    {\n        airlines[airlineAddress].status = AirlineStatus.Registered;\n        registeredAirlineCount++;\n        return airlines[airlineAddress].status == AirlineStatus.Registered;\n    }\n\n    function voteAirline(address airlineAddress, address voterAddress)\n        external\n        requireIsOperational\n        requireCallerAuthorized\n        returns (uint256)\n    {\n        airlines[airlineAddress].votes.push(voterAddress);\n        return airlines[airlineAddress].votes.length;\n    }\n\n    function fundAirline(address airlineAddress, uint256 fundingAmount)\n        external\n        requireIsOperational\n        requireCallerAuthorized\n        returns (uint256)\n    {\n        airlines[airlineAddress].funds = airlines[airlineAddress].funds.add(fundingAmount);\n        airlines[airlineAddress].status = AirlineStatus.Funded;\n        return airlines[airlineAddress].funds;\n    }\n\n    function registerFlight(\n        address airline,\n        string memory flight,\n        uint256 departureTime,\n        uint8 statusCode\n    ) external requireIsOperational requireCallerAuthorized returns(bool) {\n        bytes32 key = getFlightKey(airline, flight, departureTime);\n        flights[key] = Flight({\n           isRegistered: true,\n           airline: airline,\n           flight: flight,\n           departureTime: departureTime,\n           statusCode: statusCode\n        });\n        return flights[key].isRegistered;\n    }\n\n    function updateFlightStatus(\n        uint8 statusCode,\n        bytes32 flightKey\n    ) external requireIsOperational requireCallerAuthorized {\n        flights[flightKey].statusCode = statusCode;\n    }\n\n    function isFlightRegistered(\n        bytes32 flightKey\n    ) external view requireIsOperational requireCallerAuthorized returns (bool) {\n        return flights[flightKey].isRegistered;\n    }\n\n    function getFlightStatus(\n        bytes32 flightKey\n    ) external view requireIsOperational requireCallerAuthorized returns (uint8) {\n        return flights[flightKey].statusCode;\n    }\n\n    function totalUnderwritten(address airlineAddress) external view requireIsOperational requireCallerAuthorized \n        returns(uint256)\n    {\n        return airlines[airlineAddress].underwrittenAmount;\n    }\n\n\n    function buyInsurance(address passengerAddress, uint256 insuranceAmount, bytes32 flightKey, address airlineAddress) external\n        requireIsOperational\n        requireCallerAuthorized\n    {\n        airlines[airlineAddress].underwrittenAmount.add(insuranceAmount);\n        flightInsurance[flightKey].purchasedAmount[passengerAddress] = insuranceAmount;\n        flightInsurance[flightKey].passengers.push(passengerAddress);\n    }\n    \n    function isPassengerInsured(address passengerAddress, bytes32 flightKey) \n        external view \n        requireIsOperational\n        requireCallerAuthorized\n        returns(bool)\n    {\n        return flightInsurance[flightKey].purchasedAmount[passengerAddress] > 0;\n    }\n    \n    function isPaidOut(bytes32 flightKey) external view\n        requireIsOperational\n        requireCallerAuthorized\n        returns(bool)\n    {\n        return flightInsurance[flightKey].isPaidOut;\n    }\n    \n    function currentPassengerBalance(address passengerAddress) external view\n        requireIsOperational\n        requireCallerAuthorized\n        returns(uint256)\n    {\n        return passengerBalance[passengerAddress];\n    }\n\n    function creditInsurees(bytes32 flightKey, address airlineAddress) external \n        requireIsOperational\n        requireCallerAuthorized\n    {\n        require(!flightInsurance[flightKey].isPaidOut,\"Flight insurance already paid out\");\n        for(uint i = 0; i < flightInsurance[flightKey].passengers.length; i++) {\n            address passengerAddress = flightInsurance[flightKey].passengers[i];\n            uint256 purchasedAmount = flightInsurance[flightKey].purchasedAmount[passengerAddress];\n            uint256 payoutAmount = purchasedAmount.mul(3).div(2);\n            passengerBalance[passengerAddress] = passengerBalance[passengerAddress].add(payoutAmount);\n            airlines[airlineAddress].funds.sub(payoutAmount);\n        }\n        flightInsurance[flightKey].isPaidOut = true;\n    }\n\n    function payPassenger(address payable insured, uint256 amount) external         \n        requireIsOperational\n        requireCallerAuthorized\n        requireSufficientBalance(insured, amount) // this is business logic, but makes sense to hard code in the data contract\n    {\n         passengerBalance[insured] = passengerBalance[insured].sub(amount);\n         insured.transfer(amount);\n    }\n\n\n    function getFlightKey(\n        address airline,\n        string memory flight,\n        uint256 departureTime\n    ) internal pure returns (bytes32) {\n        return keccak256(abi.encodePacked(airline, flight, departureTime));\n    }\n\n    fallback()  external payable requireCallerAuthorized {\n        // funds the contract\n    }\n    \n    receive() external payable {\n        // custom function code\n    }\n}\n",
  "sourcePath": "/Users/galen/code/udacity/udacity-blockchain-developer/project4/contracts/FlightSuretyData.sol",
  "compiler": {
    "name": "solc",
    "version": "0.7.6+commit.7338295f.Emscripten.clang"
  },
  "schemaVersion": "3.3.2",
  "updatedAt": "2021-02-06T23:31:07.968Z",
  "networkType": "ethereum",
  "devdoc": {
    "kind": "dev",
    "methods": {},
    "version": 1
  },
  "userdoc": {
    "kind": "user",
    "methods": {},
    "version": 1
  }
}