{
  "contractName": "FlightSuretyData",
  "abi": [
    {
      "inputs": [],
      "payable": false,
      "stateMutability": "nonpayable",
      "type": "constructor"
    },
    {
      "payable": true,
      "stateMutability": "payable",
      "type": "fallback"
    },
    {
      "constant": true,
      "inputs": [],
      "name": "isOperational",
      "outputs": [
        {
          "name": "",
          "type": "bool"
        }
      ],
      "payable": false,
      "stateMutability": "view",
      "type": "function"
    },
    {
      "constant": false,
      "inputs": [
        {
          "name": "mode",
          "type": "bool"
        }
      ],
      "name": "setOperatingStatus",
      "outputs": [],
      "payable": false,
      "stateMutability": "nonpayable",
      "type": "function"
    },
    {
      "constant": false,
      "inputs": [
        {
          "name": "_address",
          "type": "address"
        }
      ],
      "name": "authorizeCaller",
      "outputs": [],
      "payable": false,
      "stateMutability": "nonpayable",
      "type": "function"
    },
    {
      "constant": false,
      "inputs": [
        {
          "name": "_address",
          "type": "address"
        }
      ],
      "name": "deauthorizeCaller",
      "outputs": [],
      "payable": false,
      "stateMutability": "nonpayable",
      "type": "function"
    },
    {
      "constant": true,
      "inputs": [],
      "name": "registeredAirlineCount",
      "outputs": [
        {
          "name": "",
          "type": "uint256"
        }
      ],
      "payable": false,
      "stateMutability": "view",
      "type": "function"
    },
    {
      "constant": true,
      "inputs": [
        {
          "name": "airlineAddress",
          "type": "address"
        }
      ],
      "name": "numberAirlineVotes",
      "outputs": [
        {
          "name": "",
          "type": "uint256"
        }
      ],
      "payable": false,
      "stateMutability": "view",
      "type": "function"
    },
    {
      "constant": true,
      "inputs": [
        {
          "name": "airlineAddress",
          "type": "address"
        }
      ],
      "name": "amountAirlineFunds",
      "outputs": [
        {
          "name": "",
          "type": "uint256"
        }
      ],
      "payable": false,
      "stateMutability": "view",
      "type": "function"
    },
    {
      "constant": true,
      "inputs": [
        {
          "name": "airlineAddress",
          "type": "address"
        }
      ],
      "name": "isAirlineNominated",
      "outputs": [
        {
          "name": "",
          "type": "bool"
        }
      ],
      "payable": false,
      "stateMutability": "view",
      "type": "function"
    },
    {
      "constant": true,
      "inputs": [
        {
          "name": "airlineAddress",
          "type": "address"
        }
      ],
      "name": "isAirlineRegistered",
      "outputs": [
        {
          "name": "",
          "type": "bool"
        }
      ],
      "payable": false,
      "stateMutability": "view",
      "type": "function"
    },
    {
      "constant": true,
      "inputs": [
        {
          "name": "airlineAddress",
          "type": "address"
        }
      ],
      "name": "isAirlineFunded",
      "outputs": [
        {
          "name": "",
          "type": "bool"
        }
      ],
      "payable": false,
      "stateMutability": "view",
      "type": "function"
    },
    {
      "constant": false,
      "inputs": [
        {
          "name": "airlineAddress",
          "type": "address"
        }
      ],
      "name": "nominateAirline",
      "outputs": [],
      "payable": false,
      "stateMutability": "nonpayable",
      "type": "function"
    },
    {
      "constant": false,
      "inputs": [
        {
          "name": "airlineAddress",
          "type": "address"
        }
      ],
      "name": "registerAirline",
      "outputs": [
        {
          "name": "",
          "type": "bool"
        }
      ],
      "payable": false,
      "stateMutability": "nonpayable",
      "type": "function"
    },
    {
      "constant": false,
      "inputs": [
        {
          "name": "airlineAddress",
          "type": "address"
        },
        {
          "name": "voterAddress",
          "type": "address"
        }
      ],
      "name": "voteAirline",
      "outputs": [
        {
          "name": "",
          "type": "uint256"
        }
      ],
      "payable": false,
      "stateMutability": "nonpayable",
      "type": "function"
    },
    {
      "constant": false,
      "inputs": [
        {
          "name": "airlineAddress",
          "type": "address"
        },
        {
          "name": "fundingAmount",
          "type": "uint256"
        }
      ],
      "name": "fundAirline",
      "outputs": [
        {
          "name": "",
          "type": "uint256"
        }
      ],
      "payable": false,
      "stateMutability": "nonpayable",
      "type": "function"
    },
    {
      "constant": false,
      "inputs": [
        {
          "name": "airline",
          "type": "address"
        },
        {
          "name": "flight",
          "type": "string"
        },
        {
          "name": "departureTime",
          "type": "uint256"
        },
        {
          "name": "statusCode",
          "type": "uint8"
        }
      ],
      "name": "registerFlight",
      "outputs": [],
      "payable": false,
      "stateMutability": "nonpayable",
      "type": "function"
    },
    {
      "constant": false,
      "inputs": [
        {
          "name": "statusCode",
          "type": "uint8"
        },
        {
          "name": "flightKey",
          "type": "bytes32"
        }
      ],
      "name": "updateFlightStatus",
      "outputs": [],
      "payable": false,
      "stateMutability": "nonpayable",
      "type": "function"
    },
    {
      "constant": true,
      "inputs": [
        {
          "name": "flightKey",
          "type": "bytes32"
        }
      ],
      "name": "isFlightRegistered",
      "outputs": [
        {
          "name": "",
          "type": "bool"
        }
      ],
      "payable": false,
      "stateMutability": "view",
      "type": "function"
    },
    {
      "constant": false,
      "inputs": [
        {
          "name": "passengerAddress",
          "type": "address"
        },
        {
          "name": "insuranceAmount",
          "type": "uint256"
        },
        {
          "name": "flightKey",
          "type": "bytes32"
        }
      ],
      "name": "buyInsurance",
      "outputs": [],
      "payable": false,
      "stateMutability": "nonpayable",
      "type": "function"
    },
    {
      "constant": false,
      "inputs": [
        {
          "name": "flightKey",
          "type": "bytes32"
        }
      ],
      "name": "creditInsurees",
      "outputs": [],
      "payable": false,
      "stateMutability": "nonpayable",
      "type": "function"
    },
    {
      "constant": true,
      "inputs": [],
      "name": "pay",
      "outputs": [],
      "payable": false,
      "stateMutability": "pure",
      "type": "function"
    },
    {
      "constant": false,
      "inputs": [],
      "name": "fund",
      "outputs": [],
      "payable": true,
      "stateMutability": "payable",
      "type": "function"
    }
  ],
  "bytecode": "0x60806040526001600060146101000a81548160ff021916908315150217905550600060035534801561003057600080fd5b50336000806101000a81548173ffffffffffffffffffffffffffffffffffffffff021916908373ffffffffffffffffffffffffffffffffffffffff16021790555060018060008060009054906101000a900473ffffffffffffffffffffffffffffffffffffffff1673ffffffffffffffffffffffffffffffffffffffff1673ffffffffffffffffffffffffffffffffffffffff16815260200190815260200160002060006101000a81548160ff021916908315150217905550612e91806100f86000396000f30060806040526004361061011d576000357c0100000000000000000000000000000000000000000000000000000000900463ffffffff168063010c5c9714610127578063110466ed146101825780631b9265b8146101b15780632c388d5d146101c85780633adf611e1461020b57806340903e391461026257806358ac36a3146102b95780636873c21d146103025780636958f6a9146103455780636c09b178146103a05780638af8c8bc146103cb5780639762829514610409578063b60d42881461044c578063bdfd987714610456578063c5323de5146104b1578063cc2f6eba14610528578063cd905dff14610559578063d9d4122614610588578063f1a81e72146105fa578063f53b6d651461065b578063ff506533146106b6575b610125610711565b005b34801561013357600080fd5b50610168600480360381019080803573ffffffffffffffffffffffffffffffffffffffff169060200190929190505050610713565b604051808215151515815260200191505060405180910390f35b34801561018e57600080fd5b506101af6004803603810190808035151590602001909291905050506108f6565b005b3480156101bd57600080fd5b506101c66109d7565b005b3480156101d457600080fd5b50610209600480360381019080803573ffffffffffffffffffffffffffffffffffffffff1690602001909291905050506109d9565b005b34801561021757600080fd5b5061024c600480360381019080803573ffffffffffffffffffffffffffffffffffffffff169060200190929190505050610ba1565b6040518082815260200191505060405180910390f35b34801561026e57600080fd5b506102a3600480360381019080803573ffffffffffffffffffffffffffffffffffffffff169060200190929190505050610d61565b6040518082815260200191505060405180910390f35b3480156102c557600080fd5b506102e86004803603810190808035600019169060200190929190505050610f1e565b604051808215151515815260200191505060405180910390f35b34801561030e57600080fd5b50610343600480360381019080803573ffffffffffffffffffffffffffffffffffffffff1690602001909291905050506110c4565b005b34801561035157600080fd5b5061039e600480360381019080803573ffffffffffffffffffffffffffffffffffffffff169060200190929190803590602001909291908035600019169060200190929190505050611284565b005b3480156103ac57600080fd5b506103b561150e565b6040518082815260200191505060405180910390f35b3480156103d757600080fd5b50610407600480360381019080803560ff1690602001909291908035600019169060200190929190505050611689565b005b34801561041557600080fd5b5061044a600480360381019080803573ffffffffffffffffffffffffffffffffffffffff169060200190929190505050611836565b005b610454610711565b005b34801561046257600080fd5b50610497600480360381019080803573ffffffffffffffffffffffffffffffffffffffff169060200190929190505050611a96565b604051808215151515815260200191505060405180910390f35b3480156104bd57600080fd5b50610512600480360381019080803573ffffffffffffffffffffffffffffffffffffffff169060200190929190803573ffffffffffffffffffffffffffffffffffffffff169060200190929190505050611cef565b6040518082815260200191505060405180910390f35b34801561053457600080fd5b506105576004803603810190808035600019169060200190929190505050611f56565b005b34801561056557600080fd5b5061056e6121c5565b604051808215151515815260200191505060405180910390f35b34801561059457600080fd5b506105f8600480360381019080803573ffffffffffffffffffffffffffffffffffffffff16906020019092919080359060200190820180359060200191909192939192939080359060200190929190803560ff1690602001909291905050506121db565b005b34801561060657600080fd5b50610645600480360381019080803573ffffffffffffffffffffffffffffffffffffffff1690602001909291908035906020019092919050505061252a565b6040518082815260200191505060405180910390f35b34801561066757600080fd5b5061069c600480360381019080803573ffffffffffffffffffffffffffffffffffffffff16906020019092919050505061279b565b604051808215151515815260200191505060405180910390f35b3480156106c257600080fd5b506106f7600480360381019080803573ffffffffffffffffffffffffffffffffffffffff16906020019092919050505061297d565b604051808215151515815260200191505060405180910390f35b565b60008060149054906101000a900460ff1615156107be576040517f08c379a00000000000000000000000000000000000000000000000000000000081526004018080602001828103825260258152602001807f436f6e74726163742069732063757272656e746c79206e6f74206f706572617481526020017f696f6e616c00000000000000000000000000000000000000000000000000000081525060400191505060405180910390fd5b60011515600160003373ffffffffffffffffffffffffffffffffffffffff1673ffffffffffffffffffffffffffffffffffffffff16815260200190815260200160002060009054906101000a900460ff161515141515610886576040517f08c379a00000000000000000000000000000000000000000000000000000000081526004018080602001828103825260188152602001807f43616c6c6572206973206e6f7420617574686f72697a6564000000000000000081525060200191505060405180910390fd5b6001600281111561089357fe5b600260008473ffffffffffffffffffffffffffffffffffffffff1673ffffffffffffffffffffffffffffffffffffffff16815260200190815260200160002060000160009054906101000a900460ff1660028111156108ee57fe5b149050919050565b6000809054906101000a900473ffffffffffffffffffffffffffffffffffffffff1673ffffffffffffffffffffffffffffffffffffffff163373ffffffffffffffffffffffffffffffffffffffff161415156109ba576040517f08c379a000000000000000000000000000000000000000000000000000000000815260040180806020018281038252601c8152602001807f43616c6c6572206973206e6f7420636f6e7472616374206f776e65720000000081525060200191505060405180910390fd5b80600060146101000a81548160ff02191690831515021790555050565b565b600060149054906101000a900460ff161515610a83576040517f08c379a00000000000000000000000000000000000000000000000000000000081526004018080602001828103825260258152602001807f436f6e74726163742069732063757272656e746c79206e6f74206f706572617481526020017f696f6e616c00000000000000000000000000000000000000000000000000000081525060400191505060405180910390fd5b6000809054906101000a900473ffffffffffffffffffffffffffffffffffffffff1673ffffffffffffffffffffffffffffffffffffffff163373ffffffffffffffffffffffffffffffffffffffff16141515610b47576040517f08c379a000000000000000000000000000000000000000000000000000000000815260040180806020018281038252601c8152602001807f43616c6c6572206973206e6f7420636f6e7472616374206f776e65720000000081525060200191505060405180910390fd5b60018060008373ffffffffffffffffffffffffffffffffffffffff1673ffffffffffffffffffffffffffffffffffffffff16815260200190815260200160002060006101000a81548160ff02191690831515021790555050565b60008060149054906101000a900460ff161515610c4c576040517f08c379a00000000000000000000000000000000000000000000000000000000081526004018080602001828103825260258152602001807f436f6e74726163742069732063757272656e746c79206e6f74206f706572617481526020017f696f6e616c00000000000000000000000000000000000000000000000000000081525060400191505060405180910390fd5b60011515600160003373ffffffffffffffffffffffffffffffffffffffff1673ffffffffffffffffffffffffffffffffffffffff16815260200190815260200160002060009054906101000a900460ff161515141515610d14576040517f08c379a00000000000000000000000000000000000000000000000000000000081526004018080602001828103825260188152602001807f43616c6c6572206973206e6f7420617574686f72697a6564000000000000000081525060200191505060405180910390fd5b600260008373ffffffffffffffffffffffffffffffffffffffff1673ffffffffffffffffffffffffffffffffffffffff168152602001908152602001600020600101805490509050919050565b60008060149054906101000a900460ff161515610e0c576040517f08c379a00000000000000000000000000000000000000000000000000000000081526004018080602001828103825260258152602001807f436f6e74726163742069732063757272656e746c79206e6f74206f706572617481526020017f696f6e616c00000000000000000000000000000000000000000000000000000081525060400191505060405180910390fd5b60011515600160003373ffffffffffffffffffffffffffffffffffffffff1673ffffffffffffffffffffffffffffffffffffffff16815260200190815260200160002060009054906101000a900460ff161515141515610ed4576040517f08c379a00000000000000000000000000000000000000000000000000000000081526004018080602001828103825260188152602001807f43616c6c6572206973206e6f7420617574686f72697a6564000000000000000081525060200191505060405180910390fd5b600260008373ffffffffffffffffffffffffffffffffffffffff1673ffffffffffffffffffffffffffffffffffffffff168152602001908152602001600020600201549050919050565b60008060149054906101000a900460ff161515610fc9576040517f08c379a00000000000000000000000000000000000000000000000000000000081526004018080602001828103825260258152602001807f436f6e74726163742069732063757272656e746c79206e6f74206f706572617481526020017f696f6e616c00000000000000000000000000000000000000000000000000000081525060400191505060405180910390fd5b60011515600160003373ffffffffffffffffffffffffffffffffffffffff1673ffffffffffffffffffffffffffffffffffffffff16815260200190815260200160002060009054906101000a900460ff161515141515611091576040517f08c379a00000000000000000000000000000000000000000000000000000000081526004018080602001828103825260188152602001807f43616c6c6572206973206e6f7420617574686f72697a6564000000000000000081525060200191505060405180910390fd5b60046000836000191660001916815260200190815260200160002060000160009054906101000a900460ff169050919050565b600060149054906101000a900460ff16151561116e576040517f08c379a00000000000000000000000000000000000000000000000000000000081526004018080602001828103825260258152602001807f436f6e74726163742069732063757272656e746c79206e6f74206f706572617481526020017f696f6e616c00000000000000000000000000000000000000000000000000000081525060400191505060405180910390fd5b6000809054906101000a900473ffffffffffffffffffffffffffffffffffffffff1673ffffffffffffffffffffffffffffffffffffffff163373ffffffffffffffffffffffffffffffffffffffff16141515611232576040517f08c379a000000000000000000000000000000000000000000000000000000000815260040180806020018281038252601c8152602001807f43616c6c6572206973206e6f7420636f6e7472616374206f776e65720000000081525060200191505060405180910390fd5b600160008273ffffffffffffffffffffffffffffffffffffffff1673ffffffffffffffffffffffffffffffffffffffff16815260200190815260200160002060006101000a81549060ff021916905550565b61128c612c85565b600060149054906101000a900460ff161515611336576040517f08c379a00000000000000000000000000000000000000000000000000000000081526004018080602001828103825260258152602001807f436f6e74726163742069732063757272656e746c79206e6f74206f706572617481526020017f696f6e616c00000000000000000000000000000000000000000000000000000081525060400191505060405180910390fd5b60011515600160003373ffffffffffffffffffffffffffffffffffffffff1673ffffffffffffffffffffffffffffffffffffffff16815260200190815260200160002060009054906101000a900460ff1615151415156113fe576040517f08c379a00000000000000000000000000000000000000000000000000000000081526004018080602001828103825260188152602001807f43616c6c6572206973206e6f7420617574686f72697a6564000000000000000081525060200191505060405180910390fd5b6004600083600019166000191681526020019081526020016000206004018490806001815401808255809150509060018203906000526020600020016000909192909190916101000a81548173ffffffffffffffffffffffffffffffffffffffff021916908373ffffffffffffffffffffffffffffffffffffffff1602179055505082816000018181525050600081602001901515908115158152505080600560008673ffffffffffffffffffffffffffffffffffffffff1673ffffffffffffffffffffffffffffffffffffffff1681526020019081526020016000206000820151816000015560208201518160010160006101000a81548160ff02191690831515021790555090505050505050565b60008060149054906101000a900460ff1615156115b9576040517f08c379a00000000000000000000000000000000000000000000000000000000081526004018080602001828103825260258152602001807f436f6e74726163742069732063757272656e746c79206e6f74206f706572617481526020017f696f6e616c00000000000000000000000000000000000000000000000000000081525060400191505060405180910390fd5b60011515600160003373ffffffffffffffffffffffffffffffffffffffff1673ffffffffffffffffffffffffffffffffffffffff16815260200190815260200160002060009054906101000a900460ff161515141515611681576040517f08c379a00000000000000000000000000000000000000000000000000000000081526004018080602001828103825260188152602001807f43616c6c6572206973206e6f7420617574686f72697a6564000000000000000081525060200191505060405180910390fd5b600354905090565b600060149054906101000a900460ff161515611733576040517f08c379a00000000000000000000000000000000000000000000000000000000081526004018080602001828103825260258152602001807f436f6e74726163742069732063757272656e746c79206e6f74206f706572617481526020017f696f6e616c00000000000000000000000000000000000000000000000000000081525060400191505060405180910390fd5b60011515600160003373ffffffffffffffffffffffffffffffffffffffff1673ffffffffffffffffffffffffffffffffffffffff16815260200190815260200160002060009054906101000a900460ff1615151415156117fb576040517f08c379a00000000000000000000000000000000000000000000000000000000081526004018080602001828103825260188152602001807f43616c6c6572206973206e6f7420617574686f72697a6564000000000000000081525060200191505060405180910390fd5b8160046000836000191660001916815260200190815260200160002060030160006101000a81548160ff021916908360ff1602179055505050565b600060149054906101000a900460ff1615156118e0576040517f08c379a00000000000000000000000000000000000000000000000000000000081526004018080602001828103825260258152602001807f436f6e74726163742069732063757272656e746c79206e6f74206f706572617481526020017f696f6e616c00000000000000000000000000000000000000000000000000000081525060400191505060405180910390fd5b60011515600160003373ffffffffffffffffffffffffffffffffffffffff1673ffffffffffffffffffffffffffffffffffffffff16815260200190815260200160002060009054906101000a900460ff1615151415156119a8576040517f08c379a00000000000000000000000000000000000000000000000000000000081526004018080602001828103825260188152602001807f43616c6c6572206973206e6f7420617574686f72697a6564000000000000000081525060200191505060405180910390fd5b606060405190810160405280600060028111156119c157fe5b815260200160006040519080825280602002602001820160405280156119f65781602001602082028038833980820191505090505b5081526020016000815250600260008373ffffffffffffffffffffffffffffffffffffffff1673ffffffffffffffffffffffffffffffffffffffff16815260200190815260200160002060008201518160000160006101000a81548160ff02191690836002811115611a6457fe5b02179055506020820151816001019080519060200190611a85929190612ca1565b506040820151816002015590505050565b60008060149054906101000a900460ff161515611b41576040517f08c379a00000000000000000000000000000000000000000000000000000000081526004018080602001828103825260258152602001807f436f6e74726163742069732063757272656e746c79206e6f74206f706572617481526020017f696f6e616c00000000000000000000000000000000000000000000000000000081525060400191505060405180910390fd5b60011515600160003373ffffffffffffffffffffffffffffffffffffffff1673ffffffffffffffffffffffffffffffffffffffff16815260200190815260200160002060009054906101000a900460ff161515141515611c09576040517f08c379a00000000000000000000000000000000000000000000000000000000081526004018080602001828103825260188152602001807f43616c6c6572206973206e6f7420617574686f72697a6564000000000000000081525060200191505060405180910390fd5b6001600260008473ffffffffffffffffffffffffffffffffffffffff1673ffffffffffffffffffffffffffffffffffffffff16815260200190815260200160002060000160006101000a81548160ff02191690836002811115611c6857fe5b021790555060036000815480929190600101919050555060016002811115611c8c57fe5b600260008473ffffffffffffffffffffffffffffffffffffffff1673ffffffffffffffffffffffffffffffffffffffff16815260200190815260200160002060000160009054906101000a900460ff166002811115611ce757fe5b149050919050565b60008060149054906101000a900460ff161515611d9a576040517f08c379a00000000000000000000000000000000000000000000000000000000081526004018080602001828103825260258152602001807f436f6e74726163742069732063757272656e746c79206e6f74206f706572617481526020017f696f6e616c00000000000000000000000000000000000000000000000000000081525060400191505060405180910390fd5b60011515600160003373ffffffffffffffffffffffffffffffffffffffff1673ffffffffffffffffffffffffffffffffffffffff16815260200190815260200160002060009054906101000a900460ff161515141515611e62576040517f08c379a00000000000000000000000000000000000000000000000000000000081526004018080602001828103825260188152602001807f43616c6c6572206973206e6f7420617574686f72697a6564000000000000000081525060200191505060405180910390fd5b600260008473ffffffffffffffffffffffffffffffffffffffff1673ffffffffffffffffffffffffffffffffffffffff1681526020019081526020016000206001018290806001815401808255809150509060018203906000526020600020016000909192909190916101000a81548173ffffffffffffffffffffffffffffffffffffffff021916908373ffffffffffffffffffffffffffffffffffffffff16021790555050600260008473ffffffffffffffffffffffffffffffffffffffff1673ffffffffffffffffffffffffffffffffffffffff16815260200190815260200160002060010180549050905092915050565b600080600060149054906101000a900460ff161515612003576040517f08c379a00000000000000000000000000000000000000000000000000000000081526004018080602001828103825260258152602001807f436f6e74726163742069732063757272656e746c79206e6f74206f706572617481526020017f696f6e616c00000000000000000000000000000000000000000000000000000081525060400191505060405180910390fd5b60011515600160003373ffffffffffffffffffffffffffffffffffffffff1673ffffffffffffffffffffffffffffffffffffffff16815260200190815260200160002060009054906101000a900460ff1615151415156120cb576040517f08c379a00000000000000000000000000000000000000000000000000000000081526004018080602001828103825260188152602001807f43616c6c6572206973206e6f7420617574686f72697a6564000000000000000081525060200191505060405180910390fd5b600091505b600460008460001916600019168152602001908152602001600020600401805490508260ff161115156121c0576004600084600019166000191681526020019081526020016000206004018260ff1681548110151561212b57fe5b9060005260206000200160009054906101000a900473ffffffffffffffffffffffffffffffffffffffff1690506001600560008373ffffffffffffffffffffffffffffffffffffffff1673ffffffffffffffffffffffffffffffffffffffff16815260200190815260200160002060010160006101000a81548160ff02191690831515021790555081806001019250506120d0565b505050565b60008060149054906101000a900460ff16905090565b60006121e5612d2b565b600060149054906101000a900460ff16151561228f576040517f08c379a00000000000000000000000000000000000000000000000000000000081526004018080602001828103825260258152602001807f436f6e74726163742069732063757272656e746c79206e6f74206f706572617481526020017f696f6e616c00000000000000000000000000000000000000000000000000000081525060400191505060405180910390fd5b60011515600160003373ffffffffffffffffffffffffffffffffffffffff1673ffffffffffffffffffffffffffffffffffffffff16815260200190815260200160002060009054906101000a900460ff161515141515612357576040517f08c379a00000000000000000000000000000000000000000000000000000000081526004018080602001828103825260188152602001807f43616c6c6572206973206e6f7420617574686f72697a6564000000000000000081525060200191505060405180910390fd5b6123948787878080601f01602080910402602001604051908101604052809392919081815260200183838082843782019150505050505086612b60565b9150600181600001901515908115158152505086816020019073ffffffffffffffffffffffffffffffffffffffff16908173ffffffffffffffffffffffffffffffffffffffff168152505085858080601f01602080910402602001604051908101604052809392919081815260200183838082843782019150505050505081604001819052508381606001818152505082816080019060ff16908160ff16815250508060046000846000191660001916815260200190815260200160002060008201518160000160006101000a81548160ff02191690831515021790555060208201518160000160016101000a81548173ffffffffffffffffffffffffffffffffffffffff021916908373ffffffffffffffffffffffffffffffffffffffff16021790555060408201518160010190805190602001906124d5929190612d7d565b506060820151816002015560808201518160030160006101000a81548160ff021916908360ff16021790555060a082015181600401908051906020019061251d929190612ca1565b5090505050505050505050565b60008060149054906101000a900460ff1615156125d5576040517f08c379a00000000000000000000000000000000000000000000000000000000081526004018080602001828103825260258152602001807f436f6e74726163742069732063757272656e746c79206e6f74206f706572617481526020017f696f6e616c00000000000000000000000000000000000000000000000000000081525060400191505060405180910390fd5b60011515600160003373ffffffffffffffffffffffffffffffffffffffff1673ffffffffffffffffffffffffffffffffffffffff16815260200190815260200160002060009054906101000a900460ff16151514151561269d576040517f08c379a00000000000000000000000000000000000000000000000000000000081526004018080602001828103825260188152602001807f43616c6c6572206973206e6f7420617574686f72697a6564000000000000000081525060200191505060405180910390fd5b81600260008573ffffffffffffffffffffffffffffffffffffffff1673ffffffffffffffffffffffffffffffffffffffff1681526020019081526020016000206002016000828254019250508190555060028060008573ffffffffffffffffffffffffffffffffffffffff1673ffffffffffffffffffffffffffffffffffffffff16815260200190815260200160002060000160006101000a81548160ff0219169083600281111561274b57fe5b0217905550600260008473ffffffffffffffffffffffffffffffffffffffff1673ffffffffffffffffffffffffffffffffffffffff16815260200190815260200160002060020154905092915050565b60008060149054906101000a900460ff161515612846576040517f08c379a00000000000000000000000000000000000000000000000000000000081526004018080602001828103825260258152602001807f436f6e74726163742069732063757272656e746c79206e6f74206f706572617481526020017f696f6e616c00000000000000000000000000000000000000000000000000000081525060400191505060405180910390fd5b60011515600160003373ffffffffffffffffffffffffffffffffffffffff1673ffffffffffffffffffffffffffffffffffffffff16815260200190815260200160002060009054906101000a900460ff16151514151561290e576040517f08c379a00000000000000000000000000000000000000000000000000000000081526004018080602001828103825260188152602001807f43616c6c6572206973206e6f7420617574686f72697a6564000000000000000081525060200191505060405180910390fd5b60028081111561291a57fe5b600260008473ffffffffffffffffffffffffffffffffffffffff1673ffffffffffffffffffffffffffffffffffffffff16815260200190815260200160002060000160009054906101000a900460ff16600281111561297557fe5b149050919050565b60008060149054906101000a900460ff161515612a28576040517f08c379a00000000000000000000000000000000000000000000000000000000081526004018080602001828103825260258152602001807f436f6e74726163742069732063757272656e746c79206e6f74206f706572617481526020017f696f6e616c00000000000000000000000000000000000000000000000000000081525060400191505060405180910390fd5b60011515600160003373ffffffffffffffffffffffffffffffffffffffff1673ffffffffffffffffffffffffffffffffffffffff16815260200190815260200160002060009054906101000a900460ff161515141515612af0576040517f08c379a00000000000000000000000000000000000000000000000000000000081526004018080602001828103825260188152602001807f43616c6c6572206973206e6f7420617574686f72697a6564000000000000000081525060200191505060405180910390fd5b60006002811115612afd57fe5b600260008473ffffffffffffffffffffffffffffffffffffffff1673ffffffffffffffffffffffffffffffffffffffff16815260200190815260200160002060000160009054906101000a900460ff166002811115612b5857fe5b149050919050565b6000838383604051602001808473ffffffffffffffffffffffffffffffffffffffff1673ffffffffffffffffffffffffffffffffffffffff166c0100000000000000000000000002815260140183805190602001908083835b602083101515612bde5780518252602082019150602081019050602083039250612bb9565b6001836020036101000a03801982511681845116808217855250505050505090500182815260200193505050506040516020818303038152906040526040518082805190602001908083835b602083101515612c4f5780518252602082019150602081019050602083039250612c2a565b6001836020036101000a038019825116818451168082178552505050505050905001915050604051809103902090509392505050565b6040805190810160405280600081526020016000151581525090565b828054828255906000526020600020908101928215612d1a579160200282015b82811115612d195782518260006101000a81548173ffffffffffffffffffffffffffffffffffffffff021916908373ffffffffffffffffffffffffffffffffffffffff16021790555091602001919060010190612cc1565b5b509050612d279190612dfd565b5090565b60c060405190810160405280600015158152602001600073ffffffffffffffffffffffffffffffffffffffff1681526020016060815260200160008152602001600060ff168152602001606081525090565b828054600181600116156101000203166002900490600052602060002090601f016020900481019282601f10612dbe57805160ff1916838001178555612dec565b82800160010185558215612dec579182015b82811115612deb578251825591602001919060010190612dd0565b5b509050612df99190612e40565b5090565b612e3d91905b80821115612e3957600081816101000a81549073ffffffffffffffffffffffffffffffffffffffff021916905550600101612e03565b5090565b90565b612e6291905b80821115612e5e576000816000905550600101612e46565b5090565b905600a165627a7a723058201f59fc8fa2c4edb420db004bfc503e42168d68b283e8fe659fe4d4b1885a90050029",
  "source": "pragma solidity ^0.4.25;\n\nimport \"../node_modules/openzeppelin-solidity/contracts/math/SafeMath.sol\";\n\ncontract FlightSuretyData {\n    using SafeMath for uint256;\n\n    /********************************************************************************************/\n    /*                                       DATA VARIABLES                                     */\n    /********************************************************************************************/\n\n    address private contractOwner; // Account used to deploy contract\n    bool private operational = true; // Blocks all state changes throughout the contract if false\n\n    mapping(address => bool) private authorizedCaller;\n\n    constructor() public {\n        contractOwner = msg.sender;\n        authorizedCaller[contractOwner] = true; // add contractOwner as an authorized caller\n    }\n\n    /********************************************************************************************/\n    /*                                       FUNCTION MODIFIERS                                 */\n    /********************************************************************************************/\n\n    modifier requireIsOperational() {\n        require(operational, \"Contract is currently not operational\");\n        _; // All modifiers require an \"_\" which indicates where the function body will be added\n    }\n\n    modifier requireContractOwner() {\n        require(msg.sender == contractOwner, \"Caller is not contract owner\");\n        _;\n    }\n\n    modifier requireCallerAuthorized() {\n        require(\n            authorizedCaller[msg.sender] == true,\n            \"Caller is not authorized\"\n        );\n        _;\n    }\n\n    /********************************************************************************************/\n    /*                                       UTILITY FUNCTIONS                                  */\n    /********************************************************************************************/\n\n    function isOperational() public view returns (bool) {\n        return operational;\n    }\n\n    function setOperatingStatus(bool mode) external requireContractOwner {\n        operational = mode;\n    }\n\n    function authorizeCaller(address _address)\n        external\n        requireIsOperational\n        requireContractOwner\n    {\n        authorizedCaller[_address] = true;\n    }\n\n    function deauthorizeCaller(address _address)\n        external\n        requireIsOperational\n        requireContractOwner\n    {\n        delete authorizedCaller[_address];\n    }\n\n    /********************************************************************************************/\n    /*                                     SMART CONTRACT FUNCTIONS                             */\n    /********************************************************************************************/\n\n    // Airlines\n    mapping(address => Airline) private airlines;\n    uint256 private registeredAirlines = 0;\n\n    struct Airline {\n        AirlineStatus status;\n        address[] votes;\n        uint256 funds;\n    }\n\n    enum AirlineStatus {Nominated, Registered, Funded}\n\n    function registeredAirlineCount()\n        external\n        view\n        requireIsOperational\n        requireCallerAuthorized\n        returns (uint256)\n    {\n        return registeredAirlines;\n    }\n\n    function numberAirlineVotes(address airlineAddress)\n        external\n        view\n        requireIsOperational\n        requireCallerAuthorized\n        returns (uint256)\n    {\n        return airlines[airlineAddress].votes.length;\n    }\n\n    function amountAirlineFunds(address airlineAddress)\n        external\n        view\n        requireIsOperational\n        requireCallerAuthorized\n        returns (uint256)\n    {\n        return airlines[airlineAddress].funds;\n    }\n\n    function isAirlineNominated(address airlineAddress)\n        external\n        view\n        requireIsOperational\n        requireCallerAuthorized\n        returns (bool)\n    {\n        return airlines[airlineAddress].status == AirlineStatus.Nominated;\n    }\n\n    function isAirlineRegistered(address airlineAddress)\n        external\n        view\n        requireIsOperational\n        requireCallerAuthorized\n        returns (bool)\n    {\n        return airlines[airlineAddress].status == AirlineStatus.Registered;\n    }\n\n    function isAirlineFunded(address airlineAddress)\n        external\n        view\n        requireIsOperational\n        requireCallerAuthorized\n        returns (bool)\n    {\n        return airlines[airlineAddress].status == AirlineStatus.Funded;\n    }\n\n    function nominateAirline(address airlineAddress)\n        external\n        requireIsOperational\n        requireCallerAuthorized\n    {\n        airlines[airlineAddress] = Airline(\n            AirlineStatus.Nominated, // default Nominated\n            new address[](0), // no votes\n            0 // default no funding\n        );\n    }\n\n    function registerAirline(address airlineAddress)\n        external\n        requireIsOperational\n        requireCallerAuthorized\n        returns (bool)\n    {\n        airlines[airlineAddress].status = AirlineStatus.Registered;\n        registeredAirlines++;\n        return airlines[airlineAddress].status == AirlineStatus.Registered;\n    }\n\n    function voteAirline(address airlineAddress, address voterAddress)\n        external\n        requireIsOperational\n        requireCallerAuthorized\n        returns (uint256)\n    {\n        airlines[airlineAddress].votes.push(voterAddress);\n        return airlines[airlineAddress].votes.length;\n    }\n\n    function fundAirline(address airlineAddress, uint256 fundingAmount)\n        external\n        requireIsOperational\n        requireCallerAuthorized\n        returns (uint256)\n    {\n        airlines[airlineAddress].funds += fundingAmount;\n        airlines[airlineAddress].status = AirlineStatus.Funded;\n        return airlines[airlineAddress].funds;\n    }\n\n    // Flights\n    struct Flight {\n        bool isRegistered;\n        address airline;\n        string flight;\n        uint256 departureTime;\n        uint8 statusCode;\n        address[] insurees;\n    }\n\n    mapping(bytes32 => Flight) private flights;\n\n    function registerFlight(address airline,\n        string flight,\n        uint256 departureTime,\n        uint8 statusCode\n    ) external requireIsOperational requireCallerAuthorized {\n        bytes32 key = getFlightKey(airline, flight, departureTime);\n        Flight memory newFlight;\n        newFlight.isRegistered = true;\n        newFlight.airline = airline;\n        newFlight.flight = flight;\n        newFlight.departureTime = departureTime;\n        newFlight.statusCode = statusCode;\n        flights[key] = newFlight;\n    }\n\n    function updateFlightStatus(\n        uint8 statusCode,\n        bytes32 flightKey\n    ) external requireIsOperational requireCallerAuthorized {\n        flights[flightKey].statusCode = statusCode;\n    }\n\n    function isFlightRegistered(\n        bytes32 flightKey\n    ) external view requireIsOperational requireCallerAuthorized returns (bool) {\n        return flights[flightKey].isRegistered;\n    }\n\n    // Insurance contract\n    struct Insurance {\n        uint256 funds;\n        bool withdrawable;\n    }\n\n    mapping(address => Insurance) private insurance;\n\n    function buyInsurance(address passengerAddress, uint256 insuranceAmount, bytes32 flightKey) external\n        requireIsOperational\n        requireCallerAuthorized\n    {\n        flights[flightKey].insurees.push(passengerAddress);\n        Insurance memory newInsurance;\n        newInsurance.funds = insuranceAmount;\n        newInsurance.withdrawable = false;\n        insurance[passengerAddress] = newInsurance;     \n    }\n\n    /**\n     *  @dev Credits payouts to insurees\n     */\n    function creditInsurees(bytes32 flightKey) external \n        requireIsOperational\n        requireCallerAuthorized\n    {\n        for(uint8 i = 0; i <= flights[flightKey].insurees.length; i++) {\n            address passengerAddress = flights[flightKey].insurees[i];\n            // insurance[passengerAddress].funds *= 1.5; <- need to figure out requirement\n            insurance[passengerAddress].withdrawable = true;\n        }\n    }\n\n    /**\n     *  @dev Transfers eligible payout funds to insuree\n     *\n     */\n    function pay() external pure {}\n\n    /**\n     * @dev Initial funding for the insurance. Unless there are too many delayed flights\n     *      resulting in insurance payouts, the contract should be self-sustaining\n     *\n     */\n\n    function fund() public payable {}\n\n    // Flights\n    function getFlightKey(\n        address airline,\n        string memory flight,\n        uint256 departureTime\n    ) internal pure returns (bytes32) {\n        return keccak256(abi.encodePacked(airline, flight, departureTime));\n    }\n\n    /**\n     * @dev Fallback function for funding smart contract.\n     *\n     */\n    function() external payable {\n        fund();\n    }\n}\n",
  "sourcePath": "/Users/galen/code/udacity/udacity-blockchain-developer/project4/contracts/FlightSuretyData.sol",
  "compiler": {
    "name": "solc",
    "version": "0.4.26+commit.4563c3fc.Emscripten.clang"
  },
  "schemaVersion": "3.3.2",
  "updatedAt": "2020-12-02T15:58:33.197Z",
  "devdoc": {
    "methods": {
      "creditInsurees(bytes32)": {
        "details": "Credits payouts to insurees"
      },
      "fund()": {
        "details": "Initial funding for the insurance. Unless there are too many delayed flights     resulting in insurance payouts, the contract should be self-sustaining     "
      },
      "pay()": {
        "details": "Transfers eligible payout funds to insuree     "
      }
    }
  },
  "userdoc": {
    "methods": {
      "isOperational()": {
        "notice": "*****************************************************************************************"
      }
    }
  }
}