{
  "contractName": "FlightSuretyApp",
  "abi": [
    {
      "inputs": [
        {
          "internalType": "address payable",
          "name": "dataContract",
          "type": "address"
        }
      ],
      "stateMutability": "nonpayable",
      "type": "constructor"
    },
    {
      "anonymous": false,
      "inputs": [
        {
          "indexed": true,
          "internalType": "address",
          "name": "airlineAddress",
          "type": "address"
        },
        {
          "indexed": false,
          "internalType": "uint256",
          "name": "amount",
          "type": "uint256"
        }
      ],
      "name": "AirlineFunded",
      "type": "event"
    },
    {
      "anonymous": false,
      "inputs": [
        {
          "indexed": true,
          "internalType": "address",
          "name": "airlineAddress",
          "type": "address"
        }
      ],
      "name": "AirlineNominated",
      "type": "event"
    },
    {
      "anonymous": false,
      "inputs": [
        {
          "indexed": true,
          "internalType": "address",
          "name": "airlineAddress",
          "type": "address"
        }
      ],
      "name": "AirlineRegistered",
      "type": "event"
    },
    {
      "anonymous": false,
      "inputs": [
        {
          "indexed": true,
          "internalType": "address",
          "name": "airlineAddress",
          "type": "address"
        },
        {
          "indexed": false,
          "internalType": "string",
          "name": "flight",
          "type": "string"
        }
      ],
      "name": "FlightRegistered",
      "type": "event"
    },
    {
      "anonymous": false,
      "inputs": [
        {
          "indexed": false,
          "internalType": "address",
          "name": "airline",
          "type": "address"
        },
        {
          "indexed": false,
          "internalType": "string",
          "name": "flight",
          "type": "string"
        },
        {
          "indexed": false,
          "internalType": "uint256",
          "name": "departureTime",
          "type": "uint256"
        },
        {
          "indexed": false,
          "internalType": "uint8",
          "name": "status",
          "type": "uint8"
        }
      ],
      "name": "FlightStatusInfo",
      "type": "event"
    },
    {
      "anonymous": false,
      "inputs": [
        {
          "indexed": true,
          "internalType": "address",
          "name": "airlineAddress",
          "type": "address"
        },
        {
          "indexed": false,
          "internalType": "string",
          "name": "flight",
          "type": "string"
        }
      ],
      "name": "InsurancePayout",
      "type": "event"
    },
    {
      "anonymous": false,
      "inputs": [
        {
          "indexed": true,
          "internalType": "address",
          "name": "passengerAddress",
          "type": "address"
        },
        {
          "indexed": false,
          "internalType": "uint256",
          "name": "amount",
          "type": "uint256"
        }
      ],
      "name": "InsurancePurchased",
      "type": "event"
    },
    {
      "anonymous": false,
      "inputs": [
        {
          "indexed": true,
          "internalType": "address",
          "name": "passengerAddress",
          "type": "address"
        },
        {
          "indexed": false,
          "internalType": "uint256",
          "name": "amount",
          "type": "uint256"
        }
      ],
      "name": "InsuranceWithdrawal",
      "type": "event"
    },
    {
      "anonymous": false,
      "inputs": [
        {
          "indexed": true,
          "internalType": "address",
          "name": "oracleAddress",
          "type": "address"
        },
        {
          "indexed": false,
          "internalType": "uint8[3]",
          "name": "indexes",
          "type": "uint8[3]"
        }
      ],
      "name": "OracleRegistered",
      "type": "event"
    },
    {
      "anonymous": false,
      "inputs": [
        {
          "indexed": false,
          "internalType": "address",
          "name": "airline",
          "type": "address"
        },
        {
          "indexed": false,
          "internalType": "string",
          "name": "flight",
          "type": "string"
        },
        {
          "indexed": false,
          "internalType": "uint256",
          "name": "departureTime",
          "type": "uint256"
        },
        {
          "indexed": false,
          "internalType": "uint8",
          "name": "status",
          "type": "uint8"
        }
      ],
      "name": "OracleReport",
      "type": "event"
    },
    {
      "anonymous": false,
      "inputs": [
        {
          "indexed": false,
          "internalType": "uint8",
          "name": "index",
          "type": "uint8"
        },
        {
          "indexed": false,
          "internalType": "address",
          "name": "airline",
          "type": "address"
        },
        {
          "indexed": false,
          "internalType": "string",
          "name": "flight",
          "type": "string"
        },
        {
          "indexed": false,
          "internalType": "uint256",
          "name": "departureTime",
          "type": "uint256"
        }
      ],
      "name": "OracleRequest",
      "type": "event"
    },
    {
      "inputs": [],
      "name": "MAX_INSURANCE_AMOUNT",
      "outputs": [
        {
          "internalType": "uint256",
          "name": "",
          "type": "uint256"
        }
      ],
      "stateMutability": "view",
      "type": "function",
      "constant": true
    },
    {
      "inputs": [],
      "name": "MIN_AIRLINE_FUNDING",
      "outputs": [
        {
          "internalType": "uint256",
          "name": "",
          "type": "uint256"
        }
      ],
      "stateMutability": "view",
      "type": "function",
      "constant": true
    },
    {
      "inputs": [],
      "name": "REGISTRATION_FEE",
      "outputs": [
        {
          "internalType": "uint256",
          "name": "",
          "type": "uint256"
        }
      ],
      "stateMutability": "view",
      "type": "function",
      "constant": true
    },
    {
      "inputs": [],
      "name": "contractOwner",
      "outputs": [
        {
          "internalType": "address",
          "name": "",
          "type": "address"
        }
      ],
      "stateMutability": "view",
      "type": "function",
      "constant": true
    },
    {
      "inputs": [],
      "name": "dataContractAddress",
      "outputs": [
        {
          "internalType": "address payable",
          "name": "",
          "type": "address"
        }
      ],
      "stateMutability": "view",
      "type": "function",
      "constant": true
    },
    {
      "inputs": [],
      "name": "isOperational",
      "outputs": [
        {
          "internalType": "bool",
          "name": "",
          "type": "bool"
        }
      ],
      "stateMutability": "view",
      "type": "function",
      "constant": true
    },
    {
      "inputs": [
        {
          "internalType": "bool",
          "name": "mode",
          "type": "bool"
        }
      ],
      "name": "setOperationalStatus",
      "outputs": [
        {
          "internalType": "bool",
          "name": "",
          "type": "bool"
        }
      ],
      "stateMutability": "nonpayable",
      "type": "function"
    },
    {
      "inputs": [
        {
          "internalType": "address",
          "name": "airlineAddress",
          "type": "address"
        }
      ],
      "name": "isAirlineNominated",
      "outputs": [
        {
          "internalType": "bool",
          "name": "",
          "type": "bool"
        }
      ],
      "stateMutability": "view",
      "type": "function",
      "constant": true
    },
    {
      "inputs": [
        {
          "internalType": "address",
          "name": "airlineAddress",
          "type": "address"
        }
      ],
      "name": "isAirlineRegistered",
      "outputs": [
        {
          "internalType": "bool",
          "name": "",
          "type": "bool"
        }
      ],
      "stateMutability": "view",
      "type": "function",
      "constant": true
    },
    {
      "inputs": [
        {
          "internalType": "address",
          "name": "airlineAddress",
          "type": "address"
        }
      ],
      "name": "isAirlineFunded",
      "outputs": [
        {
          "internalType": "bool",
          "name": "",
          "type": "bool"
        }
      ],
      "stateMutability": "view",
      "type": "function",
      "constant": true
    },
    {
      "inputs": [
        {
          "internalType": "address",
          "name": "airlineAddress",
          "type": "address"
        }
      ],
      "name": "nominateAirline",
      "outputs": [],
      "stateMutability": "nonpayable",
      "type": "function"
    },
    {
      "inputs": [
        {
          "internalType": "address",
          "name": "airlineAddress",
          "type": "address"
        }
      ],
      "name": "registerAirline",
      "outputs": [
        {
          "internalType": "bool",
          "name": "success",
          "type": "bool"
        }
      ],
      "stateMutability": "nonpayable",
      "type": "function"
    },
    {
      "inputs": [
        {
          "internalType": "address",
          "name": "airlineAddress",
          "type": "address"
        }
      ],
      "name": "numberAirlineVotes",
      "outputs": [
        {
          "internalType": "uint256",
          "name": "votes",
          "type": "uint256"
        }
      ],
      "stateMutability": "view",
      "type": "function",
      "constant": true
    },
    {
      "inputs": [],
      "name": "fundAirline",
      "outputs": [],
      "stateMutability": "payable",
      "type": "function",
      "payable": true
    },
    {
      "inputs": [
        {
          "internalType": "address",
          "name": "airlineAddress",
          "type": "address"
        }
      ],
      "name": "amountAirlineFunds",
      "outputs": [
        {
          "internalType": "uint256",
          "name": "",
          "type": "uint256"
        }
      ],
      "stateMutability": "view",
      "type": "function",
      "constant": true
    },
    {
      "inputs": [
        {
          "internalType": "address",
          "name": "airline",
          "type": "address"
        },
        {
          "internalType": "string",
          "name": "flight",
          "type": "string"
        },
        {
          "internalType": "uint256",
          "name": "departureTime",
          "type": "uint256"
        }
      ],
      "name": "isFlightRegistered",
      "outputs": [
        {
          "internalType": "bool",
          "name": "",
          "type": "bool"
        }
      ],
      "stateMutability": "view",
      "type": "function",
      "constant": true
    },
    {
      "inputs": [
        {
          "internalType": "string",
          "name": "flight",
          "type": "string"
        },
        {
          "internalType": "uint256",
          "name": "departureTime",
          "type": "uint256"
        }
      ],
      "name": "registerFlight",
      "outputs": [],
      "stateMutability": "nonpayable",
      "type": "function"
    },
    {
      "inputs": [
        {
          "internalType": "address",
          "name": "airline",
          "type": "address"
        },
        {
          "internalType": "string",
          "name": "flightName",
          "type": "string"
        },
        {
          "internalType": "uint256",
          "name": "departureTime",
          "type": "uint256"
        }
      ],
      "name": "officialFlightStatus",
      "outputs": [
        {
          "internalType": "uint8",
          "name": "",
          "type": "uint8"
        }
      ],
      "stateMutability": "view",
      "type": "function",
      "constant": true
    },
    {
      "inputs": [
        {
          "internalType": "address",
          "name": "airline",
          "type": "address"
        },
        {
          "internalType": "string",
          "name": "flight",
          "type": "string"
        },
        {
          "internalType": "uint256",
          "name": "departureTime",
          "type": "uint256"
        }
      ],
      "name": "buyFlightInsurance",
      "outputs": [],
      "stateMutability": "payable",
      "type": "function",
      "payable": true
    },
    {
      "inputs": [
        {
          "internalType": "address",
          "name": "passenger",
          "type": "address"
        },
        {
          "internalType": "address",
          "name": "airline",
          "type": "address"
        },
        {
          "internalType": "string",
          "name": "flight",
          "type": "string"
        },
        {
          "internalType": "uint256",
          "name": "departureTime",
          "type": "uint256"
        }
      ],
      "name": "isPassengerInsured",
      "outputs": [
        {
          "internalType": "bool",
          "name": "",
          "type": "bool"
        }
      ],
      "stateMutability": "view",
      "type": "function",
      "constant": true
    },
    {
      "inputs": [
        {
          "internalType": "address",
          "name": "airline",
          "type": "address"
        },
        {
          "internalType": "string",
          "name": "flight",
          "type": "string"
        },
        {
          "internalType": "uint256",
          "name": "departureTime",
          "type": "uint256"
        }
      ],
      "name": "isPaidOut",
      "outputs": [
        {
          "internalType": "bool",
          "name": "",
          "type": "bool"
        }
      ],
      "stateMutability": "view",
      "type": "function",
      "constant": true
    },
    {
      "inputs": [
        {
          "internalType": "address",
          "name": "passengerAddress",
          "type": "address"
        }
      ],
      "name": "passengerBalance",
      "outputs": [
        {
          "internalType": "uint256",
          "name": "",
          "type": "uint256"
        }
      ],
      "stateMutability": "view",
      "type": "function",
      "constant": true
    },
    {
      "inputs": [
        {
          "internalType": "uint256",
          "name": "withdrawalAmount",
          "type": "uint256"
        }
      ],
      "name": "withdrawBalance",
      "outputs": [],
      "stateMutability": "nonpayable",
      "type": "function"
    },
    {
      "inputs": [
        {
          "internalType": "address",
          "name": "oracleAddress",
          "type": "address"
        }
      ],
      "name": "isOracleRegistered",
      "outputs": [
        {
          "internalType": "bool",
          "name": "",
          "type": "bool"
        }
      ],
      "stateMutability": "view",
      "type": "function",
      "constant": true
    },
    {
      "inputs": [],
      "name": "registerOracle",
      "outputs": [],
      "stateMutability": "payable",
      "type": "function",
      "payable": true
    },
    {
      "inputs": [],
      "name": "getMyIndexes",
      "outputs": [
        {
          "internalType": "uint8[3]",
          "name": "",
          "type": "uint8[3]"
        }
      ],
      "stateMutability": "view",
      "type": "function",
      "constant": true
    },
    {
      "inputs": [
        {
          "internalType": "address",
          "name": "airline",
          "type": "address"
        },
        {
          "internalType": "string",
          "name": "flight",
          "type": "string"
        },
        {
          "internalType": "uint256",
          "name": "timestamp",
          "type": "uint256"
        }
      ],
      "name": "fetchFlightStatus",
      "outputs": [],
      "stateMutability": "nonpayable",
      "type": "function"
    },
    {
      "inputs": [
        {
          "internalType": "uint8",
          "name": "index",
          "type": "uint8"
        },
        {
          "internalType": "address",
          "name": "airline",
          "type": "address"
        },
        {
          "internalType": "string",
          "name": "flight",
          "type": "string"
        },
        {
          "internalType": "uint256",
          "name": "departureTime",
          "type": "uint256"
        },
        {
          "internalType": "uint8",
          "name": "statusCode",
          "type": "uint8"
        }
      ],
      "name": "submitOracleResponse",
      "outputs": [],
      "stateMutability": "nonpayable",
      "type": "function"
    }
  ],
  "bytecode": "0x60806040526002805460ff60a01b1916905534801561001d57600080fd5b50604051613b42380380613b428339818101604052602081101561004057600080fd5b5051600080546001600160a01b03199081163317909155600180546001600160a01b0390931692821683179055600280549091169091179055613aba806100886000396000f3fe6080604052600436106101b75760003560e01c8063a1a951df116100ec578063d440478c1161008a578063e3b212ea11610064578063e3b212ea146109d1578063f53b6d65146109e6578063f83f11c014610a19578063ff50653314610adc576101b7565b8063d440478c146108ce578063da76d5cd146109a7578063e375e9261461052a576101b7565b8063c10f2700116100c6578063c10f2700146106f4578063c778447f146107c5578063cd905dff14610888578063ce606ee01461089d576101b7565b8063a1a951df1461065b578063b9b55c9a1461068e578063bdfd9877146106c1576101b7565b80635122cb38116101595780636a12d363116101335780636a12d3631461053f5780636bd9f0ac1461060b57806397628295146106205780639ed1892714610653576101b7565b80635122cb38146104b15780635f1cc0e6146104dd57806364b4f7511461052a576101b7565b806339cfc9951161019557806339cfc995146102d05780633adf611e1461038357806340903e39146103c857806343268d7d146103fb576101b7565b8063010c5c97146101bc578063241a53cb14610203578063339d2590146102c6575b600080fd5b3480156101c857600080fd5b506101ef600480360360208110156101df57600080fd5b50356001600160a01b0316610b0f565b604080519115158252519081900360200190f35b34801561020f57600080fd5b506101ef6004803603606081101561022657600080fd5b6001600160a01b038235169190810190604081016020820135600160201b81111561025057600080fd5b82018360208201111561026257600080fd5b803590602001918460018302840111600160201b8311171561028357600080fd5b91908080601f0160208091040260200160405190810160405280939291908181526020018383808284376000920191909152509295505091359250610c3f915050565b6102ce610d81565b005b3480156102dc57600080fd5b506102ce600480360360408110156102f357600080fd5b810190602081018135600160201b81111561030d57600080fd5b82018360208201111561031f57600080fd5b803590602001918460018302840111600160201b8311171561034057600080fd5b91908080601f0160208091040260200160405190810160405280939291908181526020018383808284376000920191909152509295505091359250610f71915050565b34801561038f57600080fd5b506103b6600480360360208110156103a657600080fd5b50356001600160a01b0316611275565b60408051918252519081900360200190f35b3480156103d457600080fd5b506103b6600480360360208110156103eb57600080fd5b50356001600160a01b0316611373565b6102ce6004803603606081101561041157600080fd5b6001600160a01b038235169190810190604081016020820135600160201b81111561043b57600080fd5b82018360208201111561044d57600080fd5b803590602001918460018302840111600160201b8311171561046e57600080fd5b91908080601f0160208091040260200160405190810160405280939291908181526020018383808284376000920191909152509295505091359250611471915050565b3480156104bd57600080fd5b506101ef600480360360208110156104d457600080fd5b503515156117df565b3480156104e957600080fd5b506104f26118a2565b6040518082606080838360005b838110156105175781810151838201526020016104ff565b5050505090500191505060405180910390f35b34801561053657600080fd5b506103b661196f565b34801561054b57600080fd5b506101ef6004803603608081101561056257600080fd5b6001600160a01b038235811692602081013590911691810190606081016040820135600160201b81111561059557600080fd5b8201836020820111156105a757600080fd5b803590602001918460018302840111600160201b831117156105c857600080fd5b91908080601f016020809104026020016040519081016040528093929190818152602001838380828437600092019190915250929550509135925061197b915050565b34801561061757600080fd5b506103b6611ac5565b34801561062c57600080fd5b506102ce6004803603602081101561064357600080fd5b50356001600160a01b0316611ad1565b6102ce611c28565b34801561066757600080fd5b506103b66004803603602081101561067e57600080fd5b50356001600160a01b0316611ed1565b34801561069a57600080fd5b506101ef600480360360208110156106b157600080fd5b50356001600160a01b0316611fcf565b3480156106cd57600080fd5b506101ef600480360360208110156106e457600080fd5b50356001600160a01b031661209f565b34801561070057600080fd5b506102ce600480360360a081101561071757600080fd5b60ff823516916001600160a01b0360208201351691810190606081016040820135600160201b81111561074957600080fd5b82018360208201111561075b57600080fd5b803590602001918460018302840111600160201b8311171561077c57600080fd5b91908080601f016020809104026020016040519081016040528093929190818152602001838380828437600092019190915250929550508235935050506020013560ff1661277b565b3480156107d157600080fd5b506101ef600480360360608110156107e857600080fd5b6001600160a01b038235169190810190604081016020820135600160201b81111561081257600080fd5b82018360208201111561082457600080fd5b803590602001918460018302840111600160201b8311171561084557600080fd5b91908080601f0160208091040260200160405190810160405280939291908181526020018383808284376000920191909152509295505091359250612b0a915050565b34801561089457600080fd5b506101ef612c17565b3480156108a957600080fd5b506108b2612c8d565b604080516001600160a01b039092168252519081900360200190f35b3480156108da57600080fd5b50610991600480360360608110156108f157600080fd5b6001600160a01b038235169190810190604081016020820135600160201b81111561091b57600080fd5b82018360208201111561092d57600080fd5b803590602001918460018302840111600160201b8311171561094e57600080fd5b91908080601f0160208091040260200160405190810160405280939291908181526020018383808284376000920191909152509295505091359250612c9c915050565b6040805160ff9092168252519081900360200190f35b3480156109b357600080fd5b506102ce600480360360208110156109ca57600080fd5b5035612da9565b3480156109dd57600080fd5b506108b2612f07565b3480156109f257600080fd5b506101ef60048036036020811015610a0957600080fd5b50356001600160a01b0316612f16565b348015610a2557600080fd5b506102ce60048036036060811015610a3c57600080fd5b6001600160a01b038235169190810190604081016020820135600160201b811115610a6657600080fd5b820183602082011115610a7857600080fd5b803590602001918460018302840111600160201b83111715610a9957600080fd5b91908080601f0160208091040260200160405190810160405280939291908181526020018383808284376000920191909152509295505091359250613014915050565b348015610ae857600080fd5b506101ef60048036036020811015610aff57600080fd5b50356001600160a01b0316613033565b6002546040805163cd905dff60e01b815290516000926001600160a01b03169163cd905dff916004808301926020929190829003018186803b158015610b5457600080fd5b505afa158015610b68573d6000803e3d6000fd5b505050506040513d6020811015610b7e57600080fd5b50511515600114610bc05760405162461bcd60e51b81526004018080602001828103825260258152602001806139f46025913960400191505060405180910390fd5b6002546040805163010c5c9760e01b81526001600160a01b0385811660048301529151919092169163010c5c97916024808301926020929190829003018186803b158015610c0d57600080fd5b505afa158015610c21573d6000803e3d6000fd5b505050506040513d6020811015610c3757600080fd5b505192915050565b6002546040805163cd905dff60e01b815290516000926001600160a01b03169163cd905dff916004808301926020929190829003018186803b158015610c8457600080fd5b505afa158015610c98573d6000803e3d6000fd5b505050506040513d6020811015610cae57600080fd5b50511515600114610cf05760405162461bcd60e51b81526004018080602001828103825260258152602001806139f46025913960400191505060405180910390fd5b6000610cfd858585613134565b600254604080516358ac36a360e01b81526004810184905290519293506001600160a01b03909116916358ac36a391602480820192602092909190829003018186803b158015610d4c57600080fd5b505afa158015610d60573d6000803e3d6000fd5b505050506040513d6020811015610d7657600080fd5b505195945050505050565b600260009054906101000a90046001600160a01b03166001600160a01b031663cd905dff6040518163ffffffff1660e01b815260040160206040518083038186803b158015610dcf57600080fd5b505afa158015610de3573d6000803e3d6000fd5b505050506040513d6020811015610df957600080fd5b50511515600114610e3b5760405162461bcd60e51b81526004018080602001828103825260258152602001806139f46025913960400191505060405180910390fd5b670de0b6b3a7640000341015610e98576040805162461bcd60e51b815260206004820152601c60248201527f526567697374726174696f6e2066656520697320726571756972656400000000604482015290519081900360640190fd5b6000610ea3336131be565b336000908152600360208190526040909120805460ff19166001908117825592935091610ed5919083019084906137ff565b506001546040516001600160a01b03909116903480156108fc02916000818181858888f19350505050158015610f0f573d6000803e3d6000fd5b5060405133907f1bdc0d8a09795c58f7a50cd047b708db1292c3020b8935100d4e55d8c50d0dfc9084908082606080838360005b83811015610f5b578181015183820152602001610f43565b5050505090500191505060405180910390a25050565b600260009054906101000a90046001600160a01b03166001600160a01b031663cd905dff6040518163ffffffff1660e01b815260040160206040518083038186803b158015610fbf57600080fd5b505afa158015610fd3573d6000803e3d6000fd5b505050506040513d6020811015610fe957600080fd5b5051151560011461102b5760405162461bcd60e51b81526004018080602001828103825260258152602001806139f46025913960400191505060405180910390fd5b6002546040805163f53b6d6560e01b815233600482015290516001600160a01b039092169163f53b6d6591602480820192602092909190829003018186803b15801561107657600080fd5b505afa15801561108a573d6000803e3d6000fd5b505050506040513d60208110156110a057600080fd5b505115156001146110e25760405162461bcd60e51b8152600401808060200182810382526049815260200180613a3c6049913960600191505060405180910390fd5b600254604051636cea091360e11b81523360048201818152604483018590526000606484018190526080602485019081528751608486015287516001600160a01b039096169563d9d412269589948994939092909160a401906020870190808383885b8381101561115d578181015183820152602001611145565b50505050905090810190601f16801561118a5780820380516001836020036101000a031916815260200191505b5095505050505050602060405180830381600087803b1580156111ac57600080fd5b505af11580156111c0573d6000803e3d6000fd5b505050506040513d60208110156111d657600080fd5b5050604080516020808252845182820152845133937fe5315d99126e2c39234f5ab2fcfcb832707269727cc2da70201f9fa33b0cf0729387939092839283019185019080838360005b8381101561123757818101518382015260200161121f565b50505050905090810190601f1680156112645780820380516001836020036101000a031916815260200191505b509250505060405180910390a25050565b6002546040805163cd905dff60e01b815290516000926001600160a01b03169163cd905dff916004808301926020929190829003018186803b1580156112ba57600080fd5b505afa1580156112ce573d6000803e3d6000fd5b505050506040513d60208110156112e457600080fd5b505115156001146113265760405162461bcd60e51b81526004018080602001828103825260258152602001806139f46025913960400191505060405180910390fd5b60025460408051631d6fb08f60e11b81526001600160a01b03858116600483015291519190921691633adf611e916024808301926020929190829003018186803b158015610c0d57600080fd5b6002546040805163cd905dff60e01b815290516000926001600160a01b03169163cd905dff916004808301926020929190829003018186803b1580156113b857600080fd5b505afa1580156113cc573d6000803e3d6000fd5b505050506040513d60208110156113e257600080fd5b505115156001146114245760405162461bcd60e51b81526004018080602001828103825260258152602001806139f46025913960400191505060405180910390fd5b600254604080516340903e3960e01b81526001600160a01b038581166004830152915191909216916340903e39916024808301926020929190829003018186803b158015610c0d57600080fd5b600260009054906101000a90046001600160a01b03166001600160a01b031663cd905dff6040518163ffffffff1660e01b815260040160206040518083038186803b1580156114bf57600080fd5b505afa1580156114d3573d6000803e3d6000fd5b505050506040513d60208110156114e957600080fd5b5051151560011461152b5760405162461bcd60e51b81526004018080602001828103825260258152602001806139f46025913960400191505060405180910390fd5b670de0b6b3a76400003411156115725760405162461bcd60e51b815260040180806020018281038252603681526020018061393c6036913960400191505060405180910390fd5b82346000611624600261161e600361161886600260009054906101000a90046001600160a01b03166001600160a01b0316632393f9c68a6040518263ffffffff1660e01b815260040180826001600160a01b0316815260200191505060206040518083038186803b1580156115e657600080fd5b505afa1580156115fa573d6000803e3d6000fd5b505050506040513d602081101561161057600080fd5b505190613264565b906132c5565b9061331e565b600254604080516340903e3960e01b81526001600160a01b03878116600483015291519394509116916340903e3991602480820192602092909190829003018186803b15801561167357600080fd5b505afa158015611687573d6000803e3d6000fd5b505050506040513d602081101561169d57600080fd5b50518111156116dd5760405162461bcd60e51b81526004018080602001828103825260408152602001806139936040913960400191505060405180910390fd5b60006116ea878787613134565b6002546040805163251acae160e11b8152336004820152346024820152604481018490526001600160a01b038b811660648301529151939450911691634a3595c29160848082019260009290919082900301818387803b15801561174d57600080fd5b505af1158015611761573d6000803e3d6000fd5b50506001546040516001600160a01b0390911692503480156108fc029250906000818181858888f1935050505015801561179f573d6000803e3d6000fd5b5060408051348152905133917f4b58308df033561e43d2c0227b19bea93ae78a05df784c985482b3fb7e154610919081900360200190a250505050505050565b600080546001600160a01b0316331461183f576040805162461bcd60e51b815260206004820152601c60248201527f43616c6c6572206973206e6f7420636f6e7472616374206f776e657200000000604482015290519081900360640190fd5b60025460408051630a24596760e31b8152841515600482015290516001600160a01b0390921691635122cb38916024808201926020929091908290030181600087803b15801561188e57600080fd5b505af1158015610c21573d6000803e3d6000fd5b6118aa613892565b3360009081526003602052604090205460ff1661190e576040805162461bcd60e51b815260206004820152601b60248201527f4e6f74207265676973746572656420617320616e206f7261636c650000000000604482015290519081900360640190fd5b336000908152600360208190526040808320815160608101928390529360019091019291908390855b825461010083900a900460ff168152602060019283018181049485019490930390920291018084116119375790505050505050905090565b670de0b6b3a764000081565b6002546040805163cd905dff60e01b815290516000926001600160a01b03169163cd905dff916004808301926020929190829003018186803b1580156119c057600080fd5b505afa1580156119d4573d6000803e3d6000fd5b505050506040513d60208110156119ea57600080fd5b50511515600114611a2c5760405162461bcd60e51b81526004018080602001828103825260258152602001806139f46025913960400191505060405180910390fd5b6000611a39858585613134565b60025460408051631e18084b60e21b81526001600160a01b038a81166004830152602482018590529151939450911691637860212c91604480820192602092909190829003018186803b158015611a8f57600080fd5b505afa158015611aa3573d6000803e3d6000fd5b505050506040513d6020811015611ab957600080fd5b50519695505050505050565b678ac7230489e8000081565b600260009054906101000a90046001600160a01b03166001600160a01b031663cd905dff6040518163ffffffff1660e01b815260040160206040518083038186803b158015611b1f57600080fd5b505afa158015611b33573d6000803e3d6000fd5b505050506040513d6020811015611b4957600080fd5b50511515600114611b8b5760405162461bcd60e51b81526004018080602001828103825260258152602001806139f46025913960400191505060405180910390fd5b60025460408051639762829560e01b81526001600160a01b03848116600483015291519190921691639762829591602480830192600092919082900301818387803b158015611bd957600080fd5b505af1158015611bed573d6000803e3d6000fd5b50506040516001600160a01b03841692507f73ac0663a7d7498ff328d2056b952397823b74bc9c2dd8b7db794b679ddda6219150600090a250565b600260009054906101000a90046001600160a01b03166001600160a01b031663cd905dff6040518163ffffffff1660e01b815260040160206040518083038186803b158015611c7657600080fd5b505afa158015611c8a573d6000803e3d6000fd5b505050506040513d6020811015611ca057600080fd5b50511515600114611ce25760405162461bcd60e51b81526004018080602001828103825260258152602001806139f46025913960400191505060405180910390fd5b6002546040805163010c5c9760e01b815233600482015290516001600160a01b039092169163010c5c9791602480820192602092909190829003018186803b158015611d2d57600080fd5b505afa158015611d41573d6000803e3d6000fd5b505050506040513d6020811015611d5757600080fd5b50511515600114611d995760405162461bcd60e51b815260040180806020018281038252604c8152602001806138c6604c913960600191505060405180910390fd5b678ac7230489e80000341015611de05760405162461bcd60e51b815260040180806020018281038252602a815260200180613912602a913960400191505060405180910390fd5b6001546040516001600160a01b03909116903480156108fc02916000818181858888f19350505050158015611e19573d6000803e3d6000fd5b50600254604080516378d40f3960e11b815233600482015234602482015290516001600160a01b039092169163f1a81e72916044808201926020929091908290030181600087803b158015611e6d57600080fd5b505af1158015611e81573d6000803e3d6000fd5b505050506040513d6020811015611e9757600080fd5b505060408051348152905133917fe3e3c2f23f7445131259937f93b9ed0c075fe06c9d702be2d7ac549d0ec5fc32919081900360200190a2565b6002546040805163cd905dff60e01b815290516000926001600160a01b03169163cd905dff916004808301926020929190829003018186803b158015611f1657600080fd5b505afa158015611f2a573d6000803e3d6000fd5b505050506040513d6020811015611f4057600080fd5b50511515600114611f825760405162461bcd60e51b81526004018080602001828103825260258152602001806139f46025913960400191505060405180910390fd5b600254604080516338c3fca160e21b81526001600160a01b0385811660048301529151919092169163e30ff284916024808301926020929190829003018186803b158015610c0d57600080fd5b6002546040805163cd905dff60e01b815290516000926001600160a01b03169163cd905dff916004808301926020929190829003018186803b15801561201457600080fd5b505afa158015612028573d6000803e3d6000fd5b505050506040513d602081101561203e57600080fd5b505115156001146120805760405162461bcd60e51b81526004018080602001828103825260258152602001806139f46025913960400191505060405180910390fd5b506001600160a01b031660009081526003602052604090205460ff1690565b6002546040805163cd905dff60e01b815290516000926001600160a01b03169163cd905dff916004808301926020929190829003018186803b1580156120e457600080fd5b505afa1580156120f8573d6000803e3d6000fd5b505050506040513d602081101561210e57600080fd5b505115156001146121505760405162461bcd60e51b81526004018080602001828103825260258152602001806139f46025913960400191505060405180910390fd5b6002546040805163f53b6d6560e01b815233600482015290516001600160a01b039092169163f53b6d6591602480820192602092909190829003018186803b15801561219b57600080fd5b505afa1580156121af573d6000803e3d6000fd5b505050506040513d60208110156121c557600080fd5b505115156001146122075760405162461bcd60e51b8152600401808060200182810382526049815260200180613a3c6049913960600191505060405180910390fd5b6002546040805163f53b6d6560e01b81526001600160a01b03808616600483015291518593929092169163f53b6d6591602480820192602092909190829003018186803b15801561225757600080fd5b505afa15801561226b573d6000803e3d6000fd5b505050506040513d602081101561228157600080fd5b50511515600114156122da576040805162461bcd60e51b815260206004820152601960248201527f4169726c696e6520697320616c72656164792066756e64656400000000000000604482015290519081900360640190fd5b6002546040805163010c5c9760e01b81526001600160a01b03808716600483015291518693929092169163010c5c9791602480820192602092909190829003018186803b15801561232a57600080fd5b505afa15801561233e573d6000803e3d6000fd5b505050506040513d602081101561235457600080fd5b50511515600114156123ad576040805162461bcd60e51b815260206004820152601d60248201527f4169726c696e6520697320616c72656164792072656769737465726564000000604482015290519081900360640190fd5b60025460408051600162af9acd60e01b031981526001600160a01b03808816600483015291518793929092169163ff50653391602480820192602092909190829003018186803b15801561240057600080fd5b505afa158015612414573d6000803e3d6000fd5b505050506040513d602081101561242a57600080fd5b50511515600114612482576040805162461bcd60e51b815260206004820152601c60248201527f4169726c696e652063616e6e6f74206265207265676973746572656400000000604482015290519081900360640190fd5b6002546040805163c5323de560e01b81526001600160a01b0388811660048301523360248301529151600093929092169163c5323de59160448082019260209290919082900301818787803b1580156124da57600080fd5b505af11580156124ee573d6000803e3d6000fd5b505050506040513d602081101561250457600080fd5b505160025460408051630d81362f60e31b815290519293506004926001600160a01b0390921691636c09b178918085019160209181900386018186803b15801561254d57600080fd5b505afa158015612561573d6000803e3d6000fd5b505050506040513d602081101561257757600080fd5b5051106126bf576002805460408051630d81362f60e31b815290516125f893926001600160a01b031691636c09b178916004808301926020929190829003018186803b1580156125c657600080fd5b505afa1580156125da573d6000803e3d6000fd5b505050506040513d60208110156125f057600080fd5b50519061331e565b81106126b5576002546040805163bdfd987760e01b81526001600160a01b0389811660048301529151919092169163bdfd98779160248083019260209291908290030181600087803b15801561264d57600080fd5b505af1158015612661573d6000803e3d6000fd5b505050506040513d602081101561267757600080fd5b50516040519095506001600160a01b038716907f89a6354fb229eda6cbc28306798727b4d524818d2c375220bc3f360f24cffaca90600090a26126ba565b600094505b612772565b6002546040805163bdfd987760e01b81526001600160a01b0389811660048301529151919092169163bdfd98779160248083019260209291908290030181600087803b15801561270e57600080fd5b505af1158015612722573d6000803e3d6000fd5b505050506040513d602081101561273857600080fd5b50516040519095506001600160a01b038716907f89a6354fb229eda6cbc28306798727b4d524818d2c375220bc3f360f24cffaca90600090a25b50505050919050565b33600090815260036020526040902060010154859060ff808316911614806127bf57503360009081526003602052604090206001015460ff82811661010090920416145b806127e757503360009081526003602052604090206001015460ff8281166201000090920416145b6128225760405162461bcd60e51b8152600401808060200182810382526023815260200180613a196023913960400191505060405180910390fd5b600086868686604051602001808560ff1660f81b8152600101846001600160a01b031660601b815260140183805190602001908083835b602083106128785780518252601f199092019160209182019101612859565b51815160209384036101000a600019018019909216911617905292019384525060408051808503815293820181528351938201939093206000818152600490925292902054919550506001600160a01b90910460ff1615151492506129119150505760405162461bcd60e51b81526004018080602001828103825260218152602001806139d36021913960400191505060405180910390fd5b600081815260046020908152604080832060ff87168085526001918201845282852080549283018155855283852090910180546001600160a01b0319163317905581516001600160a01b038b1681529182018890526060820152608081830181815289519183019190915288517f43c853095c2752648493c88b4baac4d580d2594ffb00c6f1d4242d844514f783948b948b948b948b949193909260a0850192908801918190849084905b838110156129d45781810151838201526020016129bc565b50505050905090810190601f168015612a015780820380516001836020036101000a031916815260200191505b509550505050505060405180910390a1600081815260046020908152604080832060ff87168452600101909152902054600311612b01577fe23f5229de535c091e3b7bec2665f5d698192d3b31393066e8987b7a05076b6c8686868660405180856001600160a01b03168152602001806020018481526020018360ff168152602001828103825285818151815260200191508051906020019080838360005b83811015612ab8578181015183820152602001612aa0565b50505050905090810190601f168015612ae55780820380516001836020036101000a031916815260200191505b509550505050505060405180910390a1612b0186868686613360565b50505050505050565b6002546040805163cd905dff60e01b815290516000926001600160a01b03169163cd905dff916004808301926020929190829003018186803b158015612b4f57600080fd5b505afa158015612b63573d6000803e3d6000fd5b505050506040513d6020811015612b7957600080fd5b50511515600114612bbb5760405162461bcd60e51b81526004018080602001828103825260258152602001806139f46025913960400191505060405180910390fd5b6000612bc8858585613134565b6002546040805163ce590aad60e01b81526004810184905290519293506001600160a01b039091169163ce590aad91602480820192602092909190829003018186803b158015610d4c57600080fd5b6002546040805163cd905dff60e01b815290516000926001600160a01b03169163cd905dff916004808301926020929190829003018186803b158015612c5c57600080fd5b505afa158015612c70573d6000803e3d6000fd5b505050506040513d6020811015612c8657600080fd5b5051905090565b6000546001600160a01b031681565b6002546040805163cd905dff60e01b815290516000926001600160a01b03169163cd905dff916004808301926020929190829003018186803b158015612ce157600080fd5b505afa158015612cf5573d6000803e3d6000fd5b505050506040513d6020811015612d0b57600080fd5b50511515600114612d4d5760405162461bcd60e51b81526004018080602001828103825260258152602001806139f46025913960400191505060405180910390fd5b6000612d5a858585613134565b600254604080516379fca28560e01b81526004810184905290519293506001600160a01b03909116916379fca28591602480820192602092909190829003018186803b158015610d4c57600080fd5b600260009054906101000a90046001600160a01b03166001600160a01b031663cd905dff6040518163ffffffff1660e01b815260040160206040518083038186803b158015612df757600080fd5b505afa158015612e0b573d6000803e3d6000fd5b505050506040513d6020811015612e2157600080fd5b50511515600114612e635760405162461bcd60e51b81526004018080602001828103825260258152602001806139f46025913960400191505060405180910390fd5b600254604080516336c329b560e11b81523360048201526024810184905290516001600160a01b0390921691636d86536a9160448082019260009290919082900301818387803b158015612eb657600080fd5b505af1158015612eca573d6000803e3d6000fd5b50506040805184815290513393507fa61b5b46b19f7c8a71d6ac783da8b63a4819c0a9a8cea7f25ccbf167cddc356292509081900360200190a250565b6001546001600160a01b031681565b6002546040805163cd905dff60e01b815290516000926001600160a01b03169163cd905dff916004808301926020929190829003018186803b158015612f5b57600080fd5b505afa158015612f6f573d6000803e3d6000fd5b505050506040513d6020811015612f8557600080fd5b50511515600114612fc75760405162461bcd60e51b81526004018080602001828103825260258152602001806139f46025913960400191505060405180910390fd5b6002546040805163f53b6d6560e01b81526001600160a01b0385811660048301529151919092169163f53b6d65916024808301926020929190829003018186803b158015610c0d57600080fd5b600061301f33613505565b905061302d8185858561359f565b50505050565b6002546040805163cd905dff60e01b815290516000926001600160a01b03169163cd905dff916004808301926020929190829003018186803b15801561307857600080fd5b505afa15801561308c573d6000803e3d6000fd5b505050506040513d60208110156130a257600080fd5b505115156001146130e45760405162461bcd60e51b81526004018080602001828103825260258152602001806139f46025913960400191505060405180910390fd5b60025460408051600162af9acd60e01b031981526001600160a01b0385811660048301529151919092169163ff506533916024808301926020929190829003018186803b158015610c0d57600080fd5b600083838360405160200180846001600160a01b031660601b815260140183805190602001908083835b6020831061317d5780518252601f19909201916020918201910161315e565b51815160209384036101000a600019018019909216911617905292019384525060408051808503815293820190528251920191909120979650505050505050565b6131c6613892565b6131ce613892565b6131d783613505565b60ff1680825260208201525b8051602082015160ff9081169116141561320d5761320083613505565b60ff1660208201526131e3565b602081015160ff1660408201525b8051604082015160ff9081169116148061324357506020810151604082015160ff9081169116145b1561325e5761325183613505565b60ff16604082015261321b565b92915050565b6000828201838110156132be576040805162461bcd60e51b815260206004820152601b60248201527f536166654d6174683a206164646974696f6e206f766572666c6f770000000000604482015290519081900360640190fd5b9392505050565b6000826132d45750600061325e565b828202828482816132e157fe5b04146132be5760405162461bcd60e51b81526004018080602001828103825260218152602001806139726021913960400191505060405180910390fd5b60006132be83836040518060400160405280601a81526020017f536166654d6174683a206469766973696f6e206279207a65726f00000000000081525061375d565b600061336d858585613134565b600254604080516322be322f60e21b815260ff861660048201526024810184905290519293506001600160a01b0390911691638af8c8bc9160448082019260009290919082900301818387803b1580156133c657600080fd5b505af11580156133da573d6000803e3d6000fd5b5050505060ff8216601414156134fe576002546040805160016238a71f60e01b03198152600481018490526001600160a01b0388811660248301529151919092169163ffc758e191604480830192600092919082900301818387803b15801561344257600080fd5b505af1158015613456573d6000803e3d6000fd5b50505050846001600160a01b03167fc950912bc1ce12a471b7f722d9934565ead629a778ff890a24959773e6e5bc11856040518080602001828103825283818151815260200191508051906020019080838360005b838110156134c35781810151838201526020016134ab565b50505050905090810190601f1680156134f05780820380516001836020036101000a031916815260200191505b509250505060405180910390a25b5050505050565b6002805460ff60a01b19811660ff600160a01b9283900481166001810182168402929092179384905560408051439390930340602080850191909152606087901b6bffffffffffffffffffffffff1916848301528151808503603401815260549094019091528251920191909120600093600a93918490069260fa929091041611156132be576002805460ff60a01b191690559392505050565b600084848484604051602001808560ff1660f81b8152600101846001600160a01b031660601b815260140183805190602001908083835b602083106135f55780518252601f1990920191602091820191016135d6565b6001836020036101000a0380198251168184511680821785525050505050509050018281526020019450505050506040516020818303038152906040528051906020012090506000600460008381526020019081526020016000209050338160000160006101000a8154816001600160a01b0302191690836001600160a01b0316021790555060018160000160146101000a81548160ff0219169083151502179055507f3ed01f2c3fc24c6b329d931e35b03e390d23497d22b3f90e15b600343e93df1186868686604051808560ff168152602001846001600160a01b0316815260200180602001838152602001828103825284818151815260200191508051906020019080838360005b83811015613718578181015183820152602001613700565b50505050905090810190601f1680156137455780820380516001836020036101000a031916815260200191505b509550505050505060405180910390a1505050505050565b600081836137e95760405162461bcd60e51b81526004018080602001828103825283818151815260200191508051906020019080838360005b838110156137ae578181015183820152602001613796565b50505050905090810190601f1680156137db5780820380516001836020036101000a031916815260200191505b509250505060405180910390fd5b5060008385816137f557fe5b0495945050505050565b6001830191839082156138825791602002820160005b8382111561385357835183826101000a81548160ff021916908360ff1602179055509260200192600101602081600001049283019260010302613815565b80156138805782816101000a81549060ff0219169055600101602081600001049283019260010302613853565b505b5061388e9291506138b0565b5090565b60405180606001604052806003906020820280368337509192915050565b5b8082111561388e57600081556001016138b156fe4f6e6c7920616e206578697374696e67206169726c696e65206d617920726567697374657220616e206169726c696e65206f7220706172746963697061746520696e20636f6e73656e7375734169726c696e652066756e64696e67207265717569726573206174206c6561737420313020457468657241206d6178696d756d206f662031206574686572206d61792062652073656e7420746f20707572636861736520696e737572616e6365536166654d6174683a206d756c7469706c69636174696f6e206f766572666c6f774169726c696e652068617320696e73756666696369656e7420726573657276657320746f20756e646572777269746520666c6967687420696e737572616e63654b657920646f6573206e6f74206d61746368206f7261636c652072657175657374436f6e74726163742069732063757272656e746c79206e6f74206f7065726174696f6e616c496e64657820646f6573206e6f74206d61746368206f7261636c6520726571756573744f6e6c7920612066756e646564206169726c696e65206d617920726567697374657220616e206169726c696e65206f7220706172746963697061746520696e20636f6e73656e737573a2646970667358221220a0dfd2b7b639ac9d0f7d53735da6028858918430e01ae2ee141c37a963d170d064736f6c63430007060033",
  "immutableReferences": {},
  "source": "// SPDX-License-Identifier: MIT\n\npragma solidity ^0.7.6;\n\nimport \"./SafeMath.sol\";\nimport \"./FlightSuretyData.sol\";\n\n/************************************************** */\n/* FlightSurety Smart Contract                      */\n/************************************************** */\ncontract FlightSuretyApp {\n    using SafeMath for uint256; // Allow SafeMath functions to be called for all uint256 types (similar to \"prototype\" in Javascript)\n\n    /********************************************************************************************/\n    /*                                       DATA VARIABLES                                     */\n    /********************************************************************************************/\n\n    // Flight status codees\n    uint8 private constant STATUS_CODE_UNKNOWN = 0;\n    uint8 private constant STATUS_CODE_ON_TIME = 10;\n    uint8 private constant STATUS_CODE_LATE_AIRLINE = 20;\n    uint8 private constant STATUS_CODE_LATE_WEATHER = 30;\n    uint8 private constant STATUS_CODE_LATE_TECHNICAL = 40;\n    uint8 private constant STATUS_CODE_LATE_OTHER = 50;\n\n    uint8 private constant CONSENSUS_THRESHOLD = 4;\n    uint8 private constant VOTE_SUCCESS_THRESHOLD = 2;\n\n    uint256 public constant MAX_INSURANCE_AMOUNT = 1 ether;\n    uint256 public constant MIN_AIRLINE_FUNDING = 10 ether;\n\n    address public contractOwner; // Account used to deploy contract\n    address payable public  dataContractAddress;\n\n    FlightSuretyData private flightData;\n\n    /********************************************************************************************/\n    /*                                       CONSTRUCTOR                                        */\n    /********************************************************************************************/\n\n    constructor(address payable dataContract) {\n        contractOwner = msg.sender;\n        dataContractAddress = dataContract;\n        flightData = FlightSuretyData(dataContract);\n    }\n\n    /********************************************************************************************/\n    /*                                       FUNCTION MODIFIERS                                 */\n    /********************************************************************************************/\n\n    modifier requireIsOperational() {\n        // Modify to call data contract's status\n        require(\n            flightData.isOperational() == true,\n            \"Contract is currently not operational\"\n        );\n        _; // All modifiers require an \"_\" which indicates where the function body will be added\n    }\n\n    modifier requireContractOwner() {\n        require(msg.sender == contractOwner, \"Caller is not contract owner\");\n        _;\n    }\n\n    modifier requireRegisteredAirlineCaller() {\n        require(\n            flightData.isAirlineRegistered(msg.sender) == true,\n            \"Only an existing airline may register an airline or participate in consensus\"\n        );\n        _;\n    }\n\n    modifier requireFundedAirlineCaller() {\n        require(\n            flightData.isAirlineFunded(msg.sender) == true,\n            \"Only a funded airline may register an airline or participate in consensus\"\n        );\n        _;\n    }\n\n    modifier requireNominated(address airlineAddress) {\n        require(\n            flightData.isAirlineNominated(airlineAddress) == true,\n            \"Airline cannot be registered\"\n        );\n        _;\n    }\n\n    modifier requireNotRegistered(address airlineAddress) {\n        require(\n            flightData.isAirlineRegistered(airlineAddress) != true,\n            \"Airline is already registered\"\n        );\n        _;\n    }\n\n    modifier requireNotFunded(address airlineAddress) {\n        require(\n            flightData.isAirlineFunded(airlineAddress) != true,\n            \"Airline is already funded\"\n        );\n        _;\n    }\n\n    modifier requireFlightRegistered(\n        address airline,\n        string memory flight,\n        uint256 departureTime\n    ) {\n        require(\n            isFlightRegistered(airline, flight, departureTime) == true,\n            \"Flight must be registered\"\n        );\n        _;\n    }\n\n    modifier rejectOverpayment() {\n        require(\n            msg.value <= MAX_INSURANCE_AMOUNT,\n            \"A maximum of 1 ether may be sent to purchase insurance\"\n        );\n        _;\n    }\n\n    modifier requireSufficientReserves(\n        address airlineAddress,\n        uint256 insuranceAmount\n    ) {\n        uint256 grossExposure =\n            flightData\n                .totalUnderwritten(airlineAddress)\n                .add(insuranceAmount)\n                .mul(3)\n                .div(2);\n        require(\n            grossExposure <= flightData.amountAirlineFunds(airlineAddress),\n            \"Airline has insufficient reserves to underwrite flight insurance\"\n        );\n        _;\n    }\n\n    modifier requireRegisteredOracle(address oracleAddress) {\n        require(\n            oracles[oracleAddress].isRegistered == true,\n            \"Oracle must be registered to submit responses\"\n        );\n        _;\n    }\n\n    /********************************************************************************************/\n    /*                                       EVENTS                                             */\n    /********************************************************************************************/\n\n    event AirlineNominated(address indexed airlineAddress);\n\n    event AirlineRegistered(address indexed airlineAddress);\n\n    event AirlineFunded(\n        address indexed airlineAddress,\n        uint256 amount\n    );\n\n    event FlightRegistered(\n        address indexed airlineAddress,\n        string flight\n    );\n\n    event InsurancePurchased(address indexed passengerAddress, uint256 amount);\n\n    event InsurancePayout(address indexed airlineAddress, string flight);\n\n    event InsuranceWithdrawal(address indexed passengerAddress, uint256 amount);\n\n    event FlightStatusInfo(\n        address airline,\n        string flight,\n        uint256 departureTime,\n        uint8 status\n    );\n\n    event OracleRequest(\n        uint8 index,\n        address airline,\n        string flight,\n        uint256 departureTime\n    );\n\n    event OracleReport(\n        address airline,\n        string flight,\n        uint256 departureTime,\n        uint8 status\n    );\n\n    event OracleRegistered(address indexed oracleAddress, uint8[3] indexes);\n\n    /********************************************************************************************/\n    /*                                       UTILITY FUNCTIONS                                  */\n    /********************************************************************************************/\n\n    function isOperational() external view returns (bool) {\n        return flightData.isOperational(); // Modify to call data contract's status\n    }\n\n    function setOperationalStatus(bool mode)\n        external\n        requireContractOwner\n        returns (bool)\n    {\n        return flightData.setOperationalStatus(mode);\n    }\n\n    /********************************************************************************************/\n    /*                                     SMART CONTRACT FUNCTIONS                             */\n    /********************************************************************************************/\n\n    function isAirlineNominated(address airlineAddress)\n        external\n        view\n        requireIsOperational\n        returns (bool)\n    {\n        return flightData.isAirlineNominated(airlineAddress);\n    }\n\n    function isAirlineRegistered(address airlineAddress)\n        external\n        view\n        requireIsOperational\n        returns (bool)\n    {\n        return flightData.isAirlineRegistered(airlineAddress);\n    }\n\n    function isAirlineFunded(address airlineAddress)\n        external\n        view\n        requireIsOperational\n        returns (bool)\n    {\n        return flightData.isAirlineFunded(airlineAddress);\n    }\n\n    function nominateAirline(address airlineAddress)\n        external\n        requireIsOperational\n    {\n        flightData.nominateAirline(airlineAddress);\n        emit AirlineNominated(airlineAddress);\n    }\n\n    function registerAirline(address airlineAddress)\n        external\n        requireIsOperational\n        requireFundedAirlineCaller\n        requireNotFunded(airlineAddress)\n        requireNotRegistered(airlineAddress)\n        requireNominated(airlineAddress)\n        returns (bool success)\n    {\n        uint256 votes = flightData.voteAirline(airlineAddress, msg.sender);\n        if (flightData.registeredAirlineCount() >= CONSENSUS_THRESHOLD) {\n            if (votes >= flightData.registeredAirlineCount().div(VOTE_SUCCESS_THRESHOLD)) {\n                success = flightData.registerAirline(airlineAddress);\n                emit AirlineRegistered(airlineAddress);\n            } else {\n                success = false; // not enough votes\n            }\n        } else {\n            // no conensus required\n            success = flightData.registerAirline(airlineAddress);\n            emit AirlineRegistered(airlineAddress);\n        }\n        return success; // cannot have votes if just registered\n    }\n\n    function numberAirlineVotes(address airlineAddress)\n        external\n        view\n        requireIsOperational\n        returns (uint256 votes)\n    {\n        return flightData.numberAirlineVotes(airlineAddress);\n    }\n\n    function fundAirline()\n        external\n        payable\n        requireIsOperational\n        requireRegisteredAirlineCaller\n    {\n        require(\n            msg.value >= MIN_AIRLINE_FUNDING,\n            \"Airline funding requires at least 10 Ether\"\n        );\n        dataContractAddress.transfer(msg.value);\n        flightData.fundAirline(msg.sender, msg.value);\n        emit AirlineFunded(msg.sender, msg.value);\n    }\n\n    function amountAirlineFunds(address airlineAddress)\n        external\n        view\n        requireIsOperational\n        returns (uint256)\n    {\n        return flightData.amountAirlineFunds(airlineAddress);\n    }\n\n    function isFlightRegistered(\n        address airline,\n        string memory flight,\n        uint256 departureTime\n    ) public view requireIsOperational returns (bool) {\n        bytes32 flightKey = getFlightKey(airline, flight, departureTime);\n        return flightData.isFlightRegistered(flightKey);\n    }\n\n    function registerFlight(\n        string memory flight,\n        uint256 departureTime // this was a hard bug to fix, args needs to be held in memory\n    ) external requireIsOperational requireFundedAirlineCaller {\n        flightData.registerFlight(\n            msg.sender,\n            flight,\n            departureTime,\n            STATUS_CODE_UNKNOWN\n        );\n        emit FlightRegistered(msg.sender, flight);\n    }\n\n    function officialFlightStatus(\n        address airline,\n        string memory flightName,\n        uint256 departureTime\n    ) external view requireIsOperational returns (uint8) {\n        bytes32 flightKey = getFlightKey(airline, flightName, departureTime);\n        return flightData.getFlightStatus(flightKey);\n    }\n\n    function buyFlightInsurance(\n        address airline,\n        string memory flight,\n        uint256 departureTime\n    )\n        external\n        payable\n        requireIsOperational\n        rejectOverpayment\n        requireSufficientReserves(airline, msg.value)\n    {\n        bytes32 key = getFlightKey(airline, flight, departureTime);\n        flightData.buyInsurance(msg.sender, msg.value, key, airline);\n        dataContractAddress.transfer(msg.value);\n        emit InsurancePurchased(msg.sender, msg.value);\n    }\n\n    function isPassengerInsured(\n        address passenger,\n        address airline,\n        string memory flight,\n        uint256 departureTime\n    ) external view requireIsOperational returns (bool) {\n        bytes32 key = getFlightKey(airline, flight, departureTime);\n        return flightData.isPassengerInsured(passenger, key);\n    }\n\n    function isPaidOut(\n        address airline,\n        string memory flight,\n        uint256 departureTime\n    ) external view requireIsOperational returns (bool) {\n        bytes32 key = getFlightKey(airline, flight, departureTime);\n        return flightData.isPaidOut(key);\n    }\n\n    function passengerBalance(address passengerAddress)\n        external\n        view\n        requireIsOperational\n        returns (uint256)\n    {\n        return flightData.currentPassengerBalance(passengerAddress);\n    }\n\n    function withdrawBalance(uint256 withdrawalAmount)\n        external\n        requireIsOperational\n    {\n        flightData.payPassenger(msg.sender, withdrawalAmount);\n        emit InsuranceWithdrawal(msg.sender, withdrawalAmount);\n    }\n\n    /********************************************************************************************/\n    /*                                       ORACLES                                            */\n    /********************************************************************************************/\n\n    uint8 private nonce = 0;\n    uint256 public constant REGISTRATION_FEE = 1 ether;\n    uint256 private constant MIN_RESPONSES = 3;\n\n    struct Oracle {\n        bool isRegistered;\n        uint8[3] indexes;\n    }\n\n    mapping(address => Oracle) private oracles;\n\n    function isOracleRegistered(address oracleAddress)\n        public\n        view\n        requireIsOperational\n        returns (bool)\n    {\n        return oracles[oracleAddress].isRegistered;\n    }\n\n    function registerOracle() external payable requireIsOperational {\n        require(msg.value >= REGISTRATION_FEE, \"Registration fee is required\");\n        uint8[3] memory indexes = generateIndexes(msg.sender);\n        Oracle storage oracle = oracles[msg.sender];\n        oracle.isRegistered = true;\n        oracle.indexes = indexes;\n        dataContractAddress.transfer(msg.value);\n        emit OracleRegistered(msg.sender, indexes);\n    }\n\n    function getMyIndexes() external view returns (uint8[3] memory) {\n        require(\n            oracles[msg.sender].isRegistered,\n            \"Not registered as an oracle\"\n        );\n        return oracles[msg.sender].indexes;\n    }\n\n    function fetchFlightStatus\n                        (\n                            address airline,\n                            string memory flight,\n                            uint256 timestamp                            \n                        )\n                        external\n    {\n        uint8 index = getRandomIndex(msg.sender);\n        openOracleResponse(index, airline, flight, timestamp);\n    }\n\n    struct ResponseInfo {\n        address requester;\n        bool isOpen;\n        mapping(uint8 => address[]) responses;\n    }\n    \n\n    mapping(bytes32 => ResponseInfo) private oracleResponses;\n    \n     modifier validateOracle(uint8 index) {\n        require((oracles[msg.sender].indexes[0] == index) || (oracles[msg.sender].indexes[1] == index) || (oracles[msg.sender].indexes[2] == index), \"Index does not match oracle request\");\n        _;\n    }\n\n    function openOracleResponse(\n                            uint8 index,\n                            address airline,\n                            string memory flight,\n                            uint256 timestamp\n                        ) internal \n    {\n        bytes32 key = keccak256(abi.encodePacked(index, airline, flight, timestamp));\n        \n        ResponseInfo storage response = oracleResponses[key];\n        response.requester = msg.sender;\n        response.isOpen = true;\n        \n        emit OracleRequest(index, airline, flight, timestamp);\n    }\n\n    function submitOracleResponse\n                        (\n                            uint8 index,\n                            address airline,\n                            string memory flight,\n                            uint256 departureTime,\n                            uint8 statusCode\n                        )\n                        external\n                        validateOracle(index)\n    {\n        bytes32 key = keccak256(abi.encodePacked(index, airline, flight, departureTime));\n        require(oracleResponses[key].isOpen == true, \"Key does not match oracle request\");\n        oracleResponses[key].responses[statusCode].push(msg.sender);\n        emit OracleReport(airline, flight, departureTime, statusCode);\n        if (oracleResponses[key].responses[statusCode].length >= MIN_RESPONSES) {\n            emit FlightStatusInfo(airline, flight, departureTime, statusCode);\n            processFlightStatus(airline, flight, departureTime, statusCode);\n        }\n    }\n    \n\n    function processFlightStatus(\n        address airline,\n        string memory flight,\n        uint256 departureTime,\n        uint8 statusCode\n    ) internal {\n        bytes32 flightKey = getFlightKey(airline, flight, departureTime);\n        flightData.updateFlightStatus(statusCode, flightKey);\n        if (statusCode == STATUS_CODE_LATE_AIRLINE) {\n            flightData.creditInsurees(flightKey, airline);\n            emit InsurancePayout(airline, flight);\n        }\n    }\n\n    function getFlightKey(\n        address airline,\n        string memory flight,\n        uint256 departureTime\n    ) internal pure returns (bytes32) {\n        return keccak256(abi.encodePacked(airline, flight, departureTime));\n    }\n\n    function generateIndexes(address account) internal returns (uint8[3] memory) {\n        uint8[3] memory indexes;\n        indexes[0] = getRandomIndex(account);\n\n        indexes[1] = indexes[0];\n        while (indexes[1] == indexes[0]) {\n            indexes[1] = getRandomIndex(account);\n        }\n\n        indexes[2] = indexes[1];\n        while ((indexes[2] == indexes[0]) || (indexes[2] == indexes[1])) {\n            indexes[2] = getRandomIndex(account);\n        }\n\n        return indexes;\n    }\n\n    function getRandomIndex(address account)\n        internal\n        returns (uint8)\n    {\n        uint8 maxValue = 10;\n        // Pseudo random number...the incrementing nonce adds variation\n        uint8 random =\n            uint8(\n                uint256(\n                    keccak256(\n                        abi.encodePacked(\n                            blockhash(block.number - nonce++),\n                            account\n                        )\n                    )\n                ) % maxValue\n            );\n\n        if (nonce > 250) {\n            nonce = 0; // Can only fetch blockhashes for last 256 blocks so we adapt\n        }\n        return random;\n    }\n}\n",
  "sourcePath": "/Users/galen/code/udacity/udacity-blockchain-developer/project4/contracts/FlightSuretyApp.sol",
  "compiler": {
    "name": "solc",
    "version": "0.7.6+commit.7338295f.Emscripten.clang"
  },
  "schemaVersion": "3.3.2",
  "updatedAt": "2021-01-15T15:25:36.543Z",
  "networkType": "ethereum",
  "devdoc": {
    "kind": "dev",
    "methods": {},
    "version": 1
  },
  "userdoc": {
    "kind": "user",
    "methods": {},
    "version": 1
  }
}