{
  "contractName": "FlightSuretyData",
  "abi": [
    {
      "inputs": [],
      "stateMutability": "nonpayable",
      "type": "constructor"
    },
    {
      "stateMutability": "payable",
      "type": "fallback",
      "payable": true
    },
    {
      "inputs": [],
      "name": "registeredAirlineCount",
      "outputs": [
        {
          "internalType": "uint256",
          "name": "",
          "type": "uint256"
        }
      ],
      "stateMutability": "view",
      "type": "function",
      "constant": true
    },
    {
      "stateMutability": "payable",
      "type": "receive",
      "payable": true
    },
    {
      "inputs": [],
      "name": "isOperational",
      "outputs": [
        {
          "internalType": "bool",
          "name": "",
          "type": "bool"
        }
      ],
      "stateMutability": "view",
      "type": "function",
      "constant": true
    },
    {
      "inputs": [
        {
          "internalType": "bool",
          "name": "mode",
          "type": "bool"
        }
      ],
      "name": "setOperationalStatus",
      "outputs": [
        {
          "internalType": "bool",
          "name": "",
          "type": "bool"
        }
      ],
      "stateMutability": "nonpayable",
      "type": "function"
    },
    {
      "inputs": [
        {
          "internalType": "address",
          "name": "_address",
          "type": "address"
        }
      ],
      "name": "authorizeCaller",
      "outputs": [],
      "stateMutability": "nonpayable",
      "type": "function"
    },
    {
      "inputs": [
        {
          "internalType": "address",
          "name": "_address",
          "type": "address"
        }
      ],
      "name": "deauthorizeCaller",
      "outputs": [],
      "stateMutability": "nonpayable",
      "type": "function"
    },
    {
      "inputs": [
        {
          "internalType": "address",
          "name": "airlineAddress",
          "type": "address"
        }
      ],
      "name": "numberAirlineVotes",
      "outputs": [
        {
          "internalType": "uint256",
          "name": "",
          "type": "uint256"
        }
      ],
      "stateMutability": "view",
      "type": "function",
      "constant": true
    },
    {
      "inputs": [
        {
          "internalType": "address",
          "name": "airlineAddress",
          "type": "address"
        }
      ],
      "name": "amountAirlineFunds",
      "outputs": [
        {
          "internalType": "uint256",
          "name": "",
          "type": "uint256"
        }
      ],
      "stateMutability": "view",
      "type": "function",
      "constant": true
    },
    {
      "inputs": [
        {
          "internalType": "address",
          "name": "airlineAddress",
          "type": "address"
        }
      ],
      "name": "isAirlineNominated",
      "outputs": [
        {
          "internalType": "bool",
          "name": "",
          "type": "bool"
        }
      ],
      "stateMutability": "view",
      "type": "function",
      "constant": true
    },
    {
      "inputs": [
        {
          "internalType": "address",
          "name": "airlineAddress",
          "type": "address"
        }
      ],
      "name": "isAirlineRegistered",
      "outputs": [
        {
          "internalType": "bool",
          "name": "",
          "type": "bool"
        }
      ],
      "stateMutability": "view",
      "type": "function",
      "constant": true
    },
    {
      "inputs": [
        {
          "internalType": "address",
          "name": "airlineAddress",
          "type": "address"
        }
      ],
      "name": "isAirlineFunded",
      "outputs": [
        {
          "internalType": "bool",
          "name": "",
          "type": "bool"
        }
      ],
      "stateMutability": "view",
      "type": "function",
      "constant": true
    },
    {
      "inputs": [
        {
          "internalType": "address",
          "name": "airlineAddress",
          "type": "address"
        }
      ],
      "name": "nominateAirline",
      "outputs": [],
      "stateMutability": "nonpayable",
      "type": "function"
    },
    {
      "inputs": [
        {
          "internalType": "address",
          "name": "airlineAddress",
          "type": "address"
        }
      ],
      "name": "registerAirline",
      "outputs": [
        {
          "internalType": "bool",
          "name": "",
          "type": "bool"
        }
      ],
      "stateMutability": "nonpayable",
      "type": "function"
    },
    {
      "inputs": [
        {
          "internalType": "address",
          "name": "airlineAddress",
          "type": "address"
        },
        {
          "internalType": "address",
          "name": "voterAddress",
          "type": "address"
        }
      ],
      "name": "voteAirline",
      "outputs": [
        {
          "internalType": "uint256",
          "name": "",
          "type": "uint256"
        }
      ],
      "stateMutability": "nonpayable",
      "type": "function"
    },
    {
      "inputs": [
        {
          "internalType": "address",
          "name": "airlineAddress",
          "type": "address"
        },
        {
          "internalType": "uint256",
          "name": "fundingAmount",
          "type": "uint256"
        }
      ],
      "name": "fundAirline",
      "outputs": [
        {
          "internalType": "uint256",
          "name": "",
          "type": "uint256"
        }
      ],
      "stateMutability": "nonpayable",
      "type": "function"
    },
    {
      "inputs": [
        {
          "internalType": "address",
          "name": "airline",
          "type": "address"
        },
        {
          "internalType": "string",
          "name": "flight",
          "type": "string"
        },
        {
          "internalType": "uint256",
          "name": "departureTime",
          "type": "uint256"
        },
        {
          "internalType": "uint8",
          "name": "statusCode",
          "type": "uint8"
        }
      ],
      "name": "registerFlight",
      "outputs": [
        {
          "internalType": "bool",
          "name": "",
          "type": "bool"
        }
      ],
      "stateMutability": "nonpayable",
      "type": "function"
    },
    {
      "inputs": [
        {
          "internalType": "uint8",
          "name": "statusCode",
          "type": "uint8"
        },
        {
          "internalType": "bytes32",
          "name": "flightKey",
          "type": "bytes32"
        }
      ],
      "name": "updateFlightStatus",
      "outputs": [],
      "stateMutability": "nonpayable",
      "type": "function"
    },
    {
      "inputs": [
        {
          "internalType": "bytes32",
          "name": "flightKey",
          "type": "bytes32"
        }
      ],
      "name": "isFlightRegistered",
      "outputs": [
        {
          "internalType": "bool",
          "name": "",
          "type": "bool"
        }
      ],
      "stateMutability": "view",
      "type": "function",
      "constant": true
    },
    {
      "inputs": [
        {
          "internalType": "bytes32",
          "name": "flightKey",
          "type": "bytes32"
        }
      ],
      "name": "getFlightStatus",
      "outputs": [
        {
          "internalType": "uint8",
          "name": "",
          "type": "uint8"
        }
      ],
      "stateMutability": "view",
      "type": "function",
      "constant": true
    },
    {
      "inputs": [
        {
          "internalType": "address",
          "name": "airlineAddress",
          "type": "address"
        }
      ],
      "name": "totalUnderwritten",
      "outputs": [
        {
          "internalType": "uint256",
          "name": "",
          "type": "uint256"
        }
      ],
      "stateMutability": "view",
      "type": "function",
      "constant": true
    },
    {
      "inputs": [
        {
          "internalType": "address",
          "name": "passengerAddress",
          "type": "address"
        },
        {
          "internalType": "uint256",
          "name": "insuranceAmount",
          "type": "uint256"
        },
        {
          "internalType": "bytes32",
          "name": "flightKey",
          "type": "bytes32"
        },
        {
          "internalType": "address",
          "name": "airlineAddress",
          "type": "address"
        }
      ],
      "name": "buyInsurance",
      "outputs": [],
      "stateMutability": "nonpayable",
      "type": "function"
    },
    {
      "inputs": [
        {
          "internalType": "address",
          "name": "passengerAddress",
          "type": "address"
        },
        {
          "internalType": "bytes32",
          "name": "flightKey",
          "type": "bytes32"
        }
      ],
      "name": "isPassengerInsured",
      "outputs": [
        {
          "internalType": "bool",
          "name": "",
          "type": "bool"
        }
      ],
      "stateMutability": "view",
      "type": "function",
      "constant": true
    },
    {
      "inputs": [
        {
          "internalType": "bytes32",
          "name": "flightKey",
          "type": "bytes32"
        }
      ],
      "name": "isPaidOut",
      "outputs": [
        {
          "internalType": "bool",
          "name": "",
          "type": "bool"
        }
      ],
      "stateMutability": "view",
      "type": "function",
      "constant": true
    },
    {
      "inputs": [
        {
          "internalType": "address",
          "name": "passengerAddress",
          "type": "address"
        }
      ],
      "name": "currentPassengerBalance",
      "outputs": [
        {
          "internalType": "uint256",
          "name": "",
          "type": "uint256"
        }
      ],
      "stateMutability": "view",
      "type": "function",
      "constant": true
    },
    {
      "inputs": [
        {
          "internalType": "bytes32",
          "name": "flightKey",
          "type": "bytes32"
        },
        {
          "internalType": "address",
          "name": "airlineAddress",
          "type": "address"
        }
      ],
      "name": "creditInsurees",
      "outputs": [],
      "stateMutability": "nonpayable",
      "type": "function"
    },
    {
      "inputs": [
        {
          "internalType": "address payable",
          "name": "insured",
          "type": "address"
        },
        {
          "internalType": "uint256",
          "name": "amount",
          "type": "uint256"
        }
      ],
      "name": "payPassenger",
      "outputs": [],
      "stateMutability": "nonpayable",
      "type": "function"
    }
  ],
  "bytecode": "0x60806040526000805460ff60a01b1916600160a01b17815560065534801561002657600080fd5b50600080546001600160a01b03191633178082556001600160a01b03168152600160208190526040909120805460ff1916909117905561213e8061006b6000396000f3fe60806040526004361061016a5760003560e01c806379fca285116100d1578063ce590aad1161008a578063f1a81e7211610064578063f1a81e7214610698578063f53b6d65146106d1578063ff50653314610704578063ffc758e11461073757610171565b8063ce590aad14610570578063d9d412261461059a578063e30ff2841461066557610171565b806379fca285146104475780638af8c8bc1461048757806397628295146104ba578063bdfd9877146104ed578063c5323de514610520578063cd905dff1461055b57610171565b80635122cb38116101235780635122cb381461033757806358ac36a3146103635780636873c21d1461038d5780636c09b178146103c05780636d86536a146103d55780637860212c1461040e57610171565b8063010c5c97146101cb5780632393f9c6146102125780632c388d5d146102575780633adf611e1461028a57806340903e39146102bd5780634a3595c2146102f057610171565b3661017157005b3360009081526001602081905260409091205460ff161515146101c9576040805162461bcd60e51b815260206004820152601860248201526000805160206120a3833981519152604482015290519081900360640190fd5b005b3480156101d757600080fd5b506101fe600480360360208110156101ee57600080fd5b50356001600160a01b0316610770565b604080519115158252519081900360200190f35b34801561021e57600080fd5b506102456004803603602081101561023557600080fd5b50356001600160a01b0316610877565b60408051918252519081900360200190f35b34801561026357600080fd5b506101c96004803603602081101561027a57600080fd5b50356001600160a01b0316610937565b34801561029657600080fd5b50610245600480360360208110156102ad57600080fd5b50356001600160a01b0316610a05565b3480156102c957600080fd5b50610245600480360360208110156102e057600080fd5b50356001600160a01b0316610ac5565b3480156102fc57600080fd5b506101c96004803603608081101561031357600080fd5b506001600160a01b0381358116916020810135916040820135916060013516610b86565b34801561034357600080fd5b506101fe6004803603602081101561035a57600080fd5b50351515610ca0565b34801561036f57600080fd5b506101fe6004803603602081101561038657600080fd5b5035610d1b565b34801561039957600080fd5b506101c9600480360360208110156103b057600080fd5b50356001600160a01b0316610dd2565b3480156103cc57600080fd5b50610245610e9a565b3480156103e157600080fd5b506101c9600480360360408110156103f857600080fd5b506001600160a01b038135169060200135610ea0565b34801561041a57600080fd5b506101fe6004803603604081101561043157600080fd5b506001600160a01b03813516906020013561100c565b34801561045357600080fd5b506104716004803603602081101561046a57600080fd5b50356110d7565b6040805160ff9092168252519081900360200190f35b34801561049357600080fd5b506101c9600480360360408110156104aa57600080fd5b5060ff8135169060200135611192565b3480156104c657600080fd5b506101c9600480360360208110156104dd57600080fd5b50356001600160a01b0316611258565b3480156104f957600080fd5b506101fe6004803603602081101561051057600080fd5b50356001600160a01b0316611392565b34801561052c57600080fd5b506102456004803603604081101561054357600080fd5b506001600160a01b0381358116916020013516611466565b34801561056757600080fd5b506101fe611554565b34801561057c57600080fd5b506101fe6004803603602081101561059357600080fd5b5035611564565b3480156105a657600080fd5b506101fe600480360360808110156105bd57600080fd5b6001600160a01b0382351691908101906040810160208201356401000000008111156105e857600080fd5b8201836020820111156105fa57600080fd5b8035906020019184600183028401116401000000008311171561061c57600080fd5b91908080601f016020809104026020016040519081016040528093929190818152602001838380828437600092019190915250929550508235935050506020013560ff1661161e565b34801561067157600080fd5b506102456004803603602081101561068857600080fd5b50356001600160a01b0316611796565b3480156106a457600080fd5b50610245600480360360408110156106bb57600080fd5b506001600160a01b038135169060200135611853565b3480156106dd57600080fd5b506101fe600480360360208110156106f457600080fd5b50356001600160a01b0316611950565b34801561071057600080fd5b506101fe6004803603602081101561072757600080fd5b50356001600160a01b03166119f8565b34801561074357600080fd5b506101c96004803603604081101561075a57600080fd5b50803590602001356001600160a01b0316611aa0565b60008054600160a01b900460ff166107b95760405162461bcd60e51b81526004018080602001828103825260258152602001806120e46025913960400191505060405180910390fd5b3360009081526001602081905260409091205460ff16151514610811576040805162461bcd60e51b815260206004820152601860248201526000805160206120a3833981519152604482015290519081900360640190fd5b60016001600160a01b03831660009081526002602081905260409091205460ff169081111561083c57fe5b1480610871575060025b6001600160a01b03831660009081526002602081905260409091205460ff169081111561086f57fe5b145b92915050565b60008054600160a01b900460ff166108c05760405162461bcd60e51b81526004018080602001828103825260258152602001806120e46025913960400191505060405180910390fd5b3360009081526001602081905260409091205460ff16151514610918576040805162461bcd60e51b815260206004820152601860248201526000805160206120a3833981519152604482015290519081900360640190fd5b506001600160a01b031660009081526002602052604090206003015490565b600054600160a01b900460ff1661097f5760405162461bcd60e51b81526004018080602001828103825260258152602001806120e46025913960400191505060405180910390fd5b6000546001600160a01b031633146109de576040805162461bcd60e51b815260206004820152601c60248201527f43616c6c6572206973206e6f7420636f6e7472616374206f776e657200000000604482015290519081900360640190fd5b6001600160a01b03166000908152600160208190526040909120805460ff19169091179055565b60008054600160a01b900460ff16610a4e5760405162461bcd60e51b81526004018080602001828103825260258152602001806120e46025913960400191505060405180910390fd5b3360009081526001602081905260409091205460ff16151514610aa6576040805162461bcd60e51b815260206004820152601860248201526000805160206120a3833981519152604482015290519081900360640190fd5b506001600160a01b031660009081526002602052604090206001015490565b60008054600160a01b900460ff16610b0e5760405162461bcd60e51b81526004018080602001828103825260258152602001806120e46025913960400191505060405180910390fd5b3360009081526001602081905260409091205460ff16151514610b66576040805162461bcd60e51b815260206004820152601860248201526000805160206120a3833981519152604482015290519081900360640190fd5b506001600160a01b03166000908152600260208190526040909120015490565b600054600160a01b900460ff16610bce5760405162461bcd60e51b81526004018080602001828103825260258152602001806120e46025913960400191505060405180910390fd5b3360009081526001602081905260409091205460ff16151514610c26576040805162461bcd60e51b815260206004820152601860248201526000805160206120a3833981519152604482015290519081900360640190fd5b6001600160a01b038116600090815260026020526040902060030154610c4c9084611ca5565b505060009081526004602081815260408084206001600160a01b03909616808552868352908420949094559081526001938401805494850181558252902090910180546001600160a01b0319169091179055565b33600090815260016020819052604082205460ff16151514610cf7576040805162461bcd60e51b815260206004820152601860248201526000805160206120a3833981519152604482015290519081900360640190fd5b506000805460ff60a01b1916600160a01b9215158302179081905560ff9190041690565b60008054600160a01b900460ff16610d645760405162461bcd60e51b81526004018080602001828103825260258152602001806120e46025913960400191505060405180910390fd5b3360009081526001602081905260409091205460ff16151514610dbc576040805162461bcd60e51b815260206004820152601860248201526000805160206120a3833981519152604482015290519081900360640190fd5b5060009081526003602052604090205460ff1690565b600054600160a01b900460ff16610e1a5760405162461bcd60e51b81526004018080602001828103825260258152602001806120e46025913960400191505060405180910390fd5b6000546001600160a01b03163314610e79576040805162461bcd60e51b815260206004820152601c60248201527f43616c6c6572206973206e6f7420636f6e7472616374206f776e657200000000604482015290519081900360640190fd5b6001600160a01b03166000908152600160205260409020805460ff19169055565b60065481565b600054600160a01b900460ff16610ee85760405162461bcd60e51b81526004018080602001828103825260258152602001806120e46025913960400191505060405180910390fd5b3360009081526001602081905260409091205460ff16151514610f40576040805162461bcd60e51b815260206004820152601860248201526000805160206120a3833981519152604482015290519081900360640190fd5b6001600160a01b03821660009081526005602052604090205482908290811115610f9b5760405162461bcd60e51b81526004018080602001828103825260228152602001806120606022913960400191505060405180910390fd5b6001600160a01b038416600090815260056020526040902054610fbe9084611d06565b6001600160a01b038516600081815260056020526040808220939093559151909185156108fc02918691818181858888f19350505050158015611005573d6000803e3d6000fd5b5050505050565b60008054600160a01b900460ff166110555760405162461bcd60e51b81526004018080602001828103825260258152602001806120e46025913960400191505060405180910390fd5b3360009081526001602081905260409091205460ff161515146110ad576040805162461bcd60e51b815260206004820152601860248201526000805160206120a3833981519152604482015290519081900360640190fd5b5060009081526004602090815260408083206001600160a01b039490941683529290522054151590565b60008054600160a01b900460ff166111205760405162461bcd60e51b81526004018080602001828103825260258152602001806120e46025913960400191505060405180910390fd5b3360009081526001602081905260409091205460ff16151514611178576040805162461bcd60e51b815260206004820152601860248201526000805160206120a3833981519152604482015290519081900360640190fd5b506000908152600360208190526040909120015460ff1690565b600054600160a01b900460ff166111da5760405162461bcd60e51b81526004018080602001828103825260258152602001806120e46025913960400191505060405180910390fd5b3360009081526001602081905260409091205460ff16151514611232576040805162461bcd60e51b815260206004820152601860248201526000805160206120a3833981519152604482015290519081900360640190fd5b600090815260036020819052604090912001805460ff191660ff92909216919091179055565b600054600160a01b900460ff166112a05760405162461bcd60e51b81526004018080602001828103825260258152602001806120e46025913960400191505060405180910390fd5b3360009081526001602081905260409091205460ff161515146112f8576040805162461bcd60e51b815260206004820152601860248201526000805160206120a3833981519152604482015290519081900360640190fd5b60408051608081018252600080825282518181526020808201855280840191909152828401829052606083018290526001600160a01b038516825260029081905292902081518154929391929091839160ff191690600190849081111561135b57fe5b021790555060208281015180516113789260018501920190611f69565b506040820151600282015560609091015160039091015550565b60008054600160a01b900460ff166113db5760405162461bcd60e51b81526004018080602001828103825260258152602001806120e46025913960400191505060405180910390fd5b3360009081526001602081905260409091205460ff16151514611433576040805162461bcd60e51b815260206004820152601860248201526000805160206120a3833981519152604482015290519081900360640190fd5b6001600160a01b0382166000908152600260205260409020805460ff191660019081179091556006805482019055610846565b60008054600160a01b900460ff166114af5760405162461bcd60e51b81526004018080602001828103825260258152602001806120e46025913960400191505060405180910390fd5b3360009081526001602081905260409091205460ff16151514611507576040805162461bcd60e51b815260206004820152601860248201526000805160206120a3833981519152604482015290519081900360640190fd5b506001600160a01b03918216600081815260026020908152604082206001908101805491820181558084529183200180546001600160a01b03191694909516939093179093559091525490565b600054600160a01b900460ff1690565b60008054600160a01b900460ff166115ad5760405162461bcd60e51b81526004018080602001828103825260258152602001806120e46025913960400191505060405180910390fd5b3360009081526001602081905260409091205460ff16151514611605576040805162461bcd60e51b815260206004820152601860248201526000805160206120a3833981519152604482015290519081900360640190fd5b5060009081526004602052604090206002015460ff1690565b60008054600160a01b900460ff166116675760405162461bcd60e51b81526004018080602001828103825260258152602001806120e46025913960400191505060405180910390fd5b3360009081526001602081905260409091205460ff161515146116bf576040805162461bcd60e51b815260206004820152601860248201526000805160206120a3833981519152604482015290519081900360640190fd5b60006116cc868686611d48565b6040805160a08101825260018082526001600160a01b038a811660208085019182528486018c8152606086018c905260ff8b1660808701526000888152600383529690962085518154935160ff1990941690151517610100600160a81b0319166101009390941692909202929092178155935180519596509294611757939285019290910190611fce565b50606082015160028201556080909101516003918201805460ff191660ff92831617905560009283526020919091526040909120541695945050505050565b60008054600160a01b900460ff166117df5760405162461bcd60e51b81526004018080602001828103825260258152602001806120e46025913960400191505060405180910390fd5b3360009081526001602081905260409091205460ff16151514611837576040805162461bcd60e51b815260206004820152601860248201526000805160206120a3833981519152604482015290519081900360640190fd5b506001600160a01b031660009081526005602052604090205490565b60008054600160a01b900460ff1661189c5760405162461bcd60e51b81526004018080602001828103825260258152602001806120e46025913960400191505060405180910390fd5b3360009081526001602081905260409091205460ff161515146118f4576040805162461bcd60e51b815260206004820152601860248201526000805160206120a3833981519152604482015290519081900360640190fd5b6001600160a01b0383166000908152600260208190526040909120015461191b9083611ca5565b6001600160a01b03939093166000908152600260208190526040909120808201859055805460ff191690911790555090919050565b60008054600160a01b900460ff166119995760405162461bcd60e51b81526004018080602001828103825260258152602001806120e46025913960400191505060405180910390fd5b3360009081526001602081905260409091205460ff161515146119f1576040805162461bcd60e51b815260206004820152601860248201526000805160206120a3833981519152604482015290519081900360640190fd5b6002610846565b60008054600160a01b900460ff16611a415760405162461bcd60e51b81526004018080602001828103825260258152602001806120e46025913960400191505060405180910390fd5b3360009081526001602081905260409091205460ff16151514611a99576040805162461bcd60e51b815260206004820152601860248201526000805160206120a3833981519152604482015290519081900360640190fd5b6000610846565b600054600160a01b900460ff16611ae85760405162461bcd60e51b81526004018080602001828103825260258152602001806120e46025913960400191505060405180910390fd5b3360009081526001602081905260409091205460ff16151514611b40576040805162461bcd60e51b815260206004820152601860248201526000805160206120a3833981519152604482015290519081900360640190fd5b60008281526004602052604090206002015460ff1615611b915760405162461bcd60e51b81526004018080602001828103825260218152602001806120826021913960400191505060405180910390fd5b60005b600083815260046020526040902060010154811015611c85576000838152600460205260408120600101805483908110611bca57fe5b60009182526020808320909101548683526004825260408084206001600160a01b03909216808552919092529082205490925090611c146002611c0e846003611dd2565b90611e2b565b6001600160a01b038416600090815260056020526040902054909150611c3a9082611ca5565b6001600160a01b038085166000908152600560209081526040808320949094559188168152600291829052919091200154611c759082611d06565b505060019092019150611b949050565b50506000908152600460205260409020600201805460ff19166001179055565b600082820183811015611cff576040805162461bcd60e51b815260206004820152601b60248201527f536166654d6174683a206164646974696f6e206f766572666c6f770000000000604482015290519081900360640190fd5b9392505050565b6000611cff83836040518060400160405280601e81526020017f536166654d6174683a207375627472616374696f6e206f766572666c6f770000815250611e6d565b600083838360405160200180846001600160a01b031660601b815260140183805190602001908083835b60208310611d915780518252601f199092019160209182019101611d72565b51815160209384036101000a600019018019909216911617905292019384525060408051808503815293820190528251920191909120979650505050505050565b600082611de157506000610871565b82820282848281611dee57fe5b0414611cff5760405162461bcd60e51b81526004018080602001828103825260218152602001806120c36021913960400191505060405180910390fd5b6000611cff83836040518060400160405280601a81526020017f536166654d6174683a206469766973696f6e206279207a65726f000000000000815250611f04565b60008184841115611efc5760405162461bcd60e51b81526004018080602001828103825283818151815260200191508051906020019080838360005b83811015611ec1578181015183820152602001611ea9565b50505050905090810190601f168015611eee5780820380516001836020036101000a031916815260200191505b509250505060405180910390fd5b505050900390565b60008183611f535760405162461bcd60e51b8152602060048201818152835160248401528351909283926044909101919085019080838360008315611ec1578181015183820152602001611ea9565b506000838581611f5f57fe5b0495945050505050565b828054828255906000526020600020908101928215611fbe579160200282015b82811115611fbe57825182546001600160a01b0319166001600160a01b03909116178255602090920191600190910190611f89565b50611fca92915061204a565b5090565b828054600181600116156101000203166002900490600052602060002090601f0160209004810192826120045760008555611fbe565b82601f1061201d57805160ff1916838001178555611fbe565b82800160010185558215611fbe579182015b82811115611fbe57825182559160200191906001019061202f565b5b80821115611fca576000815560010161204b56fe5769746864726177616c2065786365656473206163636f756e742062616c616e6365466c6967687420696e737572616e636520616c72656164792070616964206f757443616c6c6572206973206e6f7420617574686f72697a65640000000000000000536166654d6174683a206d756c7469706c69636174696f6e206f766572666c6f77436f6e74726163742069732063757272656e746c79206e6f74206f7065726174696f6e616ca26469706673582212209fd8b2d613dea50fdfc6e5c4e5bcdb40ba7670c2538a0abd87972afa22a2ff6d64736f6c63430007060033",
  "immutableReferences": {},
  "source": "// SPDX-License-Identifier: MIT\n\npragma solidity ^0.7.6;\n\nimport \"./SafeMath.sol\";\n\ncontract FlightSuretyData {\n    using SafeMath for uint256;\n\n    /********************************************************************************************/\n    /*                                       CONTROL VARIABLES                                  */\n    /********************************************************************************************/\n\n    address private contractOwner; // Account used to deploy contract\n    bool private operational = true; // Blocks all state changes throughout the contract if false\n\n    mapping(address => bool) private authorizedCaller;\n\n    constructor() {\n        contractOwner = msg.sender;\n        authorizedCaller[contractOwner] = true; // add contractOwner as an authorized caller\n    }\n\n    /********************************************************************************************/\n    /*                                       FUNCTION MODIFIERS                                 */\n    /********************************************************************************************/\n\n    modifier requireIsOperational() {\n        require(operational, \"Contract is currently not operational\");\n        _; // All modifiers require an \"_\" which indicates where the function body will be added\n    }\n\n    modifier requireContractOwner() {\n        require(msg.sender == contractOwner, \"Caller is not contract owner\");\n        _;\n    }\n\n    modifier requireCallerAuthorized() {\n        require(\n            authorizedCaller[msg.sender] == true,\n            \"Caller is not authorized\"\n        );\n        _;\n    }\n    \n    modifier requireSufficientBalance(address account, uint256 amount) {\n        require(amount<=passengerBalance[account], \"Withdrawal exceeds account balance\");\n        _;\n    }\n\n    /********************************************************************************************/\n    /*                                       UTILITY FUNCTIONS                                  */\n    /********************************************************************************************/\n\n    function isOperational() external view returns (bool) {\n        return operational;\n    }\n\n    function setOperationalStatus(bool mode) external requireCallerAuthorized returns(bool) {\n        operational = mode;\n        return operational;\n    }\n\n    function authorizeCaller(address _address)\n        external\n        requireIsOperational\n        requireContractOwner\n    {\n        authorizedCaller[_address] = true;\n    }\n\n    function deauthorizeCaller(address _address)\n        external\n        requireIsOperational\n        requireContractOwner\n    {\n        delete authorizedCaller[_address];\n    }\n    \n    /********************************************************************************************/\n    /*                                     SMART CONTRACT VARIABLES                             */\n    /********************************************************************************************/\n    \n    // Mappings\n    mapping(address => Airline) private airlines;\n    mapping(bytes32 => Flight) private flights;\n    mapping(bytes32 => FlightInsurance) private flightInsurance;\n    mapping(address => uint256) private passengerBalance;\n\n    // Structs\n    struct Airline {\n        AirlineStatus status;\n        address[] votes;\n        uint256 funds;\n        uint256 underwrittenAmount;\n    }\n    \n    struct FlightInsurance {\n        mapping(address => uint256) purchasedAmount;\n        address[] passengers;\n        bool isPaidOut;\n    }\n    \n    struct Flight {\n        bool isRegistered;\n        address airline;\n        string flight;\n        uint256 departureTime;\n        uint8 statusCode;\n    }\n    \n    // State Variables\n    uint256 public registeredAirlineCount = 0;\n\n    // Enums\n    enum AirlineStatus {Nominated, Registered, Funded}\n\n    /********************************************************************************************/\n    /*                                     SMART CONTRACT FUNCTIONS                             */\n    /********************************************************************************************/\n\n    function numberAirlineVotes(address airlineAddress)\n        external\n        view\n        requireIsOperational\n        requireCallerAuthorized\n        returns (uint256)\n    {\n        return airlines[airlineAddress].votes.length;\n    }\n\n    function amountAirlineFunds(address airlineAddress)\n        external\n        view\n        requireIsOperational\n        requireCallerAuthorized\n        returns (uint256)\n    {\n        return airlines[airlineAddress].funds;\n    }\n\n    function isAirlineNominated(address airlineAddress)\n        external\n        view\n        requireIsOperational\n        requireCallerAuthorized\n        returns (bool)\n    {\n        return airlines[airlineAddress].status == AirlineStatus.Nominated;\n    }\n\n    function isAirlineRegistered(address airlineAddress)\n        external\n        view\n        requireIsOperational\n        requireCallerAuthorized\n        returns (bool)\n    {\n        return airlines[airlineAddress].status == AirlineStatus.Registered || airlines[airlineAddress].status == AirlineStatus.Funded;\n    }\n\n    function isAirlineFunded(address airlineAddress)\n        external\n        view\n        requireIsOperational\n        requireCallerAuthorized\n        returns (bool)\n    {\n        return airlines[airlineAddress].status == AirlineStatus.Funded;\n    }\n\n    function nominateAirline(address airlineAddress)\n        external\n        requireIsOperational\n        requireCallerAuthorized\n    {\n        airlines[airlineAddress] = Airline(\n            AirlineStatus.Nominated, \n            new address[](0), // no votes\n            0, // default no funding\n            0 // no insurance underwritten \n        );\n    }\n\n    function registerAirline(address airlineAddress)\n        external\n        requireIsOperational\n        requireCallerAuthorized\n        returns (bool)\n    {\n        airlines[airlineAddress].status = AirlineStatus.Registered;\n        registeredAirlineCount++;\n        return airlines[airlineAddress].status == AirlineStatus.Registered;\n    }\n\n    function voteAirline(address airlineAddress, address voterAddress)\n        external\n        requireIsOperational\n        requireCallerAuthorized\n        returns (uint256)\n    {\n        airlines[airlineAddress].votes.push(voterAddress);\n        return airlines[airlineAddress].votes.length;\n    }\n\n    function fundAirline(address airlineAddress, uint256 fundingAmount)\n        external\n        requireIsOperational\n        requireCallerAuthorized\n        returns (uint256)\n    {\n        airlines[airlineAddress].funds = airlines[airlineAddress].funds.add(fundingAmount);\n        airlines[airlineAddress].status = AirlineStatus.Funded;\n        return airlines[airlineAddress].funds;\n    }\n\n    function registerFlight(\n        address airline,\n        string memory flight,\n        uint256 departureTime,\n        uint8 statusCode\n    ) external requireIsOperational requireCallerAuthorized returns(bool) {\n        bytes32 key = getFlightKey(airline, flight, departureTime);\n        flights[key] = Flight({\n           isRegistered: true,\n           airline: airline,\n           flight: flight,\n           departureTime: departureTime,\n           statusCode: statusCode\n        });\n        return flights[key].isRegistered;\n    }\n\n    function updateFlightStatus(\n        uint8 statusCode,\n        bytes32 flightKey\n    ) external requireIsOperational requireCallerAuthorized {\n        flights[flightKey].statusCode = statusCode;\n    }\n\n    function isFlightRegistered(\n        bytes32 flightKey\n    ) external view requireIsOperational requireCallerAuthorized returns (bool) {\n        return flights[flightKey].isRegistered;\n    }\n\n    function getFlightStatus(\n        bytes32 flightKey\n    ) external view requireIsOperational requireCallerAuthorized returns (uint8) {\n        return flights[flightKey].statusCode;\n    }\n\n    function totalUnderwritten(address airlineAddress) external view requireIsOperational requireCallerAuthorized \n        returns(uint256)\n    {\n        return airlines[airlineAddress].underwrittenAmount;\n    }\n\n\n    function buyInsurance(address passengerAddress, uint256 insuranceAmount, bytes32 flightKey, address airlineAddress) external\n        requireIsOperational\n        requireCallerAuthorized\n    {\n        airlines[airlineAddress].underwrittenAmount.add(insuranceAmount);\n        flightInsurance[flightKey].purchasedAmount[passengerAddress] = insuranceAmount;\n        flightInsurance[flightKey].passengers.push(passengerAddress);\n    }\n    \n    function isPassengerInsured(address passengerAddress, bytes32 flightKey) \n        external view \n        requireIsOperational\n        requireCallerAuthorized\n        returns(bool)\n    {\n        return flightInsurance[flightKey].purchasedAmount[passengerAddress] > 0;\n    }\n    \n    function isPaidOut(bytes32 flightKey) external view\n        requireIsOperational\n        requireCallerAuthorized\n        returns(bool)\n    {\n        return flightInsurance[flightKey].isPaidOut;\n    }\n    \n    function currentPassengerBalance(address passengerAddress) external view\n        requireIsOperational\n        requireCallerAuthorized\n        returns(uint256)\n    {\n        return passengerBalance[passengerAddress];\n    }\n\n    function creditInsurees(bytes32 flightKey, address airlineAddress) external \n        requireIsOperational\n        requireCallerAuthorized\n    {\n        require(!flightInsurance[flightKey].isPaidOut,\"Flight insurance already paid out\");\n        for(uint i = 0; i < flightInsurance[flightKey].passengers.length; i++) {\n            address passengerAddress = flightInsurance[flightKey].passengers[i];\n            uint256 purchasedAmount = flightInsurance[flightKey].purchasedAmount[passengerAddress];\n            uint256 payoutAmount = purchasedAmount.mul(3).div(2);\n            passengerBalance[passengerAddress] = passengerBalance[passengerAddress].add(payoutAmount);\n            airlines[airlineAddress].funds.sub(payoutAmount);\n        }\n        flightInsurance[flightKey].isPaidOut = true;\n    }\n\n    function payPassenger(address payable insured, uint256 amount) external         \n        requireIsOperational\n        requireCallerAuthorized\n        requireSufficientBalance(insured, amount) // this is business logic, but makes sense to hard code in the data contract\n    {\n         passengerBalance[insured] = passengerBalance[insured].sub(amount);\n         insured.transfer(amount);\n    }\n\n\n    function getFlightKey(\n        address airline,\n        string memory flight,\n        uint256 departureTime\n    ) internal pure returns (bytes32) {\n        return keccak256(abi.encodePacked(airline, flight, departureTime));\n    }\n\n    fallback()  external payable requireCallerAuthorized {\n        // funds the contract\n    }\n    \n    receive() external payable {\n        // custom function code\n    }\n}\n",
  "sourcePath": "/Users/galen/code/udacity/udacity-blockchain-developer/project4/contracts/FlightSuretyData.sol",
  "compiler": {
    "name": "solc",
    "version": "0.7.6+commit.7338295f.Emscripten.clang"
  },
  "schemaVersion": "3.3.2",
  "updatedAt": "2021-01-11T13:30:28.706Z",
  "networkType": "ethereum",
  "devdoc": {
    "kind": "dev",
    "methods": {},
    "version": 1
  },
  "userdoc": {
    "kind": "user",
    "methods": {},
    "version": 1
  }
}